:020000040800F2
:10100000001000200D1100085511000855110008AE
:101010005511000855110008551100080000000086
:101020000000000000000000000000005511000852
:101030005511000800000000551100085511000866
:1010400055110008551100085511000855110008E8
:1010500055110008551100085511000855110008D8
:101060000000000055110008551100085511000836
:101070005511000855110008551100080000000026
:101080005511000855110008000000005511000816
:101090005511000855110008551100085511000898
:1010A0005511000855110008551100085511000888
:1010B00055110008000000000000000000000000C2
:0C10C00055110008000000005511000848
:1010CC0010B5054C237833B9044B13B10448AFF376
:1010DC0000800123237010BD0000002000000000E0
:1010EC00C816000808B5034B1BB103490348AFF3FE
:1010FC00008008BD0000000004000020C816000895
:10110C00002103E00B4B5B58435004310A480B4B56
:10111C0042189A42F6D30A4A02E0002342F8043BF2
:10112C00084B9A42F9D300F001FA00F093FA00F060
:10113C0063FA7047E0260008000000200000002041
:10114C00000000201C000020FEE70000114B1A6874
:10115C0042F001021A601A689207FCD55A686FF3C4
:10116C0001025A605A6812F00C0FC2F38101F9D1D6
:10117C001A6822F0867222F480321A6041F61072DC
:10118C005960DA624FF480121A634FF41F029A60AE
:10119C00704700BF00100240030C03F1804303F5BD
:1011AC00043300F01F001A68012303FA00F030EA40
:1011BC0002030CBF012000207047030C03F1804395
:1011CC0003F50433012200F01F0002FA00F09142F3
:1011DC001A680CBF104322EA000018607047000028
:1011EC0004281FD8DFE800F003090E1319000E4B7A
:1011FC001A6861F300021A6070470B4B1A6861F3AE
:10120C001042F8E7084B1A6861F31862F3E7064BD3
:10121C001A6A61F300021A627047034B5A6A61F34F
:10122C0000025A62704700BF00100240024B5A681D
:10123C0060F307125A60704700100240024B5A6864
:10124C0060F30A225A60704700100240024B5A6841
:10125C0060F3CD225A6070470010024010B51A4B53
:10126C005A6820B960F3104218485A6009E042F4F9
:10127C0080325A6001285A6821D16FF351421448C8
:10128C005A606FF41874A0F56E122244114CA242ED
:10129C0018D9114A02441148824294BF02220022FA
:1012AC00586861F3954058605868C1F3011161F3B7
:1012BC005E705860D96A62F31A61D96210BD42F44B
:1012CC000032D1E70022EBE70010024000093D009C
:1012DC0000127A00DEC810006BCA88FF7AE507009E
:1012EC00024B5A6860F301025A60704700100240CA
:1012FC00024B5868C0F38100704700BF00100240D9
:10130C00044B5A6D01280CBF42F030026FF30512EA
:10131C005A65704700100240014BD860704700BFFF
:10132C0000200240084BDA68D10709D4DA6852076A
:10133C0008D4DB6813F0100F14BF02200320704791
:10134C0000207047012070470020024010B5044671
:10135C00FFF7E8FF30B90CB9042010BDFFF7E2FF2E
:10136C00013CF7E7002C08BF0420F6E7034B044AC6
:10137C005A6002F188325A60704700BF0020024068
:10138C0023016745024A136943F0800313617047D8
:10139C000020024010B5094C236943F0020323617D
:1013AC006061236943F0400323614FF08040FFF7F5
:1013BC00CDFF23696FF34103236110BD0020024070
:1013CC0010B5074C236943F00103236101604FF40E
:1013DC008010FFF7BBFF23696FF30003236110BD7F
:1013EC00002002402DE9F84342EA01039B07054621
:1013FC000E46144626D14FEA9108FFF7B7FFC4F307
:10140C00090313B92046FFF7C5FF05EB88082F46E3
:10141C00A4EB050947450BD1FFF7B4FF3246214633
:10142C00284600F03BF9B0FA80F04009BDE8F8839B
:10143C00396809EB0700FFF7C3FF0320FFF76CFFC8
:10144C000437E7E70020F1E780B500AF0121104831
:10145C00FFF7B3FE0F4B77229A620E4B4FF6FF72DB
:10146C00DA620C4A136843F001031360094A1368EB
:10147C006FF309231360074A13686FF306131360A5
:10148C00044A536943F00103536100BF80BD00BFA0
:10149C0001001C000004004080B400AF034B5B6AE9
:1014AC009BB21846BD4680BC704700BF000400408C
:1014BC0080B500AF1C4B40F253121A60FFF746FE8A
:1014CC0001210020FFF78CFE00BF0120FFF764FE16
:1014DC000346012BF9D11D210020FFF7BFFE01218E
:1014EC000220FFF77DFE00BF1920FFF755FE0346D3
:1014FC00012BF9D10020FFF799FE0020FFF7A6FE83
:10150C000020FFF79BFE0120FFF7FAFE0220FFF7F9
:10151C00E7FE00BFFFF7ECFE0346022BFAD10020DA
:10152C00FFF7EEFE00BF80BD0020024080B400AF8C
:10153C0000BFBD4680BC704780B584B000AF7860FA
:10154C0019E07B6842F21072934228BF1346FB816C
:10155C00FFF7A2FF0346BB8100BFFFF79DFF0346C9
:10156C001A46BB89D31A9BB2FA899A42F5D8FB89E1
:10157C007A68D31A7B607B68002BE2D100BF00BF76
:10158C001037BD4680BD000080B584B000AF40F67A
:10159C00F873FB604FF00063BB60164B7B6020E080
:1015AC004FF480733B603A68FB689A4201D9FB6840
:1015BC003B6000BFBA6839687868FFF713FF0346D1
:1015CC0083F00103DBB2002BF4D1FA683B68D31A29
:1015DC00FB60BA683B681344BB607A683B68134491
:1015EC007B60FB68002BDBD100BF00BF1037BD4612
:1015FC0080BD00BFE016000880B500AFFFF758FFB4
:10160C00FFF722FF40F6F87207494FF0006000F038
:10161C0045F80346002B04D00448FFF78DFFFFF775
:10162C00B3FF00F005F800BFE016000860E31600F9
:10163C00BFF34F8F0549064BCA6802F4E0621343AF
:10164C00CB60BFF34F8F00BFFDE700BF00ED00E0A4
:10165C000400FA0570B50D4D0D4C641BA41000264A
:10166C00A64209D10B4D0C4C00F028F8641BA410B9
:10167C000026A64205D170BD55F8043B98470136AB
:10168C00EEE755F8043B98470136F2E7D8260008F8
:10169C00D8260008D8260008DC26000810B5013929
:1016AC000244904201D1002005E0037811F8014F6B
:1016BC00A34201D0181B10BD0130F2E7F8B500BFF2
:1016CC00F8BC08BC9E467047F8B500BFF8BC08BC17
:0416DC009E4670476F
:1016E000001000200D0100085501000855010008F8
:1016F00055010008550100085501000800000000D0
:10170000000000000000000000000000550100087B
:1017100055010008000000005501000855010008AF
:101720005501000855010008550100085501000841
:101730005501000855010008550100085501000831
:10174000000000005501000855010008550100087F
:10175000550100085501000855010008000000006F
:10176000550100085501000800000000550100085F
:1017700055010008550100085501000855010008F1
:1017800055010008550100085501000855010008E1
:1017900055010008000000000000000000000000EB
:1017A00055010008000000005501000810B5054C67
:1017B000237833B9044B13B10448AFF300800123FD
:1017C000237010BD1802002000000000B80C0008B3
:1017D00008B5034B1BB103490348AFF3008008BDB4
:1017E000000000001C020020B80C0008002103E0EB
:1017F0000B4B5B58435004310A480B4B42189A423A
:10180000F6D30A4A02E0002342F8043B084B9A420E
:10181000F9D300F0CDFA00F075FD00F0FBFA704747
:10182000D80C00080000002000000020000000206C
:1018300034020020FEE70000114B1A6842F001025A
:101840001A601A689207FCD55A686FF301025A6051
:101850005A6812F00C0FC2F38101F9D11A6822F014
:10186000867222F480321A6041F610725960DA6290
:101870004FF480121A634FF41F029A60704700BF42
:1018800000100240030C03F1804303F5043300F021
:101890001F001A68012303FA00F030EA02030CBFAC
:1018A000012000207047030C03F1804303F504334B
:1018B000012200F01F0002FA00F091421A680CBFEA
:1018C000104322EA000018607047000004281FD867
:1018D000DFE800F003090E1319000E4B1A6861F3DC
:1018E00000021A6070470B4B1A6861F31042F8E768
:1018F000084B1A6861F31862F3E7064B1A6A61F342
:1019000000021A627047034B5A6A61F300025A627E
:10191000704700BF00100240024B5A6860F3071284
:101920005A60704700100240024B5A6860F30A2266
:101930005A60704700100240024B5A6860F3CD2293
:101940005A6070470010024010B51A4B5A6820B90F
:1019500060F3104218485A6009E042F480325A603D
:1019600001285A6821D16FF3514214485A606FF42C
:101970001874A0F56E122244114CA24218D9114AD3
:1019800002441148824294BF02220022586861F347
:10199000954058605868C1F3011161F35E7058605A
:1019A000D96A62F31A61D96210BD42F40032D1E7FC
:1019B0000022EBE70010024000093D0000127A000F
:1019C000DEC810006BCA88FF7AE50700024B5A6830
:1019D00060F301025A60704700100240024B5868E1
:1019E000C0F38100704700BF00100240044B5A6DE5
:1019F00001280CBF42F030026FF305125A657047A0
:101A000000100240014BD860704700BF0020024028
:101A1000084BDA68D10709D4DA68520708D4DB68C2
:101A200013F0100F14BF02200320704700207047EE
:101A3000012070470020024010B50446FFF7E8FF80
:101A400030B90CB9042010BDFFF7E2FF013CF7E705
:101A5000002C08BF0420F6E7034B044A5A6002F149
:101A600088325A60704700BF00200240230167455A
:101A7000024A136943F0800313617047002002405B
:101A800010B5094C236943F00203236160612369A7
:101A900043F0400323614FF08040FFF7CDFF2369FF
:101AA0006FF34103236110BD0020024010B5074CC5
:101AB000236943F00103236101604FF48010FFF7B5
:101AC000BBFF23696FF30003236110BD00200240B8
:101AD0002DE9F0410C880025032601270CB9BDE84B
:101AE000F081E30735D51FFA85FE02684FEA4E0CF8
:101AF00006FA0CF322EA030202608A79D0F8008029
:101B000002FA0CF242EA08020260426807FA0EF892
:101B100022EA080242600A79D0F8048002FA0EF242
:101B200042EA08024260826822EA03028260CA79BD
:101B3000D0F808E002FA0CF242EA0E028260C268B3
:101B400022EA0303C3604B79C26803FA0CF3134320
:101B5000C36064080135C1E74FF6FF724FF0807330
:101B6000C0E9002370472DE9F84342EA01039B07CF
:101B700005460E46144626D14FEA9108FFF76CFF42
:101B8000C4F3090313B92046FFF77AFF05EB880871
:101B90002F46A4EB050947450BD1FFF769FF3246F5
:101BA0002146284600F0D2FBB0FA80F04009BDE89B
:101BB000F883396809EB0700FFF778FF0320FFF788
:101BC00021FF0437E7E70020F1E700F0CFBB00007A
:101BD000114B1B78012B03D0104B00221A80704749
:101BE0000F4A136803F16043B3F5803FF4D853689C
:101BF00003F17843A3F58053B3F5802FECD872B688
:101C0000084B19686FF300011960D2E900329D4654
:101C100083F3088810477047007C0008000000200C
:101C20000010000800040040054A116821F44071CA
:101C30001160D36823F4407343EA0023D3607047F4
:101C4000000400480120FFF7EFBF000070B5144802
:101C5000ADF5806DFFF716FE01281ED1114CA3785B
:101C60000D2B1AD0013BDBB2FD2B16D84FF480624E
:101C70002146684600F07AFB0B4E0D238DF80230AA
:101C80006D46224628464FF4807104F58074FFF7B4
:101C90006AFFB44205F58075F3D10DF5806D70BD16
:101CA0001C002400007C0008008000080549064B49
:101CB0004A6A92B25A804B6A9B1A9BB29842FAD8EF
:101CC000704700BF0004004000000020074B1022B6
:101CD0009A611A6822F4407242F480721A605A685B
:101CE00022F010025A603420FFF7E0BF00040048E1
:101CF000F8B50C4E10270546B7623420FFF7D6FF23
:101D00000824EB074CBFB761B7623420013CFFF7F2
:101D1000CDFF14F0FF044FEA5505F2D1014B10221C
:101D20009A61F8BD0004004808B5FFF7CFFFC12055
:101D3000FFF7DEFFFFF786FF024A138801331380A7
:101D400008BD00BF0000002008B5FFF7BFFF30202E
:101D5000FFF7CEFFFFF776FF014B00221A8008BD88
:101D60000000002008B5FFF7B1FFC220FFF7C0FF59
:101D7000FFF768FF024A13880133138008BD00BFD4
:101D80000000002038B5FFF7A1FF084D002415F82A
:101D9000010BFFF7ADFF01343420FFF787FF092C5B
:101DA000F5D1BDE83840FFF74DBF00BFE80F000890
:101DB00070470023F0B504464AF2010718469942DD
:101DC00000DCF0BDE55C082285EA000616F0010F94
:101DD0004FEA500018BF784002F1FF3218BF80B2BE
:101DE00012F0FF024FEA5505EED10133E7E700009C
:101DF00010B5074C0146201DFFF7DBFF21444A794F
:101E00000B7943EA02231B1A5842584110BD00BF08
:101E1000000000202DE98048B34B83B040F25312FC
:101E200000AF1A60FFF708FD01210020FFF74EFD0B
:101E30000120FFF727FD01280446F9D11D210020CC
:101E4000FFF782FD21460220FFF740FD1920FFF732
:101E500019FD01280446F9D10020FFF75DFD00209F
:101E6000FFF76AFD0020FFF75FFD2046FFF7BEFD8C
:101E70000220FFF7ABFDFFF7B1FD02280446FAD1BF
:101E80000020FFF7B3FD9948994E0121FFF70BFDA4
:101E9000984B994877229A624FF6FF72DA621A6875
:101EA00042F001021A601A686FF309221A601A6878
:101EB0006FF306121A605A6942F001025A61012159
:101EC000FFF7F1FC01218D48FFF7EDFC3846FFF7E5
:101ED00043FE4FF080731020C7E900033946844861
:101EE000FFF7F6FD2046FFF79FFE4FF4FA70FFF76D
:101EF000DDFE834C00253369D90658BFB4F806319E
:101F00004FF00A005CBF0133A4F80631FFF7CEFEA4
:101F1000B4F80631B3F5E17F88BF4FF47A65013537
:101F2000B5F57A6FE7DBB3F5E17F06D97548FFF7C2
:101F3000A9FC012801D0FFF74BFE0120FFF774FE3A
:101F40004FF4FA70FFF7B2FE694E05463369DA06C0
:101F500058BFB4F806314FF00A005CBF0133A4F853
:101F60000631FFF7A3FE013DF0D1B4F80631F3B11D
:101F70002846A4F80651FFF757FE4FF4FA70FFF712
:101F800095FE5B4E05463369DB0658BFB4F8063153
:101F90004FF00A005CBF0133A4F80631FFF786FE5C
:101FA000013DF0D1B4F806310BB1FFF711FE00206E
:101FB000FFF73AFEFFF74AFE4E4E5348DFF84891CE
:101FC00000254FF481722946C4F8085184F80C5159
:101FD00000F0DAF9FFF736FEA846002384F80D3149
:101FE000726A434992B2628044F620600B69DD0652
:101FF00046D5726A94F80C113D4D92B262802B69FD
:10200000D8064DD41A20FFF751FE2B6913F0100BA0
:102010003DD1DFF8DCA03420FFF748FEDAF810509D
:1020200094F80D31C5F3001505FA0BF51D430BF1BE
:10203000010BEDB2BBF1080F84F80D51EBD1FFF7A6
:1020400035FEDAF81030DB0621D594F80E21012395
:1020500084F80C31002A5BD0B4F81021D4F8083190
:1020600002329A4227D0013389F80050C4F808316F
:1020700008F10108B8F5817F09F10109ADD117E038
:10208000736A9B1A9BB28342B0D96523238094F86C
:102090000C316BB92388642B8FD9FFF799FD8CE73E
:1020A000736A9B1A9BB2B3F5827FA8D90029A6D088
:1020B00094F80E31A3B3B4F810512846FFF798FEF8
:1020C000002847D04FF480720021104800F05CF9DE
:1020D0000D492A4601F5877000F048F9FFF734FEF4
:1020E000002384F80E31D5E70020024001001C00D7
:1020F0000004004800040040120014001100140005
:10210000000000201C002400040000201201002018
:10211000736A61885B1A9BB2FA2B10D9C4F8082144
:10212000237D20797D2B18D1237B0D2BB2D1637BAE
:10213000422BAFD1FFF726FE00232376AAE740F219
:102140000113984508BF238889F8005004BF143351
:1021500023808DE7FFF706FE9CE7237E7D2B05D1CC
:10216000237C0D2B02D1637C422BE3D094F82C30DE
:102170007D2B07D194F824300D2B03D194F8253012
:10218000422BD7D080B9A27963791343E279134304
:1021900001D165232380FFF799FDC120FFF7A8FD3A
:1021A00023880133238043E001281ED10220FFF75A
:1021B0001FFE0028CED0D4F814224F4B9A4202D8EA
:1021C000FFF7B2FD66E74D4BB4F810119A4204D107
:1021D000022984BF0D2384F814314948FFF7C3FC5A
:1021E0000028EDD0FFF7B0FD54E7FF280ED1042002
:1021F000FFF7FEFD0028ADD000232380E3885BBA03
:102200009BB203F10063C4F81432EBE7FE2812D14D
:102210000420FFF7EDFD00289CD0A379012B14BF0B
:10222000E3794FF48073A4F81031012384F80E3160
:10223000FFF708FD2EE7FD280AD10220FFF7D8FDA1
:10224000002887D0FFF742FDC120FFF751FDEFE7DF
:1022500002280AD1FFF7CCFD00283FF47BAFD4F869
:102260001422254B9A42ABD9BCE7032893D1022014
:10227000E946FFF7BDFD18B9FFF774FDCD4609E744
:102280006579D4F80831002D08BF4FF4807501330B
:10229000C4F80831FFF71AFD05F10A0323F007031C
:1022A000ADEB030D05F1030842460021684600F03E
:1022B0006BF82A46D4F814126846FFF786FC2946C4
:1022C0006846FFF776FD6B1C0DF805000231000A29
:1022D0000DF8030030230DF80130EA4600251AF806
:1022E0000500FFF705FD01353420FFF7DFFCA845A9
:1022F000F5DCFFF7A7FCC1E7FF0F0008007C000832
:102300001201002070B50D4D0D4C641BA410002669
:10231000A64209D10B4D0C4C00F03EF8641BA410F2
:102320000026A64205D170BD55F8043B98470136FA
:10233000EEE755F8043B98470136F2E7D00C000869
:10234000D00C0008D00C0008D40C000810B50139DE
:102350000244904201D1002005E0037811F8014FBA
:10236000A34201D0181B10BD0130F2E70A4491428C
:1023700000F1FF3300D1704710B511F8014B03F89D
:10238000014F9142F9D110BD02440346934200D15E
:10239000704703F8011BF9E7F8B500BFF8BC08BCAB
:1023A0009E467047F8B500BFF8BC08BC9E46704713
:1023B000F1000008CD00000800000000000000004F
:1023C000000000000000000000000000000000000D
:1023D00000000000000000000000000000000000FD
:1023E00000000000000000000000000000000000ED
:1023F00000000000000000000000000000000000DD
:1026C000DAE32559D963B84E343731141F060601B1
:0826D0003000000000000000D2
:0426D800F1100008F5
:0426DC00CD10000815
:040000050800110DD1
:00000001FF
