:020000040800F2
:10100000001000201D1200086D1200086D1200086B
:1010100000000000000000000000000000000000D0
:101020000000000000000000000000006D12000839
:1010300000000000000000006D1200086D120008A2
:101040006D1200086D1200086D1200086D12000884
:101050006D1200086D1200086D1200086D12000874
:101060006D1200086D1200086D1200086D12000864
:101070006D1200086D1200086D1200086D12000854
:101080006D1200086D1200086D1200086D12000844
:101090006D1200086D1200086D1200086D12000834
:1010A0006D1200086D1200086D1200086D12000824
:0C10B0006D1200086D1200086D1200089F
:1010BC00002243088B4274D303098B425FD3030A8B
:1010CC008B4244D3030B8B4228D3030C8B420DD39E
:1010DC00FF22090212BA030C8B4202D3121209022C
:1010EC0065D0030B8B4219D300E0090AC30B8B426A
:1010FC0001D3CB03C01A5241830B8B4201D38B0318
:10110C00C01A5241430B8B4201D34B03C01A5241BC
:10111C00030B8B4201D30B03C01A5241C30A8B42FF
:10112C0001D3CB02C01A5241830A8B4201D38B02EA
:10113C00C01A5241430A8B4201D34B02C01A52418E
:10114C00030A8B4201D30B02C01A5241CDD2C30900
:10115C008B4201D3CB01C01A524183098B4201D37C
:10116C008B01C01A524143098B4201D34B01C01A67
:10117C00524103098B4201D30B01C01A5241C308DF
:10118C008B4201D3CB00C01A524183088B4201D34E
:10119C008B00C01A524143088B4201D34B00C01A3A
:1011AC005241411A00D20146524110467047FFE7A6
:1011BC0001B5002000F006F802BDC0460029F7D0AA
:1011CC0076E770477047C04610B5064C2378002B65
:1011DC0007D1054B002B02D0044800E000BF0123CF
:1011EC00237010BD0400002000000000401800080F
:1011FC00044B10B5002B03D00349044800E000BF9A
:10120C0010BDC04600000000080000204018000877
:10121C000D488546002103E00C4B5B5843500431CC
:10122C000B480C4B42189A42F6D30B4A02E00023AF
:10123C0013600432094B9A42F9D300F073F900F0B1
:10124C00B5FA00F0E1F9FEE700100020582800087C
:10125C0000000020040000200400002020000020DA
:10126C00FEE70000204A10B50368904206D08024A7
:10127C00E405A04202D01D4CA0420CD17024A34323
:10128C004C682343904212D08024E405A0420ED037
:10129C00164CA0420BD0164CA04208D0154CA042C4
:1012AC0005D0154CA04202D0144CA04203D1144CD2
:1012BC002340CC68234303608B68C3620B88836232
:1012CC00904208D00B4B984205D00B4B984202D061
:1012DC000A4B984201D10B7C0363012342691343EF
:1012EC004361002010BDC046002C014000040040AA
:1012FC0000200040004001400044014000480140F3
:10130C00FFFCFFFFFA2110B58900FFF7D1FE002288
:10131C00034B013858609A6005321A6010BDC04604
:10132C0010E000E0014B18607047C0460000002040
:10133C001300F0B50B4385B000900F001500002092
:10134C005B0738D12B4C2C4A8B0821690A4322614C
:10135C008022520221691142FCD16269002A03DA0F
:10136C00264AA260264AA2606A050ED10232626148
:10137C006169EA0AD2000A4380216261626949020A
:10138C000A43626122690A42FCD12E0001335B08D8
:10139C00DB005B190193019B9E420ED18023626995
:1013AC001B06134363613A002900009800F022FAEF
:1013BC0043425841C0B205B0F0BD009B0822591BF6
:1013CC00891902A800F024FA01236361029B33609F
:1013DC00039B7360802280212369520249021A40C8
:1013EC000B42F7D10121236908360B43236162615B
:1013FC00D1E7C04600200240FAC300002301674534
:10140C00AB89EFCD80B586B000AF3B1D180014231F
:10141C001A00002100F005FA012000F021F93B1D13
:10142C003F221A803B1D00225A603B1D0122524272
:10143C009A603B1D0022DA603A1D8023DB05110007
:10144C001800FFF70FFF8023DB05180000F093F95D
:10145C008023DB050021180000F094F98023DB05C4
:10146C000021180000F096F98023DB05180000F02D
:10147C0097F98023DB050021180000F076F9802312
:10148C00DB05180000F06CF9C046BD4606B080BD07
:10149C0080B500AF8023DB05180000F071F9030064
:1014AC009BB21800BD4680BD80B500AF022000F095
:1014BC004DF900F0E3F8C04600F0EAF80300012B08
:1014CC00FAD180239B0508220021022000F024F988
:1014DC0000F010F900F030F9C04600F015F90300E7
:1014EC00012BFAD1002000F0EDF8022000F0D8F822
:1014FC00C04600F0DFF80300102BFAD1002000F0FA
:10150C00EDF8074B1800FFF7FDFE054B1800FFF731
:10151C0009FF034B1800FFF705FFC046BD4680BD11
:10152C000090D00380B500AFC046BD4680BD000022
:10153C0090B585B000AF786021E07B68144A934287
:10154C0000D9134B0E22BA1813800C23FC18FFF78A
:10155C009FFF03002380C046FFF79AFF03001A0089
:10156C000C23FB181B88D31A9BB20E217A181288F5
:10157C009A42F1D87B181B887A68D31A7B607B68F7
:10158C00002BDAD1C046C046BD4605B090BDC04662
:10159C001027000080B584B000AF194BFB6080238E
:1015AC001B05BB60174B7B6022E080235B003B601C
:1015BC003A68FB689A4201D9FB683B60C046BA683E
:1015CC0039687B681800FFF7B3FE03001A0001238B
:1015DC005340DBB2002BF2D1FA683B68D31AFB60A4
:1015EC00BA683B68D318BB607A683B68D3187B60D9
:1015FC00FB68002BD9D1C046C046BD4604B080BDA7
:10160C00F80F00005818000880B500AFFFF74CFF2A
:10161C00FFF7F8FE084A094980231B05180000F063
:10162C00E9F8031E05D0064B1800FFF781FFFFF702
:10163C00B1FF00F007F8C046F80F0000581800087A
:10164C0060E31600BFF34F8F034B044ADA60BFF31D
:10165C004F8FC046FDE7C04600ED00E00400FA05E0
:10166C00054B82B0DA6B0243DA63DB6B18400190F6
:10167C00019B02B07047C046001002408023034A11
:10168C005B0011680B4313607047C04600100240AA
:10169C00024B18684005C00F7047C046001002404E
:1016AC000721034A93688B43034393607047C046FA
:1016BC0000100240024B9868382318407047C0460F
:1016CC0000100240034A044993680B4003439360A3
:1016DC007047C04600100240FFF0FFFF034A044968
:1016EC0093680B40034393607047C0460010024060
:1016FC00FF8FFFFF8023034A5B0411680B431360C9
:10170C007047C04600100240024B18688001C00FA1
:10171C007047C0460010024070B5054D054EEC6890
:10172C00120234401C430C4314430443EC6070BD60
:10173C00001002408C80FF1F8023034A5B05D16898
:10174C000B43D3607047C046001002400721034A88
:10175C0013688B43034313607047C046002002405C
:10176C00012302681343036070477022036893439C
:10177C000B430360704780220368934303607047F8
:10178C00406A70478368024A13400B43836070477A
:10179C00F8BFFEFF7022436893430B4343607047CE
:1017AC0080228368934383607047000070B50026E5
:1017BC000C4D0D4C641BA410A64209D1002600F060
:1017CC0039F80A4D0A4C641BA410A64205D170BD11
:1017DC00B300EB5898470136EEE7B300EB58984747
:1017EC000136F2E75028000850280008502800085D
:1017FC005428000830B500240139A24201D1002040
:10180C0005E0035D01340D5DAB42F6D0581B30BDD5
:10181C00002310B59A4200D110BDCC5CC4540133E6
:10182C00F8E703008218934200D170471970013316
:10183C00F9E70000F8B5C046F8BC08BC9E467047F6
:0C184C00F8B5C046F8BC08BC9E467047CA
:10185800001000201D0200086D0200086D0200083B
:101868000000000000000000000000000000000070
:101878000000000000000000000000006D020008E9
:1018880000000000000000006D0200086D02000862
:101898006D0200086D0200086D0200086D02000864
:1018A8006D0200086D0200086D0200086D02000854
:1018B8006D0200086D0200086D0200086D02000844
:1018C8006D0200086D0200086D0200086D02000834
:1018D8006D0200086D0200086D0200086D02000824
:1018E8006D0200086D0200086D0200086D02000814
:1018F8006D0200086D0200086D0200086D02000804
:101908006D0200086D0200086D02000800224308FD
:101918008B4274D303098B425FD3030A8B4244D3AF
:10192800030B8B4228D3030C8B420DD3FF220902F1
:1019380012BA030C8B4202D31212090265D0030BB0
:101948008B4219D300E0090AC30B8B4201D3CB03A6
:10195800C01A5241830B8B4201D38B03C01A5241E8
:10196800430B8B4201D34B03C01A5241030B8B42EA
:1019780001D30B03C01A5241C30A8B4201D3CB02D5
:10198800C01A5241830A8B4201D38B02C01A5241BA
:10199800430A8B4201D34B02C01A5241030A8B42BD
:1019A80001D30B02C01A5241CDD2C3098B4201D3D5
:1019B800CB01C01A524183098B4201D38B01C01A53
:1019C800524143098B4201D34B01C01A52410309CA
:1019D8008B4201D30B01C01A5241C3088B4201D379
:1019E800CB00C01A524183088B4201D38B00C01A26
:1019F800524143088B4201D34B00C01A5241411A4D
:101A080000D20146524110467047FFE701B5002059
:101A180000F006F802BDC0460029F7D076E7704707
:101A28007047C04610B5064C2378002B07D1054BEC
:101A3800002B02D0044800E000BF0123237010BD32
:101A48001E02002000000000000E0008044B10B524
:101A5800002B03D00349044800E000BF10BDC04676
:101A68000000000020020020000E00080D488546F6
:101A7800002103E00C4B5B58435004310B480C4BDE
:101A880042189A42F6D30B4A02E00023136004324C
:101A9800094B9A42F9D300F0C1FA00F095FD00F025
:101AA800F3FAFEE700100020200E000800000020D6
:101AB800040000200400002038020020FEE7F7B5EB
:101AC80000254B680A6800935E1E1300EB4009D19D
:101AD800012E05D84368C96893434A431A434260B4
:101AE8000020FEBD01241300AC40234022422BD02D
:101AF8001A0003275A435743BC46FF4301976746DA
:101B08000468BC43009F57433C430460012E06D839
:101B18008C6886685443019F3E40344384600C6956
:101B2800C6685443019F3E402643009CC660022C71
:101B38000AD14C69FF2B09D80F26524356436243FA
:101B4800036AB3431A4302620135BAE70F261B0A38
:101B58005B435B435E436343426AB2431A43426258
:101B6800F2E70000314A030090420AD18022304B4C
:101B78001201196B0A431A631A6B2E490A401A6339
:101B88000BE08022D205904209D10121284BDA6A64
:101B98000A43DA62DA6A8A43DA6200207047264A20
:101BA800904203D1224B0221DA6AF1E7234A90429C
:101BB80003D11F4B1021DA6AEAE7214A904203D188
:101BC8001B4B2021DA6AE3E71E4A904208D18022A3
:101BD800174B1202196B0A431A631A6B1A49CDE79D
:101BE8001A4A904208D18022114B5202196B0A43BB
:101BF8001A631A6B1649C1E7164A904208D1802227
:101C08000B4B9202196B0A431A631A6B1249B5E718
:101C1800124A01209342C1D18022054BD202196B8E
:101C28000A431A631A6B0E49A8E7C046002C014004
:101C380000100240FFF7FFFF0004004000100040C2
:101C48000014004000200040FF7FFFFF00400140DB
:101C5800FFFFFEFF00440140FFFFFDFF0048014079
:101C6800FFFFFBFF204A10B50368904206D080248E
:101C7800E405A04202D01D4CA0420CD17024A3431D
:101C88004C682343904212D08024E405A0420ED031
:101C9800164CA0420BD0164CA04208D0154CA042BE
:101CA80005D0154CA04202D0144CA04203D1144CCC
:101CB8002340CC68234303608B68C3620B8883622C
:101CC800904208D00B4B984205D00B4B984202D05B
:101CD8000A4B984201D10B7C0363012342691343E9
:101CE8004361002010BDC046002C014000040040A4
:101CF80000200040004001400044014000480140ED
:101D0800FFFCFFFFFA2110B58900FFF7FFFD002255
:101D1800034B013858609A6005321A6010BDC046FE
:101D280010E000E0014B18607047C046000000203A
:101D38001300F0B50B4385B000900F00150000208C
:101D48005B0738D12B4C2C4A8B0821690A43226146
:101D58008022520221691142FCD16269002A03DA09
:101D6800264AA260264AA2606A050ED10232626142
:101D78006169EA0AD2000A43802162616269490204
:101D88000A43626122690A42FCD12E0001335B08D2
:101D9800DB005B190193019B9E420ED1802362698F
:101DA8001B06134363613A002900009800F030FCD9
:101DB80043425841C0B205B0F0BD009B0822591BF0
:101DC800891902A800F032FC01236361029B336089
:101DD800039B7360802280212369520249021A40C2
:101DE8000B42F7D10121236908360B432361626155
:101DF800D1E7C04600200240FAC30000230167452E
:101E0800AB89EFCD10B500F011FC10BD10B5134B28
:101E18001B78012B03D00022114B1A8010BDE02241
:101E2800104C120623689B18802252029342F2D863
:101E38000D4B0E4A1B689B188022D2029342EAD8A7
:101E480072B68020C005FFF78DFE094923686268D5
:101E58008C609D4683F308881047DFE700F8000888
:101E680004000020001000080410000800F0FFF72C
:101E780000ED00E0024B1869C006C00F7047C0466D
:101E880000040050054A10B51168054C00022140B5
:101E98001160D36823400343D36010BD0004005091
:101EA800FFFCFFFF10B50120FFF7ECFF10BD00009D
:101EB80070B5154B154C1B6EA544DB0020D5144B93
:101EC8001B780D2B1CD0013BDBB2FD2B18D88022D0
:101ED8006846D2000F4900F0A9FB80260D236A4608
:101EE8008025002493707600ED002000094B310016
:101EF800E21801346844FF34FFF71AFFAC42F4D10A
:101F08008023DB009D4470BD0010024000FCFFFFF1
:101F180002F8000800F800088021C9054A6A044B45
:101F280092B25A804B6A9B1A9BB29842FAD8704771
:101F3800040000201020084B10B598611A68074962
:101F48001140802252000A431A605A6882435A603C
:101F58002430FFF7E1FF10BD00040050FFFCFFFF35
:101F6800F8B510270B4E0500B7623420FFF7D4FFF1
:101F7800082401231D420BD0B761013C3420E4B290
:101F8800FFF7CAFF6D08002CF3D11023B361F8BD29
:101F9800B762F2E70004005010B5FFF7CBFFC1208D
:101FA800FFF7DEFFFFF77EFF024A13880133138035
:101FB80010BDC0460400002010B5FFF7BBFF30205D
:101FC800FFF7CEFFFFF76EFF0022014B1A8010BD0E
:101FD8000400002010B5FFF7ADFFC220FFF7C0FFD7
:101FE800FFF760FF024A13880133138010BDC04613
:101FF8000400002010B5FFF79DFF0024064B1B19B5
:10200800187AFFF7ADFF01343420FFF785FF092C5C
:10201800F4D1FFF747FF10BDE00F0008704700003C
:102028000023F7B50400012618000B4F0191019A0F
:102038009A4200DCFEBD0822E15C0D0045404008E4
:10204800354201D0784080B2013AD2B24908002A1C
:10205800F3D10133EBE7C04601A0FFFF70B50400E0
:10206800074D01002800FFF7DBFF064B1A5D2B5DCB
:1020780012021343181A42425041C0B270BDC04602
:102088001C0100201D0100200722D149F0B50B6872
:10209800D04C93431A00022313430B608023226819
:1020A8005B001343236080238FB000AFDB002268FE
:1020B8001A42FCD0E368C84A1A40C84B1343E3608D
:1020C800802322685B04134323608023E2685B0556
:1020D8001343E36080239B0422681A42FCD0A36860
:1020E800BF4A13400722A360A36893431A00022340
:1020F8001343A3603823A2681A40FA60102AFAD161
:10210800B84AA368B8481340A360FFF7FBFDB64878
:10211800FFF708FEB448FFF705FE10230126DB1879
:1021280014220021D81900F08AFAE36B8025334382
:10213800E363E36BED0533407B617B693F233B84BD
:10214800403BBB621133D9182800C919FFF78AFD33
:1021580080212B68A54A8B432B60AB681340702203
:10216800AB606B6893436B60AB688B43AB602B6869
:10217800002193432B602B685C3A33432B60102378
:102188000225D018C01900F05AFA636BFA68334375
:102198006363636B96481E40FE61FB69636B0026B0
:1021A8002B436363636B3A622B40BB61BB691023AB
:1021B800DB18D919FFF783FC2800FFF763FEFA2024
:1021C8004000FFF7A9FEFFF755FE8A4D002802D10F
:1021D800AB880133AB800A20FFF79EFEE122AB8873
:1021E8005200934201D9FA263601FA220136120129
:1021F8009642E8DBE1225200934204D9236EDB00C9
:1022080001D4FFF703FE0120FFF73CFEFA20FA2471
:102218004000FFF781FE6400FFF72CFE002802D182
:10222800AB880133AB800A20013CFFF775FE002C18
:10223800F2D1AB88002B1BD02000AC80FFF722FE28
:10224800FA204000FFF768FEF534FF34FFF712FE6E
:10225800002802D1AB880133AB800A20013CFFF78C
:102268005BFE002CF2D1AB88002B01D0FFF7CEFD2E
:102278000020FFF707FEFFF71BFE002381225E4EBA
:10228800190052003000AB602B7300F0D8F9FFF74B
:1022980009FE0023BE60FB6000236B738023DB050F
:1022A8005C6AA4B26C80FFF7E5FD8023DB0500289B
:1022B8003ED05C6AA4B26C80FFF7DCFD002848D1F0
:1022C8001A30FFF729FEFFF7D5FD041E38D1342058
:1022D800FFF722FEFFF7CEFD0300A340687B013421
:1022E8000343DBB27B606B73082CF0D13420FFF71B
:1022F80013FEFFF7BFFD002822D00123AA7B2B7312
:10230800002A4DD02A8AAB6802329A4230D0BA6885
:10231800796801331170AB608122FB685200013388
:10232800FB60BB680133BB60FB689342B4D11CE01F
:102338005B6A324A1B1B9BB29342B4D965232B803C
:102348002B7B002B11D12B88642B96D9FFF75EFDD0
:1023580093E780238222DB055B6A52001B1B9BB23A
:102368009342A9D92B7B002BA6D0AB7B002B20D086
:102378002B8A1800FB60FFF771FE00284FD08022DF
:102388001F4C00215200200000F059F93100FA6872
:10239800200000F04BF9FFF70FFE0023AB73D2E7E4
:1023A8008023DB055B6A69885B1A9BB2FA2B29D903
:1023B800AA60337C30787D2B34D1337A0D2BC2D18F
:1023C800737A422BBFD1FFF715FE00233375BAE7A6
:1023D80000200240001002408C80FF1F02080020ED
:1023E800FFF0FFFFFF8FFFFF0090D003F8BFFEFF55
:1023F80000040050040000201C010020204E0000B2
:102408001C000020BB687A681A700223FA68FF3340
:102418009A4200D080E72B8814332B807CE7FFF7A3
:10242800D9FD90E7337D7D2B05D1337B0D2B02D170
:10243800737B422BC7D0330028331B787D2B07D101
:10244800731CDB7F0D2B03D1B31CDB7F422BBAD06F
:10245800002810D1B27873781343F278134301D16E
:1024680065332B80FFF766FDC120FFF779FD2B88C8
:1024780001332B803FE001281BD10130FFF7EEFD2F
:102488000028CCD06A694D4B9A4202D8FFF784FDE8
:1024980059E74B4B298A4B489A4203D1022901D963
:1024A8000D238370FFF744FC0028EFD0FFF784FD6D
:1024B80049E7FF2811D1FB38FFF7D0FD0028AED03F
:1024C800002380222B80F378B1781B020B435BBA80
:1024D8009BB212059B186B61E8E7FE2811D1FA3808
:1024E800FFF7BCFD00289AD0B378012B06D0F3780B
:1024F8002B820123AB73FFF7D5FC24E780235B0015
:10250800F6E7FD280AD1FB38FFF7A8FD002886D09A
:10251800FFF710FDC120FFF723FDECE7022809D1E2
:10252800FFF79CFD002800D179E7244B6A699A429D
:10253800ACD9BBE7032895D16B460138FB60FFF7A0
:102548008DFD002804D1FFF745FDFB689D46FAE69E
:10255800AB680133AB607478002C01D10134FF34CF
:10256800FFF7E8FC6A46E31CBB600733DB08DB00C7
:10257800D31A9D46E21C0021684600F060F822004C
:1025880068466969FFF73EFC21006846FFF748FD89
:102598006E46631C3055000AF0543023023433551C
:1025A8000024305DFFF7DCFC3420FFF7B5FCBB6886
:1025B8000134A342F5DCFFF775FCC6E7FF0F0008FE
:1025C80000F800081C00002070B500260C4D0D4CCA
:1025D800641BA410A64209D1002600F039F80A4D60
:1025E8000A4C641BA410A64205D170BDB300EB5879
:1025F80098470136EEE7B300EB5898470136F2E703
:10260800180E0008180E0008180E00081C0E000806
:1026180030B500240139A24201D1002005E0035D54
:1026280001340D5DAB42F6D0581B30BD002310B508
:102638009A4200D110BDCC5CC4540133F8E70300C2
:102648008218934200D1704719700133F9E70000EE
:10265800F8B5C046F8BC08BC9E467047F8B5C046F9
:10266800F8BC08BC9E467047FD010008D50100086B
:1026780000127A00000000000000000000000000C6
:102688000000000000000000000000000000000042
:102698000000000000000000000000000000000032
:1026A8000000000000000000000000000000000022
:1026B8000000000000000000000000000000000012
:1026C8000000000000000000000000000000000002
:1026D80000000000000000000000000000000000F2
:1026E80000000000000000000000000000000000E2
:1026F80000000000000000000000000000000000D2
:1027080000000000000000000000000000000000C1
:1027180000000000000000000000000000000000B1
:1027280000000000000000000000000000000000A1
:102738000000000000000000000000000000000091
:102748000000000000000000000000000000000081
:102758000000000000000000000000000000000071
:102768000000000000000000000000000000000061
:102778000000000000000000000000000000000051
:102788000000000000000000000000000000000041
:102798000000000000000000000000000000000031
:1027A8000000000000000000000000000000000021
:1027B8000000000000000000000000000000000011
:1027C8000000000000000000000000000000000001
:1027D80000000000000000000000000000000000F1
:1027E80000000000000000000000000000000000E1
:1027F80000000000000000000000000000000000D1
:1028080000000000000000000000000000000000C0
:1028180000000000000000000000000000000000B0
:1028280000000000000000000000000000000000A0
:10283800DAE32559D963B84E343731143506060121
:08284800300000000000000058
:04285000FD1100086E
:04285400D511000892
:0428580000127A00F0
:040000050800121DC0
:00000001FF
