:020000040800F2
:10100000003C0020113A0008593A0008C546000883
:10101000C9460008CD460008D1460008000000007F
:10102000000000000000000000000000D54600089D
:10103000D946000800000000DD460008E14600082F
:10104000593A0008593A0008593A0008593A000834
:10105000593A0008593A0008593A0008614800080E
:1010600000000000E5460008593A00080D47000856
:10107000BD470008593A0008593A0008000000002E
:101080003D480008593A00080000000005480008E3
:101090002548000815480008593A0008593A000840
:1010A000593A0008593A0008593A000839480008E6
:1010B000593A000800000000000000000000000095
:0C10C000593A000800000000593A0008EE
:1010CC0053B94AB9002908BF00281CBF4FF0FF31A3
:1010DC004FF0FF3000F00CB8ADF1080C6DE904CE08
:1010EC0004F00EFBDDF804E0DDE9022304B07047E8
:1010FC00704700BF10B5054C237833B9044B13B1BE
:10110C000448AFF300800123237010BD8508002034
:10111C0000000000345A000808B5034B1BB103490A
:10112C000348AFF3008008BD0000000088080020D1
:10113C00345A00089A499B480B68CA6F00882DE9FD
:10114C00F04FD21A92B2984C5509904283B022803B
:10115C00658066D295480088904262D994480022F6
:10116C00028004F14006204601E051F8083F4A682D
:10117C00D21A92B295422CBF0022012240F8042FC1
:10118C008642F2D1A56BD4F808C0A169D4F804E06A
:10119C006069A26AD4F824B0236A27690193AE006F
:1011AC00656BD4F81CA0CDF800C08CEA010846EAA7
:1011BC00C50688EA02088EEA000585EA0B054FEAA7
:1011CC00880848EAC508256CD4F80CC0D4F82C90D3
:1011DC00354387EA0306236B5E4048EA0608E66B54
:1011EC00744B45EA4605EEB28CEA0A0585EA090518
:1011FC0048EA450593F80080EDB2B8F1000F13D022
:10120C00DFF8B48198F80080B8F1000F12D1AE422B
:10121C0014D0B4F8543000220133A4F8543084F8BC
:10122C00482003B0BDE8F08FDFF88C8198F80030CF
:10123C00002B5DD0C6F10F06F6B2E8E75C4BB4F8B4
:10124C00465000261E80009B5B0243EA8E2343EA35
:10125C00090343EA0C23013543EAC713A4F84650AB
:10126C0043EA8013256B43EA41130199012D43EAAC
:10127C000A1343EAC10308BF504E94F8481008BF44
:10128C00357043EA8B0343EA4202F9B92F2A4CDD4D
:10129C0094F84D30002B7CD1494D2A78002AC0D0CF
:1012AC00484B1B78002BBCD1424B1B78002BB8D081
:1012BC0094F85030934200F08B80042A84F850202C
:1012CC0040F29180012384F84E30AAE701295AD0CC
:1012DC00022952D00329A4D1252AA2D13A49B4F823
:1012EC004A2094F84C008854002384F8483098E73E
:1012FC0003F0F2FB10B394F844300133DBB2642BEF
:10130C0084F844301AD9012388F80030D4E901E379
:10131C000093D4E907A3D4E903C7D4E90501D4E9C0
:10132C0009B2D4F82C90019384E7531E2E2B14D8B9
:10133C00264B234D1980D2B22A70B1E7D4E901E3D0
:10134C000093D4E907A3D4E903C7D4E90501D4E990
:10135C0009B2D4F82C90019354E7002A9CD194F84C
:10136C004F301A49012B08BF84F84D20144A002332
:10137C000B80137084F84E3053E7032384F84C2011
:10138C0084F848304DE70223A4F84A2084F848300A
:10139C0047E70E480A4B0280197084F84E1040E75C
:1013AC00540700203C070020D0030020C403002079
:1013BC00D4060020A8060020E5060020CE0600205A
:1013CC00FA06002093060020CC040020940600208E
:1013DC00042A08D994F84E300133DBB2052B84F87B
:1013EC004E307FF61EAF0023013A84F84E30232A8C
:1013FC0016D8DFE802F0126F6B67635F58514D49E6
:10140C001541332B1515151515241F151515151507
:10141C001515151515151515151B304B01221A70C0
:10142C002F4A2978117000232B70FAE6012384F8D7
:10143C004830F5E72B4A2C4B527C1A70F0E7294BBD
:10144C00294A5B7CC3F101031370E9E7002240F6E3
:10145C00FF6384F85120A4F85230E1E794F84F3040
:10146C0001214FF460628B4284F85110A4F8522091
:10147C00D6D184F84D30D3E700F0A2FA194B174AB5
:10148C005B7C01331370CBE7164B01229A74C7E7D0
:10149C00144B00229A74C3E71249134B012000220B
:1014AC0048741A70BCE70F490F4B00200122487496
:1014BC001A70B5E70D4B01221A70B1E7074B0522E4
:1014CC001A70ADE7054B04221A70A9E7034B0322EF
:1014DC001A70A5E7014B02221A70A1E7AE06002094
:1014EC00FB060020CC0400202B000020E806002086
:1014FC0030B52F4DB5F85230002B3FD00022184696
:10150C00A5F852201A0A82EA13125340DB4303F067
:10151C000F0343EA0013274AEB6503F00F0019137E
:10152C00145C515C244844EAC134C3F30321C3F373
:10153C000313515CD35C214A92F800E044EA812405
:10154C0044EA431405EB8E03802200EB8E002C66DC
:10155C009A66043013214FF0010C0CFA01F323406E
:10156C00CB4083EAD2120139D2014B1C40F8042F34
:10157C00F3D105EB8E0500236B6630BD104B1B7849
:10158C005BB103460F2240FA02F1012908D0013A5F
:10159C00082AF8D10022AA65B4E74FF6FF70F0E7ED
:1015AC00083A40FA02F343EA4220AA6583B2A9E75B
:1015BC00D00300204C5A000834040020C70300203C
:1015CC009306002030B5039C84460AE08C4513DD5D
:1015DC009C420FD0B1EB6E0F0DD0AC450EDC044627
:1015EC002A4602EB010EE01894454FEA6E054FEACD
:1015FC006000EBDB204630BD184630BD691C03464D
:10160C00EFE700BF0346401A48BFC81A704700BF37
:10161C0004494A6A80B292B24B6A9B1A9BB28342CB
:10162C00FAD370470048014000F1FF3C58B106491D
:10163C004A6A92B24B6A9B1A9BB2B3F57A7FF9D382
:10164C00BCF1010CF4D2704700480140026803FB66
:10165C0003F303EB430C22EA0C0201FB03F31343E9
:10166C000360704703FB03F310B4046803FB01F140
:10167C0003FB02F203EB430324EA03040C43046070
:10168C00C16810BC21EA03031343C360704700BF59
:10169C00BFF34F8F0549064BCA6802F4E06213434F
:1016AC00CB60BFF34F8F00BFFDE700BF00ED00E044
:1016BC000400FA0503468A1A0069996810B41C6A7A
:1016CC001A6001FB0201A1421961C4BF21461C61D1
:1016DC0064428C429869C4BF1C612146DC68101AB4
:1016EC0004FB00F05C68586104FB02005C6A08446F
:1016FC00A042C3E90620C4BF2046DC616442844298
:10170C00C4BF2046DC6110BC704700BF30B5A54C8F
:10171C00A54D2046296883B0C02203F04BF9E37D28
:10172C00207E032B84BF0223E375A0F10803282B32
:10173C003BD8A0F11803182B40F2F380A0F10C0356
:10174C000B2B40F2FF80A0F10803032B40F20B811E
:10175C00A888964BD862637EA3F13202642A2ED8F5
:10176C00227D002A40F0D3805A0802F10A015B0066
:10177C002B816A81A981A37E03EB8303DB001433E5
:10178C000220EB8101F066FF6378EBB9E8894FF436
:10179C00FA73009340F6B8324FF47A734FF49671A3
:1017AC00FFF710FFE88403B030BD804A41F2873365
:1017BC00EB80D362637EA3F13202642AD0D99622E5
:1017CC0055232A816B81D6E7A07F0B2888BF052083
:1017DC0001F040FF94F8213094F8202094F8221066
:1017EC0094F82300A87503F26B335B006B8294F8BA
:1017FC002430A3F10103B3FA83F35B0984F8C030FE
:10180C0094F82830053B142B84BF052384F828302A
:10181C0094F8293002F27712013B092B4FEA42026D
:10182C0088BF0A232A8294F8252088BF84F829309F
:10183C0094F82A30FA3201F25E512A835A1EA98298
:10184C00082A4FF0000184F8271047D90A2384F89E
:10185C002A3094F82B30463B462B84BFFF2384F868
:10186C002B3094F82C30013B622B9CBF012384F865
:10187C00C13094F82D30013B092B84BF052384F82B
:10188C002D3094F82E30092B06D8042B0CD8DFE819
:10189C0003F003837F0B7600454A0023012184F873
:1018AC00C23084F8C3301170E889424AE47EB0F546
:1018BC00967F3CBF002385F820303F4BA2FB0012E3
:1018CC00A3FB001352092021DB08B1FBF4F1B2FB9E
:1018DC00F1F2B3FBF1F36A84AB8458E7C3EB431228
:1018EC00C3EB82035B002A8930492E3BDBB21A44DE
:1018FC002A816A89AB761A446A81AA8B1A44AA8314
:10190C00EA8B1A44EA834A6C13434B64A1E72A4AD4
:10191C002B81A2FB03235B0803F10A026B81AA81D2
:10192C0029E740F6C3130093302241F28733182184
:10193C00FFF748FE0346207EAB80A0F10C030B2B77
:10194C003FF601AF41F287330093182242F20E7337
:10195C000C21FFF737FE0346207EAB80A0F1080375
:10196C00032B3FF6F5AE41F649530093102243F694
:10197C0095230721FFF726FE80B2A880E9E60F49E0
:10198C000B4A01230B700021117084F8C2308BE7D5
:10199C00012384F8C33087E7054A012384F8C23059
:1019AC00137081E7CC04002000000020002C0140C3
:1019BC001D0400201F85EB51ABAAAAAA1F0400200E
:1019CC00044B054893F828C01A6880F801C0C02160
:1019DC0002F094BF00000020CC04002000B5124A95
:1019EC0092F8C810B2F89431D2F8C40002EB410C52
:1019FC000131C9B26329BCF8CCE0ACF8CC30184446
:101A0C0084BF002382F8C830084B98BF82F8C810F6
:101A1C00A0EB0E00C2F8C400A3FB0030C0F34F10C3
:101A2C00A2F896015DF804FBCC0400201F85EB5155
:101A3C0008B502F021FF0E4B93F829203AB140B9BA
:101A4C000C4A92F89831013382F8983108BD00287D
:101A5C00F6D1084A93F82A1092F899310133DBB287
:101A6C00994282F89931F1D2002382F8983108BD5D
:101A7C0000000020CC04002038B5334D95F82B30F5
:101A8C00012B51D095F82C30304C5A1E12F0FF021D
:101A9C0038D085F82C2003F0010385F8293072B674
:101AAC0094F89B31002B3AD062B602F001FFD4F8C7
:101ABC009C21296B40F6C4139A4284BF012385F8FC
:101ACC002D3095F82C3004EB43030022A3F8A2111F
:101ADC00B4F8A601B4F8A431B4F8A81184F898218C
:101AEC000344B4F8AA0184F8A0210B44B4F8AC1157
:101AFC0003440B44B4F8AE110B4404335B10C4F82C
:101B0C00B03138BD0123062285F82C2084F89A3197
:101B1C0085F8293072B694F89B31002BC4D195F816
:101B2C002C0003F005FBBFE795F82C20074C013285
:101B3C00D2B2062A99BF85F82C2002F0010385F851
:101B4C002C3084F89A31A8E700000020CC04002047
:101B5C001C4AD36823F0010310B51B4CD360FFF76C
:101B6C008BFF1A49B4F8B601B4F8B4210B6B0244DC
:101B7C0003EB520394F82F2058080863C2B991F86C
:101B8C003420180912FB00F292B291F82D10A4F82F
:101B9C00BA21C2EB9303A4F8BC3181B1D4F8C031A3
:101BAC0042F20F7293429CBF0133C4F8C03110BD96
:101BBC0094F8B82100FB02F2C2F38F12E5E702F0B1
:101BCC006FFEEBE700440140CC0400200000002035
:101BDC0070B5274ED6F89C317D2B15D9254B5B6AF9
:101BEC007C2B09D8B6F8C431B3F5167F04D2D6F8DD
:101BFC00C031B3F5FA7F19D396F8C6310133DBB295
:101C0C00642B86F8C6312CD81B4D95F83530002442
:101C1C0023B90CE095F83530A34208DD02F02CFE18
:101C2C0095F82930834204F10104F3D170BD72B6EA
:101C3C0002F02AFE0F48B6F8BC11426A0F4BB6F8F8
:101C4C00B641A6F8B62101310022A6F8B441426291
:101C5C005A62D9621A61DA6842F00102DA6062B63D
:101C6C0070BD02F011FE0023C6F8C03170BD00BF7C
:101C7C00CC04002000100040000000200044014073
:101C8C0070B5A84CA37C82B0002B66D094F8C230FF
:101C9C00002B00F09D80A44DB4F8C821B2F5836FE1
:101CAC0080F09C81A2F130039BB2B3F57A7F10D205
:101CBC00617C95F82B60C1F10100864200F04083F5
:101CCC0095F836105B009BB2C1F12F010B44A4F8C0
:101CDC00CA312F2A46D8002394F8CF21A4F8CA3150
:101CEC0084F8CE3195F837309A4241D8E67C002EF4
:101CFC0051D0B4F8CA011D2800F2D2800023A4F8F8
:101D0C00D03194F8283003EB8303B0EB830F4FEA08
:101D1C00830180F2D18094F8CD31002B39D194F825
:101D2C00DC31002B35D0E27CB4F8D00150232E21CD
:101D3C0013FB02138342C0F2FB8094F8E231002BB8
:101D4C0000F0B781013B042B00F2B081DFE813F007
:101D5C00AC01F502F202EF02AC01B4F8C831724DDD
:101D6C00A4F8CA3194F8CF2195F837309A42BDD9EE
:101D7C00A37D002BBAD003F09DF902F085FD6623FC
:101D8C0084F8CF3194F8CD310022A4F8D021002B67
:101D9C00C5D002B070BD94F8D231002B7BD094F832
:101DAC00D331002B40F02F81D4F8D8215F49D317C1
:101DBC0081FB0212C3EB22339BB2B3F5006FA4F884
:101DCC00D031C0F0A08140F2FF73A4F8D031A2E76B
:101DDC0094F82620544DB4F8C801002A75D0AE7D75
:101DEC00760006F57A7188421CDD667C95F82B200E
:101DFC00B24200F0798294F89B31002B40F04E8176
:101E0C00002384F8CC3140F2FF7300934FF4FA6254
:101E1C002F23FFF7D7FBAE7D0346B4F8C801A4F817
:101E2C00CA317600C6F57A72824221DD637C95F860
:101E3C002B60C3F101018E4200F0688294F89B3153
:101E4C00002B40F02B812F230021009340F2FF73D5
:101E5C0084F8CC11FFF7B6FBAE7D03467600B4F8E0
:101E6C00C801A4F8CA31C6F57A739842C0F216813B
:101E7C0006F57A76B04200F3118194F89B21002389
:101E8C00A4F8CA31002A00F00981012284F89B31A0
:101E9C0084F8CC2102E1B4F8CA31A4F8D0313AE785
:101EAC001E283FF42EAF94F8282002EB82029200F9
:101EBC0090421146C0F2C68040F2FF720092A023FD
:101ECC00FFF780FBA4F8D00125E7AA7D520002F5AC
:101EDC007A71884240F3C280637C95F82B209A4239
:101EEC0000F0DE8140F2FF7300934FF4FA622F236F
:101EFC00FFF768FBAB7D02465B00B4F8C801A4F8A1
:101F0C00CA21C3F57A72824200F3AD8003F57A736D
:101F1C008342C0F2C3800023A4F8CA3184F8CE31C6
:101F2C00BCE000BFCC04002000000020AD8BDB68BF
:101F3C0094F8C731002B00F02781002A00F018819B
:101F4C006B894FF4FA620092283340F2FF728921B8
:101F5C00FFF738FBA4F8E00194F82630002B40F092
:101F6C00F780E07CB4F8D02184F89B3150212E23EB
:101F7C0011FB00339A427FF7E0AE2E2A07D9617F1E
:101F8C001E230B41D4F8C0118B4200F25D81B4F8D2
:101F9C00E031B5F86A10994294F8C13038BFA4F812
:101FAC00E0113BB1B5F96C30B4F8E0119942C8BFFF
:101FBC00A4F8E031D4F8EC31002B7FF7EAAE2F2AED
:101FCC007FF6E7AEC64AB4F8E01182FB0302DB17DA
:101FDC00C3EB22330B44A4F8E031DAE6637C95F8CA
:101FEC002B10994200F0C58195F83600A2F583615B
:101FFC00490089B2C0F12F00A2F1300301449BB219
:10200C00A4F8CA1151E6D5E90E32B4F8CA0100920F
:10201C002F2140F2FF72FFF7D5FAB4F8CA21B14B69
:10202C0093FBF0F3E07E2E2A4FEA500093FBF0F383
:10203C00A4F8D4313FF6B8AEA4F8D0612E64C4F83D
:10204C00D86168E6A02300931E212F23FFF7BAFA6C
:10205C000346A4F8D031B4F8CA0152E6C2F57A723C
:10206C009042BFF658AF637C95F82B60C3F1010129
:10207C008E4200F0F8802F230093002140F2FF7372
:10208C00FFF7A0FAAB7D02465B00B4F8C801A4F8D8
:10209C00CA21C3F57A729042BFF638AF94F8C230B9
:1020AC00002B3FF45FAEF7E501F012FC002384F83F
:1020BC00E231237D73BB94F8C721A4F8E031002AE8
:1020CC0000F0AE8094F82630002B4BD094F89B3166
:1020DC00B3B1B4F8C8114FF47A70FFF793FAAA8829
:1020EC0000F57A739BB2013A9342A4F8E431C0F242
:1020FC00878103F03FF994F89B61002E7FF449AE81
:10210C00B4F8D02139E72F2B3FF605AE3023A4F8D5
:10211C00D03100E694F8C731002B48D1227FC4F8A7
:10212C00C031012685F82D6084F89931002A3CD005
:10213C00E07C00283CD194F8293003F2DE335B00BC
:10214C00A4F8E43102F018FFE07C84F89B6131E0E4
:10215C00E17C2E22502313FB0123B4F8D0219342AF
:10216C00BFF6EBAD94F89B61002E7FF412AEC7E77F
:10217C004FF4FA6200926B8940F2FF722F21FFF745
:10218C0021FAA4F8E001E7E602F094FF95F82D306F
:10219C00002B00F029812B89E27CB4F8D001A4F843
:1021AC00DE31012184F8C711C7E602F083FFE07C21
:1021BC0094F89B6195F82C30013BC3EB0312B5F8F6
:1021CC00683003EB82031AB2B2F5B47F9BB2A6BFA0
:1021DC00A3F5B4739BB2A4F8E62103F1770212B213
:1021EC00A8BFA4F8E631B2F5B47FA8BFA3F1F10201
:1021FC00A4F8E82103F1EF0212B2B2F5B47FA6BF46
:10220C00793BA4F8EA31A4F8EA210023012808BF9D
:10221C0084F8CD01A4F8E031002E7FF4BAAD6FE75D
:10222C00237FC4F8C021012185F82D10002B40F02C
:10223C00E18094F89B31002B00F0DF8094F826307D
:10224C00002B7FF446AFA4E5B4F8E03129898B422A
:10225C003CBFA4F8E0110B46E98B99423CBFA4F8B3
:10226C00E0110B4695E6E88C296B884280F0A8803B
:10227C00B4F8C411C72900F2A3800122002685F806
:10228C002D20C4F8C06185F82B3002F0FDFAAA7D30
:10229C00B4F8C80184F8CE615200C2F57A72EAE64D
:1022AC00E88C2A6B904280F09580B4F8C421C72A40
:1022BC0000F29080C3F101030026012285F82B3037
:1022CC00C4F8C06185F82D2002F0DEFAA97DB4F8BF
:1022DC00C80184F8CE61490001F57A7102E600BFAD
:1022EC00AD8BDB680087930394F8CC61A4F8CA31FA
:1022FC004FF0010C84F89BC1002E3FF4CFAEACEB39
:10230C00020284F89B3185F82B2079E594F8CC6196
:10231C0000214FF0010CA4F8CA1184F89BC1002EC7
:10232C003FF4BCAE85F82B3084F89B118BE501F0A3
:10233C0061FABBE601F02CFBB8E601F0F9FAB5E660
:10234C00EA8C2B6B9A422DD2B4F8C431C72B29D806
:10235C000123002685F82D30C4F8C06185F82B10B8
:10236C0002F092FAB4F8C82184F8CE61A2F13003DD
:10237C00A6E4E98C2A6B91421BD2B4F8C421C72A7B
:10238C0017D80122C3F10103002685F82D2085F80A
:10239C002B30C4F8C06102F077FAB4F8C82184F885
:1023AC00CE6121E694F8CD31002BD1D1A4F8C831FF
:1023BC0091E494F8CD21002AE3D1A4F8C8218AE451
:1023CC0094F8CD1100297FF458AF4FF47A70A4F82B
:1023DC00C80150E694F8CD21002A7FF46BAF4FF47E
:1023EC007A70A4F8C8017DE594F8C7315BB102F0AE
:1023FC0057FAD0E602F0BEFF64E602F05BFE61E63F
:10240C0002F0BAFDAEE6FFF737FB054B42F2107156
:10241C0041F2883229635A62012384F8C731E6E716
:10242C000010004010B50E4C94F8F031012B0DD07B
:10243C00022B03D0BDE81040FFF722BCB4F8B0016A
:10244C00FFF756F8002384F8F03110BDFEF772FE4A
:10245C00002384F8F031BDE81040FFF711BC00BF39
:10246C00CC040020F8B54F4E4F4F96F82B10002996
:10247C0077D1B7F8E63101331AB2B7F8E831013346
:10248C00B2F5B47F1BB2B2BFA7F8E621A7F8E611EC
:10249C000A46B3F5B47FA8BF0023A7F8E831B7F814
:1024AC00EA3101331BB2B3F5B47F77DAA7F8EA311E
:1024BC0006EB4202B6F84013B2F97030B0883B4DCF
:1024CC003B4C0B4400FB03F385FB0312D81797F826
:1024DC002D30C0EBE21003FB00F0C31784FB00208F
:1024EC00C3EBA00080B202F0A9FCB7F9E831B6F852
:1024FC00400306EB4303B3F9702097F82D300244E8
:10250C00B08800FB02F285FB0201D017C0EBE11092
:10251C0003FB00F084FB0023C017C0EBA30080B2C8
:10252C0002F092FCB7F9EA31B6F8400397F82D2087
:10253C0006EB4303B3F970300344B08800FB03F39C
:10254C0085FB0315D817C0EBE51002FB00F084FBEC
:10255C000034C017C0EBA40080B2BDE8F84002F014
:10256C0079BCB7F8E621B7F8E831013A12B2013B71
:10257C001BB2002AB8BF40F26712002BB8BF40F262
:10258C006713A7F8E831B7F8EA31A7F8E621013B61
:10259C001BB2002BB8BF40F2671387E70023A7F8E4
:1025AC00EA3185E700000020CC040020D34D6210F6
:1025BC006766666638B5224D22492A6B4B6A224CF7
:1025CC0002EB420212FA83F2A4F8B63100234B62FA
:1025DC0053095B009BB2A4F8BA31C3EBD2039BB294
:1025EC009208D4F8C0012A63A4F8BC3101E0042895
:1025FC0002D94A6A9A42FAD3FFF73EFAD4F8C031AC
:10260C00607F94F826100022013384F8982184F816
:10261C00992150EA0102C4F8C03104D12B6BB3F5F7
:10262C00FA6F06D338BD132BFCD92B6BB3F5FA6FAD
:10263C00F8D8002385F82D30BDE8384002F030B9C9
:10264C000000002000100040CC040020F8B5C24C63
:10265C00B4F8F411B4F8F201B4F8F62194F8DC31C2
:10266C00B4F8E051A4F8C4510131A4F8F41194F871
:10267C00F811013001320B43A4F8F201A4F8F62151
:10268C003ED194F8F921002A3AD0B4F8CA51002D61
:10269C0040F05481B4F8FA3101339BB244F6206116
:1026AC008B42A4F8FA312BD9B4F8FC311E2B40F232
:1026BC00938194F8C030012184F8DC11002B00F0D8
:1026CC009081B4F8FE11A5484B08A0FB0323DB094D
:1026DC00B1F5B97F84F8F8310DD3A14F4AF6AA268B
:1026EC0001F0C0F86420FEF79FFF94F8F8313E60CB
:1026FC000135AB42F4DC94F8C3300BB984F82630C6
:10270C00E37F73B1974AB4F8003292F84223013355
:10271C009BB202EB8202B3EB820FA4F8003200F3FF
:10272C00928094F8CD31002B38D18E4D95F82D3008
:10273C0023B194F8C731002B40F0E680B4F8F631A1
:10274C00142B31D895F89C33002B40F08380B4F8CF
:10275C00C41194F8DC3123B194F8C731002B40F04C
:10276C00C28094F89B31E888002B00F09A80AB88EB
:10277C00B4F8E4215D1C7C4B00FB02F283FB023CB1
:10278C00D317A3EBEC132B449BB2A4F80632774A75
:10279C00A4F8DE11C2E90D33D062D363B4F8083269
:1027AC000133A4F80832F8BD94F8C1300022A4F823
:1027BC00F62123B194F8C731002B40F0E180637F00
:1027CC00002B78D194F8D231002BBBD094F8C731C0
:1027DC00002BB7D0B4F8D421D4F8B0116448FEF76C
:1027EC0069FFD4F8D821634B1044984203DC0028CD
:1027FC0080F2FD800023C4F8D831D4F8C031632BAB
:10280C00A0D895F89C3300222A65002B9FD0B4F8F1
:10281C00DE3102210A4685F89D138C46B4F8C411AA
:10282C00C81A90422EDC581A904240F38E80A3EBCB
:10283C000C0399B2E27DA4F8C411002385F89E33F1
:10284C0085F8342085E70122002384F80222A4F8BD
:10285C00003266E7D4F8C031952BB4F8DE31D8D904
:10286C00952BD6D9D4F89C21B2F5FA7F8CBF0621D2
:10287C0010210A4685F89D138C46B4F8C411C81A69
:10288C009042D0DD2A6B634499B2B2F5FA7FA4F87A
:10289C00C41156D9E37D85F83430012285F89E2386
:1028AC0057E7314A00FB01F3A2FB0323C3F3CF1319
:1028BC00A4F806326BE794F8C731002B3FF442AF13
:1028CC00B5F87023296B2C48FEF7F4FED4F8EC21F4
:1028DC002A4B1044984203DC002800F38580002327
:1028EC00C4F8EC316EE7B4F8D0312F2B7FF639AF4A
:1028FC00E8881D4A00FB01F3A2FB0323DB0901332B
:10290C009BB2A4F8063242E701F0BEFFFFF790F845
:10291C0094F8A031002B7FF411AF95F8293094F87E
:10292C009821002B52D095F843339A427FF606AF8C
:10293C00012384F8A031FFF73DFEFFE6A4F8FA313D
:10294C00DEE6002385F89E3303E7E27D85F834202C
:10295C00002385F89E33FCE6CC040020B9D31FB1CC
:10296C000030004000000020D34D6210002C0140CC
:10297C0040000020F05838017403002060E316007A
:10298C0094F82C20B4F904121A4802EB820202EBE0
:10299C008202D200FEF78EFE174B83FB0023C0177A
:1029AC00C0EB2330B5F86C306A89181A00B290422B
:1029BC00A5F86C00BCBF10B2A5F86C00B0F5FA6FAE
:1029CC00C4BF4FF4FA63A5F86C30F8E695F84433BD
:1029DC009A427FF6B3AEABE784F8F951A4F8FA51FA
:1029EC008EE600F03FFF86E6C4F8EC01EAE6C4F898
:1029FC00D80102E748030020AD8BDB682DE9F04FCE
:102A0C0085B002F079F84FF47063C14AD3F8E01046
:102A1C00914205D1BF4AD3F8E410914200F0708383
:102A2C00BD4DBE4C02F0ACF902F02AFAFEF76EFE78
:102A3C00E378022B00F0C0831122B94B22710221E2
:102A4C00B84AE17003F10C0013F8011B02F8011FE6
:102A5C009842F9D1FEF7B4FF637C227DA988E98006
:102A6C00013B18BF012385F82B3002B9E27494F8AE
:102A7C00263093B1AA8969892B89323201204FF40F
:102A8C007A7632313233AA810022AE83698185F89D
:102A9C0020006082A282A2752B8100F069FE0023C7
:102AAC00A4F8FC3102F08EF89F4B4AF6AA221A6069
:102ABC0001F08EFF94F8D33113B1012384F8D23195
:102ACC0002F012F8984FDFF86492DFF864A2DFF896
:102ADC0064824AF6AA26D4F8C031042B94BF06238C
:102AEC00032385F8433385F84433637D3E60002B24
:102AFC0040F0A381B4F8083242F21072934209D923
:102B0C0094F8DC11002940F0E28249F640429342ED
:102B1C0000F20283B4F8F22144F620639A421CD9E5
:102B2C00B4F904228449130481FB03011944DB1713
:102B3C00D4F80C02C3EB212399F8001003440229AA
:102B4C00C4F80C3200F07D82032900F06C8201295C
:102B5C0000F05F820023A4F8F231D4F8C021B2F562
:102B6C007A7F40F226810021B4F8CA3184F8CF1163
:102B7C00C72B40F2EE81E17C11B19F2B40F22581F5
:102B8C0094F81112002900F0BC80B3F5C87FC0F096
:102B9C002381D4F8B03194F89A0188FB03C1A1EBDE
:102BAC00E371C4F89C1110B10A2A00F2EB8194F87D
:102BBC001932002B00F082802B6B322B7ED95F4BAD
:102BCC001022002183F80B1383F8152383F80C23B0
:102BDC0094F802B2BBF1000F7ED194F81C32002B9A
:102BEC0040F0C18194F81D320133DBB2C82B84F85C
:102BFC001D3200F2508194F8CD314FF0000B84F867
:102C0C00C6B1002B40F0A28094F8C7314C4AD4F8DE
:102C1C00B0114C4892FBF1F213FB02F39BB2A0FBF8
:102C2C00032095F82020A4F81A32C008A4F82A0230
:102C3C00002A40F0E3814FF4FA63A5F86A3094F867
:102C4C002B1094F810028142C0F0CB81D4F8C03123
:102C5C00632B00F2FC802B6BB3F5FA7F40F2F7800C
:102C6C000C2385F8353094F82F30002B40F006817A
:102C7C00354A526A4AF6C8739A427FF62CAF94F8DA
:102C8C00C7B1BBF1010F7FF426AF94F8CF310133FC
:102C9C0084F8CF3101F0F8FDB4F8D03185F82DB0BF
:102CAC002F2B05D8002384F8C73141F288332B63CE
:102CBC000023C4F8C031FFF77DFC0CE71F4B00224A
:102CCC00102183F80B1383F8152383F80C2394F845
:102CDC0002B2BBF1000F80D0B4F90E32B4F81A1264
:102CEC00B4F8042294F8100200919BB2B4F8FE11CF
:102CFC0002F0CAFB0A2002F085FB002384F80232A2
:102D0C0070E7952B94BF64230A2385F8373040E78E
:102D1C00DAE32559D963B84E00000020CC0400201A
:102D2C008C5A0008D0040020003000402104002000
:102D3C001F85EB5156555555B7600BB600E100E0B9
:102D4C00C0270900CDCCCCCC00100040B4F8D03159
:102D5C00302B49D994F8DC21002A45D0313B572B34
:102D6C0000F27B8194F82C32002B40F00382FFF7A9
:102D7C0079FB94F81BE0B4F8D0017822302141F6AD
:102D8C00583340F22A3CB3FBFEF3BCFBFEFCCDF8FF
:102D9C0000C0FEF717FCA5F8A40380B2FEF738FCC0
:102DAC00B5F8A4234FF41673B3FBF2F3A4F81A325C
:102DBC0091E6B4F8CA319BB9642A84F8CF3100F299
:102DCC00C880E17C00293FF4DBAE002184F8CF11F0
:102DDC0094F81112002994D0002384F8CF31D8E64E
:102DEC00642A7FF6C8AEC3E6237F4FF0010B84F84C
:102DFC002CB2002B00F0BF80AB8894F82910A3F103
:102E0C00130202EB4102E98892B2A4F8C42101FB3F
:102E1C0002F2B2FBF3F25B449B1AA4F8063202F006
:102E2C00ABF8B4F80622C94B84F89BB1C3E90D2268
:102E3C00DA630023A4F81A324DE6AB880093286BB2
:102E4C005B08C8226021FEF7BDFBE88052E60C232C
:102E5C000093D4F89C0103234FF4FA726421FEF71B
:102E6C00B1FB2B6B85F83500312B9CBF022385F809
:102E7C00353094F82F30002B3FF4FAAE1723009323
:102E8C00B4F8C4010D234FF4FA626421FEF79AFBE7
:102E9C0084F8B801ECE601F053FB0121AC4800F0DA
:102EAC00FDFEB4F81E0201F0F1FBB4F82222A94B8E
:102EBC00A4F8200240F6E44B0BFB02F2A3FB021336
:102ECC00D21A03EB5203B5F8A02384F81002DB0AE4
:102EDC0002FB03F3B4F8FE21AAFB0313C2EBC202FC
:102EEC0002EB5313DB10A4F8FE31FEF777FD9A4B7F
:102EFC00C4F824020BFB00FBA3FB0B3B4BF30F2B87
:102F0C00BBF1000FBCBF0023A4F8043294F8C0300E
:102F1C00A8BFA4F804B21BB394F8F831298BB4F809
:102F2C00FE2101FB03F39A4217DAB4F8282294F835
:102F3C00CD318A48013244F6206192B200FB031174
:102F4C008A42A4F8282200F32681002284F81D224C
:102F5C0053E6002184F8CF110DE60023A4F82832A3
:102F6C0094F8CD31F1E702F05BFA302002F04AFA26
:102F7C0084F81CB236E6754AC2E90D33D36302F00D
:102F8C0099F856E7D4F81402FEF73CFBD4F89C31C0
:102F9C00B0EB530F1AD9B3F5FA6F17D294F8182275
:102FAC00013284F81822A27C0021C4F8C0119AB90D
:102FBC00B4F8D0212F2A0FD9002284F8C7212A89EE
:102FCC005208A4F8DE21012285F82D20002284F875
:102FDC009A21C4F81432EAE52A6BB2F57A7FEED95D
:102FEC00EAE7B5F8A233012200925B0801F10A026C
:102FFC000A39FEF7E7FAA5F86A0027E6B5F8A23316
:10300C000093AB8BAA8C698CFEF7DCFAA5F86A00EE
:10301C0015E694F81032524A43F4007313800223DD
:10302C0089F8003096E5B4F8FE314D4AAAFB03133B
:10303C00C3F3C70343F480631380012389F8003082
:10304C0088E5D3B2AAFB03231B09454A43F4C063AA
:10305C001380032389F800307CE5012384F82C329B
:10306C00FFF700FAB4F8D031C82B04D95023A4F8D8
:10307C00E6B1A5F8A433B5F8A403FEF7C9FAB4F980
:10308C00E631002B7FF427AD364984F8CD3101228F
:10309C0084F89B3142F228332B63C4F89C31C4F87A
:1030AC00143285F82D204B6284F8C721637F95F884
:1030BC00A62385F82C201422C4F8C02113B1AB89A7
:1030CC00A4F8DE31FEF7D8FC01F0CAFE03E501F0EE
:1030DC00F1FF1E4B0025C3E90D55DD6384F8DC516F
:1030EC00A4F8D05184F8F951A4F8FC5101F0C0FEB9
:1030FC001D484FF48072294602F08EFCFEF7C8FA88
:10310C0093F8EC30194D2B2B64D0352B5FD01F2B43
:10311C0004BF174B2B6084E4039101F0CBFF0399A0
:10312C000A4B84F8DC11C3E90D11D963A4F8D01152
:10313C0084F8F911A4F8FC11039101F099FE03999C
:10314C0009484FF4807202F067FCD7E7002C01406D
:10315C000024014001011000FF04EC4F7CFCFFFF38
:10316C002204002000100040540700200000002022
:10317C00007C0008194AD36823F00103D36001F0E6
:10318C0083FB174BC3E90DBBC3F83CB002F030F91D
:10319C0084F82CB2EBE54FF0000BA4F8D0B101F0A1
:1031AC0089FF01F071FB94F8CD3184F8C7B1A4F814
:1031BC00FCB184F8DCB1C8E62379112B7FF43CAC6C
:1031CC00627895F828309A42BFF446AC34E4054B4B
:1031DC002B6026E4044B2B6023E400BF0044014029
:1031EC00002C014000F8000800F80108F0B5604C14
:1031FC00D4E90002101A6FF4487240F27653821828
:10320C009A4283B02AD85B4E5B4D002333802B78D7
:10321C00002B3CD06B780146ABB9AB78002B00F09F
:10322C008E80A888554F01333988AB70FEF7EAF9C8
:10323C00322866D900223B882A706A78AB804AB162
:10324C00D4E90031C91A40F2E14399424DD9AB7926
:10325C004B2B77D80023A868338004E04649484BB1
:10326C00886800221A804749474A0B881268A0EBED
:10327C00030C944503DD13440B8003B0F0BD1C1A02
:10328C00A242BABF9B1A0B80088003B0F0BD3F4A24
:10329C00947C74B13E4A128890421AD83D494FF43E
:1032AC007A7409880094FEF78DF9A86000233380A6
:1032BC00D9E7324B1A88374B198840F2FF730093C9
:1032CC002F23FEF77FF93028CEBFA860AC602046D4
:1032DC00ECE72A4B511C1A884FF4FA63009340F226
:1032EC00E933FEF76FF9A860E0E72A48AB7902886A
:1032FC00C2EBC20201331144DBB2C908AB710180CD
:10330C00A6E73B886268C3EBC3012368D31AAA788B
:10331C000B44C3F3CF03322A3B808ED9193B9BB2AB
:10332C003B80A3F2D663194A03EBD3735B1082F88C
:10333C00213001236B7000F0CBFA3B887DE780B223
:10334C00A8806FE7134A1149138819339BB2138075
:10335C00A3F2EE2303EBD3735B10002481F820302F
:10336C002C70FEF72DFBAC7100F0E2FA72E700BF97
:10337C0054070020D406002024070020120000204F
:10338C00C806002094060020BC030020CC040020BA
:10339C0014000020100000201A4A9388591E02299C
:1033AC0030B413D8184BD9683B290DD80121174DCF
:1033BC001748197400232B70164C174B21700E25CF
:1033CC00057020209071197030BC7047043B042BA1
:1033DC00FAD80D4BD9686329F6D80D480D4D0B4C16
:1033EC004FF0030C83F810C00B4B4FF0070C01216E
:1033FC0080F800C02020297021709071197030BCA9
:10340C00704700BFBC03002024070020C603002027
:10341C00C70300208E050020C5060020F8B5284BF8
:10342C00284F1968002544F6206E1A46A7F804E0C8
:10343C0003F17804AC462E4652F8043F8B42A3EBC2
:10344C000100194606D070453CBF1FFA80FE0126CC
:10345C0084440125A242EFD10EB1A7F804E00DB1CE
:10346C004FEA5C15184C194A2378D560012B23D0F0
:10347C00174D2B78012B15D02278134311D1FFF760
:10348C008BFFBB88C93B44F656529BB2934208D87B
:10349C0001231049104A2B70772008700221B97152
:1034AC001370F8BDBA88C93A44F6565192B28A42A2
:1034BC00F7D80849084AEFE7FFF76EFFD8E700BFD7
:1034CC0054070020BC0300208E0500202407002098
:1034DC008F050020C6030020C506002070B5504C97
:1034EC00237813B14F4B1B7833B94F4B1B78002B00
:1034FC004FD0012B0AD070BD4C4B1B78002B35D014
:10350C0001F066FA4A4B02221A7070BD454B1B78CB
:10351C00002B31D1474D2B78012B6FD0464B1B78AC
:10352C00012B62D02378002BE5D12B78002B3AD0DD
:10353C004249434B4A7C072A36D81888052833D988
:10354C00404C4D69E06F24680132D2B22844001B14
:10355C00082A4A74486127D1C0F3CF023A4CC0F311
:10356C00CF101518101A258108831DE001F06AFA96
:10357C002F4B01221A7070BD2C4B1B787BB1334B37
:10358C001888FDF7B5FFFDF7D5FDBDE8704001F0DB
:10359C001FBAFFF743FFBDE8704001F019BABDE850
:1035AC00704001F04FBA264B294C208830B9234A81
:1035BC00127842BB1A8801321A8070BD40F2DC527C
:1035CC00002690421E8096D91C4D698BFEF71AF886
:1035DC0032281ED82B7F0133DBB2322B2B7701D94B
:1035EC006E7896B123886B8370BD01F075FA164B1B
:1035FC0088B103229A7101F0EBF993E7FDF79AFD7C
:10360C0001F0E6F98AE7188070BD00F0C1F90123DA
:10361C002B702E77E6E702229A71FFF7E7FDEAE7B7
:10362C00A8060020E5060020C50600205007002053
:10363C00BC0600208E0500208F05002024070020EA
:10364C00C806002054070020BC0300207C06002084
:10365C00960600200B28034B28BF0B204000187047
:10366C00704700BF410700202DE9F84F354C364E0E
:10367C00DFF8D880032001F05BFD04F17C07002308
:10368C0018E094F835503249DFF8C8B0C3EBC310DA
:10369C00F7224FF47A6A0CEB400080B212FB05A2C1
:1036AC004DBBC1E90D55CD63FDF7BEFF2B46023472
:1036BC00BC4211D094F834C04FF000094AF6AA224B
:1036CC00BCF1FF0FC8F80020A6F80090D9D1023445
:1036DC000133BC42DBB2EDD101F0ECFC1E481C4ABC
:1036EC0000881A4900239362D0624AF6AA223380DA
:1036FC000A60BDE8F88FBBFBF2FA4FF00A0E174ACE
:10370C00174DB2FBFAF290B2C1F828E0C8622A78E1
:10371C0000FB02F2FE2010FB03C0124B83FB0232B3
:10372C00114BB3FBFAFA114B0AFB00F0D20AA3FBC4
:10373C000030C1E90D22CA63C0F34F10FDF774FFCE
:10374C004B46B4E7CC040020D406002000300040E7
:10375C00002C0140C0D8A70004000020001BB700BB
:10376C004107002057EAE068A08601001F85EB5155
:10377C0010B572B61A4B93F83030FF2B07D0FFF709
:10378C0073FF184A184B1288DA6262B610BD164CD9
:10379C00164B41F28732E2621B78E363C4E90D33C6
:1037AC00032001F0C5FC3723A362C820FDF73CFFC2
:1037BC00052001F0BDFC2823A362C820FDF734FFCF
:1037CC00062001F0B5FC1923A362C820FDF72CFFDD
:1037DC0001F070FC064A0023A3621380D1E700BFFE
:1037EC00CC04002004000020002C014041070020E4
:1037FC00D406002070B5164C41F28733E36272B6E2
:10380C00144D154B3C224AF6AA262E60A2621B7858
:10381C00E363C4E90D33012001F08AFC4B20FDF772
:10382C0003FF5023A3624B20FDF7FEFE5A23A36235
:10383C004B202E60FDF7F8FE01F03CFC074A0849CE
:10384C0012880023A3620B80E26262B670BD00BFD7
:10385C00002C0140003000404107002004000020F3
:10386C00D406002010B572B6144C154A154B4AF606
:10387C00AA2141F28730E06211605022A2621B78CB
:10388C00E363C4E90D33032001F052FC6420FDF71F
:10389C00CBFE4623A3626420FDF7C6FE2823A36259
:1038AC006420FDF7C1FE01F005FC074A07491288A8
:1038BC000023A3620B80E26262B610BD002C0140B3
:1038CC00003000404107002004000020D4060020F6
:1038DC0010B5124C124B41F287313222E162A262D6
:1038EC001B78E363C4E90D33022001F021FC962020
:1038FC00FDF79AFE0B4A4AF6AA211E231160962068
:10390C00A362FDF791FE01F0D5FB074A0749128827
:10391C000023A3620B80E26210BD00BF002C0140AB
:10392C00410700200030004004000020D406002095
:10393C0010B5124C124B41F287312822E162A2627F
:10394C001B78E363C4E90D33022001F0F1FB9620F0
:10395C00FDF76AFE0B4A4AF6AA2150231160962005
:10396C00A362FDF761FE01F0A5FB074A0749128827
:10397C000023A3620B80E26210BD00BF002C01404B
:10398C00410700200030004004000020D406002035
:10399C002DE9F041154D41F28733EB6272B6144BB1
:1039AC00DFF850801B78144FEB63C5E90D33772497
:1039BC004AF6AA26A7FB04300009C8F8006001F0FB
:1039CC00B7FB63100A33AB620A20023CFDF72CFEF6
:1039DC00631CEFD101F06EFB084A094912880023E1
:1039EC00AB620B80EA6262B6BDE8F081002C01404C
:1039FC004107002000300040CDCCCCCC040000208E
:103A0C00D4060020002103E00B4B5B5843500431DB
:103A1C000A480B4B42189A42F6D30A4A02E000239A
:103A2C0042F8043B084B9A42F9D301F0CDFD01F06A
:103A3C00CFFFFEF7E3FF7047AC5A000800000020F0
:103A4C00D0030020D0030020A0080020FEE70000D7
:103A5C00836861F300038360704700BF0023012279
:103A6C00037043708370C270704700BF43680A785C
:103A7C0062F30823436083684A7862F341038360EE
:103A8C0083688A7862F3CB238360CB78C26A013B6C
:103A9C0063F31752C2627047836861F30823836033
:103AAC00704700BF836843F008038360704700BF12
:103ABC008068C0F3C0007047836843F004038360E0
:103ACC00704700BF8068C0F38000704710B41129A4
:103ADC0017D8DFE811F0120079007E00830088000F
:103AEC008D00920097009C00A100A600AB00B000D6
:103AFC00B500BA00BF00C4007400046963F302048B
:103B0C000461013A0F2A0DD8DFE802F00E13181DDC
:103B1C0022272C31363B40454A4F5408C36A61F387
:103B2C00D333C36210BC7047436B61F3040343632C
:103B3C00F8E7436B61F349134363F3E7436B61F3BA
:103B4C008E234363EEE7436B61F3D3334363E9E7BF
:103B5C00436B61F318534363E4E7436B61F35D63B9
:103B6C004363DFE7036B61F304030363DAE7036B7F
:103B7C0061F349130363D5E7036B61F38E2303638E
:103B8C00D0E7036B61F3D3330363CBE7036B61F3D0
:103B9C0018530363C6E7036B61F35D630363C1E70B
:103BAC00C36A61F30403C362BCE7C36A61F34913DC
:103BBC00C362B7E7C36A61F38E23C362B2E7C4681A
:103BCC0063F35754C4609CE7046963F3C504046150
:103BDC0097E7046963F38814046192E7046963F35B
:103BEC004B2404618DE7046963F30E34046188E7A8
:103BFC00046963F3D134046183E7046963F3944487
:103C0C0004617EE7046963F35754046179E704693E
:103C1C0063F31A64046174E7046963F3DD6404619B
:103C2C006FE7C46863F30204C4606AE7C46863F3B3
:103C3C00C504C46065E7C46863F38814C46060E7B6
:103C4C00C46863F34B24C4605BE7C46863F30E344D
:103C5C00C46056E7C46863F3D134C46051E7C468E8
:103C6C0063F39444C4604CE7836807298CBF43F02A
:103C7C0000736FF359638360836861F3534383600C
:103C8C00836862F314538360704700BF024B9A68D9
:103C9C0060F3D7529A60704700240140836861F347
:103CAC0096538360704700BF20B9034BDA6961F308
:103CBC000002DA61704700BF0000014010B41249E5
:103CCC000B6843F001030B600B689B07FCD54B683A
:103CDC000D4A6FF301034B60536813F00C0FC3F3E1
:103CEC008101F9D1136823F0867323F480331360B8
:103CFC0041F610744FF480104FF41F035160D462DE
:103D0C00106310BC9360704700100240030C03F169
:103D1C00804303F5043300F01F001A68012303FAF3
:103D2C0000F030EA02030CBF01200020704700BFF6
:103D3C00030C03F1804303F5043301291A6800F0E6
:103D4C001F0006D0012101FA00F022EA00001860E1
:103D5C00704701FA00F0104318607047030C03F130
:103D6C00804303F5043301291A6800F01F0006D0C4
:103D7C00012101FA00F022EA00001860704701FAF4
:103D8C0000F0104318607047042809D8DFE800F0F1
:103D9C00090F151B03000F4B5A6A61F300025A629C
:103DAC0070470C4B1A6861F300021A607047094B9C
:103DBC001A6861F310421A607047064B1A6861F377
:103DCC0018621A607047034B1A6A61F300021A6298
:103DDC00704700BF00100240024B5A6860F3071294
:103DEC005A60704700100240024B5A6860F30A2276
:103DFC005A60704700100240024B5A6860F3CD22A3
:103E0C005A60704700100240054B5A6860F38F32BD
:103E1C005A605A68C0F3800060F31C725A60704795
:103E2C0000100240134BA0B95A6860F3104284464C
:103E3C005A60104B5A6861F395425A605A68C1F344
:103E4C00011060F35E725A60DA6A6CF31A62DA621D
:103E5C0070475A6842F480325A605A6801280BBF86
:103E6C006FF3514242F400324FF0020C4FF0000C51
:103E7C005A60DEE700100240024B5A6860F3010200
:103E8C005A60704700100240024B5868C0F3810022
:103E9C00704700BF0010024038B53F4D6B6813F0FF
:103EAC000C0F0446C3F3810228D0022A2FD03B4BBF
:103EBC00236039483A4A41683A4DC1F30311515CC9
:103ECC00CB4063604168C1F302211144097C23FAA1
:103EDC0001F1E1604168C1F3C221695CCB40A36090
:103EEC0045684168C5F30070C1F3813141EA800136
:103EFC000A44127EB3FBF2F3236138BD6B6D980557
:103F0C00D5D52B6B9901D2D5274B2360D1E76968A6
:103F1C00EB6A002BC1F300411DDAEA6AEB6AC2F3CB
:103F2C00031CEA6AC3F3082302F0070269B3696849
:103F3C001E4811F4003F194908BF08460021A3FB95
:103F4C00000503FB01F10CFA02F20023FDF7B8F8AF
:103F5C0003462060ADE76B686A6812F0C04FC3F38C
:103F6C008343C2F341700CD10F2B0AD0023319B129
:103F7C00094A526892030AD50C4800FB03F32360EC
:103F8C0097E7013303EB0013F1E70848D7E7034841
:103F9C0000FB03F323608CE70010024000127A0050
:103FAC005C5A00086C5A0008006CDC0200093D00E9
:103FBC00012805D0054B5A6D6FF305125A657047F1
:103FCC00024A536D43F030035365704700100240B2
:103FDC0010B404680C490022C3B26FF300040460EF
:103FEC00083B026042608260C260A2F13332A2FBE5
:103FFC0003231B09486810BC9B000F2202FA03F331
:10400C0003434B60704700BF00000240036861F33C
:10401C0000030360704700BF034B1B68034214BFCF
:10402C0001200020704700BF000002400023C0E9BF
:10403C000033C0E902330382704700BF03684BF6BC
:10404C00EF721340036002680B891343036003682B
:10405C004A7C62F30D3303600368CA7B62F38B23E3
:10406C00036003688A7B62F30923036003684A7B5D
:10407C0062F3C713036003680A7B62F38613036061
:10408C000A7C036862F345130360D1E9002310B482
:10409C004C894460826010BCC3607047014BD8608F
:1040AC00704700BF00200240024B0349034A59608D
:1040BC005A6070470020024023016745AB89EFCD61
:1040CC00024A136943F080031361704700200240D9
:1040DC001B4A136943F0020313615061136943F0E7
:1040EC0040031361D368D90704D4D3685B0720D588
:1040FC00012011E04FF08043D168C80712D4D16879
:10410C00490713D4D268D20603F1FF334CBF022007
:10411C000320002B08BF0420094B1A696FF34102DE
:10412C001A617047013BE7D10420F5E7013B012000
:10413C00EFE7D36813F0100F14BF02200320EBE756
:10414C0000200240194A136943F001031361016016
:10415C00D368D90704D4D3685B0720D5012011E0BC
:10416C004FF48013D168C80712D4D168490713D40F
:10417C00D268D20603F1FF334CBF02200320002B80
:10418C0008BF0420094B1A696FF300021A617047CB
:10419C00013BE7D10420F5E7013B0120EFE7D368B1
:1041AC0013F0100F14BF02200320EBE70020024095
:1041BC000B88002B43D02DE9F0434FF0000E032663
:1041CC0001251FFA8EFC4FEA4C0213F0010F06FA80
:1041DC0002F705FA0CF80EF1010E2CD0046824EA53
:1041EC00070404608C79D0F80090944044EA0904E8
:1041FC000460446824EA080444600C79D0F8048014
:10420C0004FA0CFC4CEA08044460846824EA0704B1
:10421C008460CC79D0F808C0944044EA0C048460E3
:10422C00C46824EA0707C76091F805C0C4680CFA93
:10423C0002F22243C2605B08C3D1BDE8F083704731
:10424C0001F007039B00C90802FA03F20BD0416A84
:10425C004FF00F0C0CFA03F321EA03034362436A99
:10426C001A4342627047016A4FF00F0C0CFA03F3C9
:10427C0021EA03030362036A1A430262704700BF18
:10428C001F4BDB68C3F3022300B5C3F1070EBEF16D
:10429C00040F03F1040C28BF4FF0040EBCF1060F01
:1042AC0021D9033B4FF0FF3C0CFA03FC22EA0C0231
:1042BC004FF0FF3C0CFA0EFC21EA0C01994000284F
:1042CC0041EA020112DB0F4A09011318C9B283F843
:1042DC0000130123410900F01F0003FA00F042F81B
:1042EC0021005DF804FB00221346E1E7064B00F0C9
:1042FC000F0009010344C9B219765DF804FB00BF35
:10430C0000ED00E000E100E0FCEC00E008B52E4B15
:10431C0098421CD02D4B984223D02D4B98422AD03A
:10432C002C4B984209D02C4B98422ED02B4B9842B8
:10433C0035D02B4B98423CD008BD2A480121FFF7C1
:10434C000DFDBDE8084027480021FFF707BD2648B2
:10435C000121FFF703FDBDE8084023480021FFF7CA
:10436C00FDBC22480121FFF7F9FCBDE808401F48BD
:10437C000021FFF7F3BC1E480121FFF7EFFCBDE85D
:10438C0008401B480021FFF7E9BC1A480121FFF740
:10439C00E5FCBDE8084017480021FFF7DFBC1648D4
:1043AC000121FFF7DBFCBDE8084013480021FFF7B3
:1043BC00D5BC12480121FFF7D1FCBDE808400F48DD
:1043CC000021FFF7CBBC00BF002C014000040040D3
:1043DC00001000400020004000400140004401401B
:1043EC0000480140080010000B000C0001001000F8
:1043FC000400100010000C0011000C0012000C0046
:10440C00036861F3C7130360704700BF062909D81E
:10441C00DFE801F013080E0809080400C36962F311
:10442C00CB23C3617047C36962F3C303C361704795
:10443C00836962F3CB2383617047836962F3C3039F
:10444C0083617047062909D8DFE801F0090E1318BB
:10445C001D220400036A62F30C3303627047036A83
:10446C0062F3000303627047036A62F38203036220
:10447C007047036A62F3041303627047036A62F3C2
:10448C00861303627047036A62F308230362704762
:10449C00036A62F38A230362704700BF2DE9F0417F
:1044AC0086B0054601A817461E468846FFF7F4FC61
:1044BC00DDE90334114A954208BF1C4604EB840421
:1044CC006400B4FBF8F10E4CA4FB0134E40804EBDB
:1044DC008403A1EB43010429AB6888BF0134A4B267
:1044EC0064F30F03AB60EB6867F30C33EB602B6981
:1044FC0066F30D332B6106B0BDE8F0810038014046
:10450C00CDCCCCCCC36861F34D33C360704700BFD6
:10451C00C36861F3C303C360704700BFC36861F332
:10452C008203C360704700BF436961F3C7134361E3
:10453C00704700BF436961F3C3034361704700BF19
:10454C00064B0748B3F806C00649074AA0F800C056
:10455C0018885B8808801380704700BF44070020D0
:10456C00EA060020EE0600206006002030B5082385
:10457C0087B0002203214FF09040FDF767F84023ED
:10458C00002203214FF09040FDF760F801214FF419
:10459C00A010FFF7CDFB3748374CFFF719FD01A8EA
:1045AC00FFF744FD354B364A3248019301A940F2DE
:1045BC0001234FF480250492ADF81430CDE9024567
:1045CC00FFF73CFD2B480121FFF720FD01212D4871
:1045DC00FFF7AEFB0720FFF717FC6846FFF73EFA24
:1045EC000124002328488DF80230042569468DF8F3
:1045FC0000408DF801408DF80350FFF737FA224840
:10460C00032322460621FFF761FA032319461E48AD
:10461C000222FFF75BFA03231A461B481121FFF70E
:10462C0055FA072310212A461748FFF74FFA204660
:10463C00FFF72CFB224614480721FFF715FB124805
:10464C002146FFF729FA10482146FFF701FA0E48D8
:10465C00FFF728FA0C48FFF72BFA0028FAD10A4882
:10466C00094CFFF729FA2046FFF72CFA0028FAD15B
:10467C0007B030BD08000240440700204C24014024
:10468C0000010101090018000024014048F2E80370
:10469C0003FB00F00028B8BF00F6FF70054B0013B9
:1046AC00C0F5485083FB0023C017A0EBE300193082
:1046BC0000B27047310CC330FEE700BFFEE700BF0D
:1046CC00FEE700BFFEE700BF704700BF704700BFAA
:1046DC00704700BF704700BF10B50220FFF79CFC6D
:1046EC00012800D010BD054C6060FFF729FF0820A1
:1046FC00FFF792FC012808BF606010BD000002406B
:10470C0008B5264B1B78002B39D14FF48040FFF7AE
:10471C0083FC012811D04FF40050FFF77DFC0128D9
:10472C001ED04FF40040FFF777FC012800D008BDE5
:10473C001B4B4FF480525A6008BD1A4B1B78002B50
:10474C00E9D0194A1649136A4FF4804043F002032A
:10475C00136248604FF40050FFF75EFC0128E0D173
:10476C000F4B4FF480525A605A6C6FF300025A642C
:10477C00FEF7B4FE0D4B4FF400421A61D1E7084B23
:10478C004FF480525A605A6C6FF300025A64FEF771
:10479C00A5FE064B4FF400421A6108BD8E050020A1
:1047AC00000002408F05002000040040000401407E
:1047BC0008B50D4A0D4B12685B6AB3EB520F07D963
:1047CC000B4B4FF400125A61BDE80840FDF700BADC
:1047DC0000F052F8074B1B78834200D008BD044B05
:1047EC004FF400125A6108BD68060020001000400A
:1047FC000004014029000020024B4FF6FE721A61A2
:10480C00FDF724BF00200040024B00221A61FDF787
:10481C009FB900BF00440140034B4FF6FE714FF6A9
:10482C00FD7219611A61704700400140704700BF6A
:10483C00074B1A69910744BF4FF6FD721A61044B7E
:10484C001A69D20744BF4FF6FE721A61704700BF57
:10485C0000040040064A07491368013313604B6992
:10486C001B0400D470474FF400434B61FDF7DABDD5
:10487C004C07002000040140024BD869C0F3807043
:10488C00704700BF00000140044B1A684FF4001140
:10489C0022F400121A605961704700BF00040140F5
:1048AC00024A136843F4001313607047000401407C
:1048BC000E4B1B68952B10D80D4AD36923F00403BB
:1048CC00D3610C4B0C4A1B78002B0CBF4FF400111E
:1048DC0000215B059160D3607047FA2BF1D9044A33
:1048EC00D36943F00403D361EBE700BF68060020F3
:1048FC000000014029000020000401402DE9F04394
:10490C000029B4BFCE1C0E4626F00303073383B038
:10491C0023F0070300AFADEB030DB6106D468846D0
:10492C008146144600213246284601F075F8B8F14C
:10493C00030F17DD4846291F0022837890F8038067
:10494C0090F800E090F801C01B0443EA086343EAC6
:10495C000E03013243EA0C23964241F8043F00F166
:10496C000400EADC3E60FFF79FFBC4F30903EBB1E4
:10497C0000237B607B683A689A4211D978687B681F
:10498C0004EB800055F82310FFF7DCFB0320FFF746
:10499C0085FB7B6801337B607A683B689A42EDD378
:1049AC00FFF78EFB0C37BD46BDE8F0832046FFF7C2
:1049BC008FFBDDE7002A09DD431E013103EB020CFE
:1049CC00081AC25C03F8012F6345FAD1704700BF87
:1049DC0038B5164D164C6B6C6B642046FFF796FC85
:1049EC00144B41210B22A16122621A78A2624FF66C
:1049FC00FF73E3626269104B002142F001026261B5
:104A0C0003F8041B0D4A6162EA640D4A2B651378A6
:104A1C00AB64E36843F40073E360236843F0010381
:104A2C0040F68B1223606A6438BD00BF0000024060
:104A3C0000040040C603002050070020340400404E
:104A4C00C203002038B51D4D1D4C6B6C43F0100398
:104A5C006B642046FFF75AFC60210323194AA161BD
:104A6C0023621278184BA2624C210122E1621A7067
:104A7C0063691649164A43F001036361154BE964F7
:104A8C002A655B781733AB646B6C43F002036B6481
:104A9C006B6C43F008036B646B6C43F001036B6449
:104AAC00E36843F40073E360636C43F400436364B2
:104ABC00236843F00103236038BD00BF00000240AF
:104ACC00000400403407002050070020340400404C
:104ADC0034040020C6030020024B186900F01000BB
:104AEC00704700BF00040048024810230122022135
:104AFC00FCF7B8BD0004004862B670471C4B40F28E
:104B0C00531210B51A60FFF7D9F801210020FFF7F6
:104B1C003BF90120FFF7FAF801280446F9D10020EF
:104B2C001D21FFF77FF921460220FFF72DF91920EF
:104B3C00FFF7ECF801280446F9D10020FFF74CF9F7
:104B4C000020FFF759F90020FFF74EF92046FFF738
:104B5C002FFA0220FFF790F9FFF796F90228FBD104
:104B6C000020FFF725FABDE8104000F05DBD00BF46
:104B7C000020024008B511480121FFF7D9F80121A6
:104B8C004FF4C010FFF7D4F80223002203214FF09A
:104B9C009040FCF75BFD2023002203214FF0904056
:104BAC00FCF754FD064B002083F80C034FF48052A5
:104BBC001A600121BDE80840FFF776B81100140017
:104BCC0000E100E0084B10B44CF6CC4245F25554D1
:104BDC001C6003201A604FF47A614AF6AA225860CE
:104BEC0010BC99601A6070470030004038B53F48DF
:104BFC003F4C0121FFF79CF80025682341F28731D7
:104C0C0046F66802E1622046A5622946A261E3618C
:104C1C000122FFF7FBFB204601220221FFF7F6FBE6
:104C2C00012220460421FFF7F1FB20460121FFF76A
:104C3C00E7FB636C2F483C2262F30703636401219A
:104C4C00FFF776F82C4C2D480121FFF771F8022361
:104C5C0019462A462046FCF7F9FC2A462046012331
:104C6C000221FCF7F3FC80232A4602214FF09040EE
:104C7C00FCF7ECFC204602220121FFF7E1FA294661
:104C8C0020460222FFF7DCFA022207214FF0904067
:104C9C00FFF7D6FA2A464FF4806302214FF090407A
:104CAC00FCF7D4FC2A464FF4007302214FF09040DD
:104CBC00FCF7CCFC4FF480732A4602214FF0904055
:104CCC00FCF7C4FC02220A214FF09040FFF7B8FA1F
:104CDC00022209214FF09040FFF7B2FABDE83840AC
:104CEC00022208214FF09040FFF7AABA0B001800DF
:104CFC00002C0140110014000004004812001400A4
:104D0C0010B51948194C0121FFF712F81848012168
:104D1C00FFF70EF81023204600220221FCF796FC28
:104D2C00012220460421FFF78BFA01214FF4A01039
:104D3C00FEF7FEFF0F49104B40F68A101022486414
:104D4C0083F80B234FF4006119600C4B4FF6FF7185
:104D5C00D9629A621A6842F080021A601A6842F0AC
:104D6C0001021A6010BD00BF1200140000040048BC
:104D7C0001001C000000024000E100E000040040C3
:104D8C00F8B5FFF7BBFE244C01214FF4A010FEF741
:104D9C00CFFF102384F80B334FF400632360FFF72D
:104DAC0025FF1E480121FEF7C3FF1D4B1D484FF682
:104DBC00FF773B25DF6201219D62FEF7B9FF1A4B9D
:104DCC0032227726DA629E62302384F813334FF452
:104DDC0000232360FFF7CEFE14480121FEF7A8FF45
:104DEC00134B1448DF629E621A6842F080021A600C
:104DFC000121FEF79DFF104B4FF4FA710022D9628E
:104E0C009D6284F815234FF400132360FFF778FF9D
:104E1C00BDE8F84000F06ABB00E100E004001C00B3
:104E2C000010004008001C00002000401200180078
:104E3C00004801401100180000440140014B586328
:104E4C00704700BF002C0140014B9863704700BFB6
:104E5C00002C0140014BD863704700BF002C01406F
:104E6C00024A536943F0010353617047002C01401F
:104E7C00024B0022DA625A62704700BF0004004005
:104E8C0010B5384C012220460021FFF7DBFA2046F2
:104E9C0001220221FFF7D6FA204601220421FFF756
:104EAC00D1FA012211462046FFF7CCFA2046012206
:104EBC000321FFF7C7FA204601220521FFF7C2FAAA
:104ECC002268294B294842F001022260626C42F4AC
:104EDC0000426264626942F0010262611968244A0C
:104EEC0041F001011960596941F001015961D9681A
:104EFC0021F00101D960016841F0010101601168E4
:104F0C0041F0010111605169A3F5923341F00101A7
:104F1C0051611A6842F001021A605A6942F00102AA
:104F2C005A61DA6842F00102A4F59434DA60FFF7B2
:104F3C001DFB012200212046FFF784FA23680D4A4D
:104F4C0043F001032021236082F8071380231360B0
:104F5C0002F1C04202F50C52136843F40043136093
:104F6C0010BD00BF002C014000440140004801402E
:104F7C000010004000E100E070B54FF09044204676
:104F8C004FF4806300220121FCF760FB4FF480603A
:104F9C00A0624FF40073204600220121FCF756FB5F
:104FAC004FF400700F4DA0624FF480732046002226
:104FBC000121FCF74BFB02234FF480701946A062D1
:104FCC0000222846FCF742FB28460123002202213E
:104FDC00FCF73CFB20468023BDE8704000220221F8
:104FEC00FCF734BB000400480E4B1A7D10B58AB98F
:104FFC000D4C012319462046FCF728FB0123A36224
:10500C00BDE810404FF40073002202214FF0904095
:10501C00FCF71CBB0448012300220221FCF716FB01
:10502C00EEE700BFCC040020000400480F4B1A7DB3
:10503C0010B5802392B901214FF09040FCF706FB8C
:10504C004FF0904380229A62BDE810404FF4807379
:10505C00002202214FF09040FCF7F8BA0022022106
:10506C004FF09040FCF7F2FAEEE700BFCC040020C2
:10507C000E4B1A7D10B58AB90D4C02230121204626
:10508C00FCF7E4FA0223A362BDE810404FF48063FE
:10509C00002202214FF09040FCF7D8BA02230448BA
:1050AC0000221946FCF7D2FAEEE700BFCC04002030
:1050BC000004004870B51D4E022300220121304629
:1050CC004FF09044FCF7C2FA02204FF480630022A8
:1050DC000121B0622046FCF7B9FA01234FF480603D
:1050EC001D4619460022A0623046FCF7AFFA4FF479
:1050FC000073002229462046B562FCF7A7FA4FF44C
:10510C00007180230022A16220462946FCF79EFAFA
:10511C008023A36200224FF4807329462046FCF7BB
:10512C0095FA4FF48073A36270BD00BF0004004871
:10513C00013870B5052833D8DFE810F033005F0074
:10514C008B00B800E5000600854C01231D4619466E
:10515C0020460022FCF77AFAA5624FF090444FF4F7
:10516C000073002229462046FCF770FA4FF40071B8
:10517C0080230022A16220462946FCF767FA802092
:10518C0000224FF480732946A0612046FCF75EFA9A
:10519C004FF48073A362FFF76BFF724B724ADA61B4
:1051AC0070BD4FF090448023002201212046FCF773
:1051BC004DFA80206A4DA0624FF4807300220121C9
:1051CC002046FCF743FA01234FF480701946002265
:1051DC00A0622846FCF73AFA012100224FF4007332
:1051EC00A9612046FCF732FA4FF40073A362FFF773
:1051FC003FFF5C4B5D4ADA6170BD594C02230022C3
:10520C0001212046FCF722FA4FF0904502204FF482
:10521C00806300220121A0622846FCF717FA0123C3
:10522C004FF4806019460022A8622046FCF70EFA63
:10523C00012100224FF40073A1612846FCF706FA05
:10524C004FF40073AB62FFF7F1FE464B484ADA614C
:10525C0070BD434C01231D464FF090461946002269
:10526C002046FCF7F3F94FF4007300222946304630
:10527C00A562FCF7EBF94FF400720223B2622946E7
:10528C0000222046FCF7E2F902224FF48063294603
:10529C00A26130460022FCF7D9F94FF48063B36267
:1052AC00FFF7C4FE2F4B304ADA6170BD4FF09044CB
:1052BC008023002201212046FCF7C8F98020284DCC
:1052CC00A0624FF48073002201212046FCF7BEF946
:1052DC004FF4807102230022A16228460121FCF7C1
:1052EC00B5F9022100224FF48063A9612046012107
:1052FC00FCF7ACF94FF48063A362FFF775FE194B12
:10530C001A4ADA6170BD164D02230022012128468B
:10531C00FCF79CF94FF0904402214FF4806300227B
:10532C00A96220460121FCF791F94FF4806080239B
:10533C0000220121A0622046FCF788F9802000227F
:10534C004FF480730121A0612046FCF77FF94FF4E4
:10535C008073A362FFF748FE024B054ADA6170BD09
:10536C000004004800000140C5000040D50000408A
:10537C00E500004070B51D4E02230022012130468D
:10538C004FF09044FCF762F902204FF48063002246
:10539C000121B0612046FCF759F901234FF48060DC
:1053AC001D4619460022A0623046FCF74FF94FF417
:1053BC000073002229462046B561FCF747F94FF4EB
:1053CC00007180230022A16220462946FCF73EF999
:1053DC008023A36100224FF4807329462046FCF7FA
:1053EC0035F94FF48073A36270BD00BF0004004810
:1053FC0008B5FFF73DFEFFF7F7FDBDE80840FFF7E6
:10540C0015BE00BF054BDA696FF30002DA61186252
:10541C00DA6942F00102DA61704700BF0000024015
:10542C0070B5164C164D04F13006AE462068616816
:10543C00A268E368F446ACE80F001034B442E646C8
:10544C00F4D11048002100F1300410F8013F08227B
:10545C0059404B0011F0800F83F0070314BFD9B2F1
:10546C00490002F1FF3308BFC9B213F0FF02F0D1BB
:10547C008442EAD185F8301070BD00BFCC04002006
:10548C00540800205308002010B5174CBDF808C074
:10549C002271120AE2701A0AA1706271090A4FEAAB
:1054AC001C22617084F808C02070A371E271A446BC
:1054BC0004F1080E0021414008224B0011F0800F2E
:1054CC0083F0070314BFD9B2490002F1FF3308BFC0
:1054DC00C9B213F0FF02F0D1F44502D01CF8010F51
:1054EC00E9E7617210BD00BF5408002030B52D48AB
:1054FC002D4D2E4C89B00121FEF71AFC2C480121B0
:10550C00FEF716FC01214FF4A010FEF711FC294BFD
:10551C0001A928464022CDE90123FEF749FE0022CD
:10552C0006212846FEF78CFE2046FEF751FD03A807
:10553C00FEF77CFD204B20461A78204B0493102458
:10554C00ADF814401E4B1F4C0393002503A94FF4D8
:10555C008073ADF816200693ADF81C50FEF76EFD67
:10556C002B462A4620464FF4E131FEF797FF2046A2
:10557C000121FEF7CDFF20460121FEF7CFFF20468B
:10558C000121FEF7D7FF20460121FEF7CDFF204673
:10559C000121FEF7B7FF2A4603210A20FEF770FE11
:1055AC0009B030BD0E001800000400481C00024079
:1055BC001200140000010201C8030020540800204E
:1055CC00043801400038014030B414490B6843F0F2
:1055DC0001030B600B689B07FCD54B680F4A6FF3FC
:1055EC0001034B60536813F00C0FC3F38101F9D125
:1055FC0013680B480B4C23F0867323F48033136031
:10560C0041F610754FF480135160D56213634FF45B
:10561C001F039360846030BC704700BF00100240D1
:10562C0000ED00E00010000810B5FEF72DFC60B195
:10563C00022816D02C482D4B2D495B682D4AC3F3FC
:10564C000313CB5CD840106010BD284B5A6D9205EB
:10565C00F0D51A6B244B284812F0007F08BF18466F
:10566C00E9E7224B5968DA6A002AC1F300411CDAD7
:10567C00D86ADC6ADA6AC0F3031EC4F3082402F0A9
:10568C00070259B35B681D4813F4003F164B4FF0EB
:10569C00000108BF18460EFA02F20023A4FB000E0C
:1056AC0004FB01F1FBF70CFDC5E758685B6813F0D0
:1056BC00C04FC0F38340C3F341720BD10F2809D004
:1056CC00023019B1094B5B689B0309D50B4B03FBEB
:1056DC0000F0B0E7013000EB0210F2E70748DAE720
:1056EC00014B03FB00F0A6E700127A000010024009
:1056FC007C5A0008CC030020006CDC0200093D0041
:10570C002DE9F047089E0D4604468846002B4DD1E6
:10571C008A42944668D9B2FA82F252B101FA02F383
:10572C00C2F1200120FA01F10CFA02FC41EA030853
:10573C0094404FEA1C45210CB8FBF5FE1FFA8CF780
:10574C0005FB1E8341EA03430EFB07F199420BD97B
:10575C001CEB03030EF1FF3080F01E81994240F2E6
:10576C001B81AEF1020E63445B1AA4B2B3FBF5F0DD
:10577C0005FB103344EA034400FB07F7A7420AD9A0
:10578C001CEB040400F1FF3380F00881A74240F2C7
:10579C00058164440238E41B40EA0E4000211EB12E
:1057AC00D4400023C6E90043BDE8F0878B4208D9FA
:1057BC00002E00F0EE800021C6E900050846BDE889
:1057CC00F087B3FA83F100294AD1AB4202D382426B
:1057DC0000F2F980841A65EB030301209846002E31
:1057EC00E2D0C6E90048DFE702B9FFDEB2FA82F286
:1057FC00002A40F09180A1EB0C054FEA1C471FFAE0
:10580C008CFE0121B5FBF7F307FB1350250C45EA81
:10581C0000450EFB03F0A84208D91CEB050503F16B
:10582C00FF3802D2A84200F2CB8043462D1AA4B214
:10583C00B5FBF7F007FB105544EA05440EFB00FEE0
:10584C00A64508D91CEB040400F1FF3502D2A6458D
:10585C0000F2BB802846A4EB0E0440EA03409EE70E
:10586C00C1F120078B4022FA07FC4CEA030C20FA0A
:10587C0007F405FA01F31C43FD404FEA1C4900FAFA
:10588C0001F3B5FBF9F8200C1FFA8CFE09FB185537
:10589C0040EA054508FB0EF0A84202FA01F20BD9CA
:1058AC001CEB050508F1FF3A80F08880A84240F215
:1058BC008580A8F1020865442D1AA4B2B5FBF9F055
:1058CC0009FB105544EA054500FB0EFEAE4508D910
:1058DC001CEB050500F1FF346CD2AE456AD90238D9
:1058EC00654440EA0840A0FB0294A5EB0E05A542D6
:1058FC00C846A64656D353D05EB1B3EB080265EB4F
:10590C000E0505FA07F722FA01F3CD401F43C6E94D
:10591C0000750021BDE8F087C2F1200320FA03F1E5
:10592C000CFA02FC25FA03F395400D434FEA1C4791
:10593C001FFA8CFEB3FBF7F107FB11302B0C43EA7B
:10594C00004301FB0EF0984204FA02F408D91CEB58
:10595C00030301F1FF382FD298422DD90239634449
:10596C001B1AADB2B3FBF7F007FB103345EA034546
:10597C0000FB0EF3AB4208D91CEB050500F1FF3818
:10598C0016D2AB4214D902386544ED1A40EA0141F3
:10599C0038E73146304607E78646E5E61846FAE62C
:1059AC004B45A9D2B9EB020864EB0C0E0138A3E706
:1059BC004046EAE7204694E74146D1E7D0467BE7EC
:1059CC00023B654432E7084609E76444023842E783
:1059DC0070B50D4D0D4C641BA4100026A64209D1C8
:1059EC000B4D0C4C00F020F8641BA4100026A642B2
:1059FC0005D170BD55F8043B98470136EEE755F8D4
:105A0C00043B98470136F2E7A45A0008A45A000850
:105A1C00A45A0008A85A000802440346934200D135
:105A2C00704703F8011BF9E7F8B500BFF8BC08BCD8
:105A3C009E467047F8B500BFF8BC08BC9E46704740
:105A4C00191B12131D1516171A090A0B1E0D0E0F12
:105A5C000000000000000000010203040607080912
:105A6C00000000000102030402040608020C0810E6
:105A7C0000000000000000000102030406070809F2
:105A8C0058494C4F205354415820563200000000C6
:085A9C0070FCFF7F0100000017
:045AA40025110008C0
:045AA80001110008E0
:105AAC00007C00088713871378003C003C00D0076B
:105ABC004C046C07DC0564004A013C009001C800F2
:105ACC00010014004600DC05020105010101000083
:105ADC00D43000000105010AE80300001027000083
:105AEC00000000000A00000000000000640000003C
:105AFC00000000000000000000000000000000009A
:105B0C001027000050C30000B400D007D0070000DD
:105B1C00B400B700BA00BD00C100C400C700CA0081
:105B2C00CD00D000D300D600D900DC00E000E300AB
:105B3C00E600E900EC00EF00F200F500F700FA00D7
:105B4C00FD0000010301060109010B010E01110109
:105B5C001301160119011B011E012001230125014E
:105B6C0028012A012C012F013101330135013801A3
:105B7C003A013C013E01400142014401460147010A
:105B8C0049014B014D014E0150015101530154018A
:105B9C005601570158015A015B015C015D015E0120
:105BAC005F016001610162016301630164016501D0
:105BBC00650166016601670167016701680168019B
:105BCC006801680168016801680168016801670182
:105BDC006701670166016601650165016401630186
:105BEC0063016201610160015F015E015D015C01A5
:105BFC005B015A01580157015601540153015101DF
:105C0C0050014E014D014B01490147014601440130
:105C1C00420140013E013C013A013801350133019A
:105C2C0031012F012C012A0128012501230120011A
:105C3C001E011B0119011601130111010E010B01AB
:105C4C000901060103010001FD00FA00F700F5004F
:105C5C00F200EF00EC00E900E600E300E000DC00FD
:105C6C00D900D600D300D000CD00CA00C700C400B4
:105C7C00C100BD00BA00B700B400B100AE00AB006B
:105C8C00A700A400A1009E009B0098009500920024
:105C9C008F008C008800850082007F007C007900DA
:105CAC007600730071006E006B0068006500620086
:105CBC005F005D005A005700550052004F004D0028
:105CCC004A0048004500430040003E003C003900BB
:105CDC0037003500330030002E002C002A0028003D
:105CEC0026002400220021001F001D001B001A00AA
:105CFC0018001700150014001200110010000E00FF
:105D0C000D000C000B000A0009000800070006003B
:105D1C00050005000400030003000200020001005E
:105D2C000100010000000000000000000000000065
:105D3C000000000000000100010001000200020050
:105D4C00030003000400050005000600070008001E
:105D5C0009000A000B000C000D000E0010001100D1
:105D6C00120014001500170018001A001B001D006B
:105D7C001F00210022002400260028002A002C00ED
:105D8C002E00300033003500370039003C003E0057
:105D9C0040004300450048004A004D004F005200AF
:105DAC00550057005A005D005F00620065006800F6
:105DBC006B006E0071007300760079007C007F0030
:105DCC008200850088008C008F009200950098005E
:105DDC009B009E00A100A400A700AB00AE00B10088
:105DEC003C001E03030000000000000090010000B6
:105DFC0000000000E80300000000000000000000AC
:105E0C000000000000000000204E0000A0860100F1
:105E1C0064190000000000000100000000000000F8
:105E2C003200000000000000000000000000000034
:105E3C00000000001027000050C300000102010008
:105E4C006E00D00764000500E803061432007800E9
:105E5C004B005A005A001E0002010000FA0000001C
:105E6C00204E200050C311073100000000127A00B0
:107BE00058494C4F5F535441585F56325F34494EA9
:107BF000315F463432310000000000000000000018
:0400000508003A11A4
:00000001FF
