:020000040800F2
:10100000009000208D3D00085D5F0008615F0008D2
:1010100000000000000000000000000000000000D0
:10102000000000000000000000000000655F0008F4
:101030000000000000000000695F00086D5F00080C
:10104000DD3D0008DD3D0008DD3D0008DD3D000818
:10105000DD3D0008DD3D0008DD3D0008216200089F
:10106000DD3D0008715F00082D600008A5610008E3
:1010700091600008DD3D0008DD3D0008DD3D000811
:10108000156100085D610008DD3D00087961000818
:10109000DD3D000839610008DD3D0008DD3D000848
:1010A000DD3D0008DD3D0008DD3D0008DD3D0008B8
:0C10B000DD3D0008DD3D0008DD3D0008CE
:1010C000002243088B4274D303098B425FD3030A87
:1010D0008B4244D3030B8B4228D3030C8B420DD39A
:1010E000FF22090212BA030C8B4202D31212090228
:1010F00065D0030B8B4219D300E0090AC30B8B4266
:1011000001D3CB03C01A5241830B8B4201D38B0313
:10111000C01A5241430B8B4201D34B03C01A5241B8
:10112000030B8B4201D30B03C01A5241C30A8B42FB
:1011300001D3CB02C01A5241830A8B4201D38B02E6
:10114000C01A5241430A8B4201D34B02C01A52418A
:10115000030A8B4201D30B02C01A5241CDD2C309FC
:101160008B4201D3CB01C01A524183098B4201D378
:101170008B01C01A524143098B4201D34B01C01A63
:10118000524103098B4201D30B01C01A5241C308DB
:101190008B4201D3CB00C01A524183088B4201D34A
:1011A0008B00C01A524143088B4201D34B00C01A36
:1011B0005241411A00D20146524110467047FFE7A2
:1011C00001B5002000F0F0F802BDC0460029F7D0BC
:1011D00076E7704703460B437FD4002243088B42D7
:1011E00074D303098B425FD3030A8B4244D3030BAE
:1011F0008B4228D3030C8B420DD3FF22090212BA73
:10120000030C8B4202D31212090265D0030B8B42EE
:1012100019D300E0090AC30B8B4201D3CB03C01AD8
:101220005241830B8B4201D38B03C01A5241430BB3
:101230008B4201D34B03C01A5241030B8B4201D3A3
:101240000B03C01A5241C30A8B4201D3CB02C01A0E
:101250005241830A8B4201D38B02C01A5241430A86
:101260008B4201D34B02C01A5241030A8B4201D375
:101270000B02C01A5241CDD2C3098B4201D3CB011C
:10128000C01A524183098B4201D38B01C01A5241CB
:1012900043098B4201D34B01C01A524103098B42CF
:1012A00001D30B01C01A5241C3088B4201D3CB00BA
:1012B000C01A524183088B4201D38B00C01A52419D
:1012C00043088B4201D34B00C01A5241411A00D24D
:1012D00001465241104670475DE0CA0F00D04942B6
:1012E000031000D34042534000229C4603098B4226
:1012F0002DD3030A8B4212D3FC22890112BA030AAE
:101300008B420CD3890192118B4208D3890192112F
:101310008B4204D389013AD0921100E08909C309B4
:101320008B4201D3CB01C01A524183098B4201D3B6
:101330008B01C01A524143098B4201D34B01C01AA1
:10134000524103098B4201D30B01C01A5241C30819
:101350008B4201D3CB00C01A524183088B4201D388
:101360008B00C01A5241D9D243088B4201D34B00A3
:10137000C01A5241411A00D20146634652415B10E5
:10138000104601D34042002B00D5494270476346C6
:101390005B1000D3404201B5002000F005F802BD0B
:1013A0000029F8D016E770477047C04610B5064CC4
:1013B0002378002B07D1054B002B02D0044800E016
:1013C00000BF0123237010BD910800200000000021
:1013D000B0620008044B10B5002B03D00349044849
:1013E00000E000BF10BDC0460000000094080020CF
:1013F000B0620008F0B54546DE4657464E46CB4A39
:10140000E0B51368D16FCA4DC91ACA4C89B22D888C
:10141000480985B0218060808D425CD2C64D2D8800
:101420008D4258D90021C54D29801500211D8035D8
:1014300000E0136856680832F31A9BB298429B4149
:101440005B4208C19542F4D1A26866689446019651
:10145000E6696569B146E66A616AB246266902953F
:1014600033000396266AA769B346019EA26A7540B7
:101470004D40EE0065467D405540AD0035431E00B1
:101480005B465E40236BE0685E4035434E46534604
:1014900046405E40636B76003543DE00A36BEDB2E1
:1014A0009B001E43236C1E43E36B5B001E43A44B57
:1014B000F6B21B78002B15D0A24B984643461B78FA
:1014C000002B14D1AE4218D05422A35A0133A35298
:1014D00048230022E25405B0F0BCBB46B246A94600
:1014E000A046F0BD974B98461B78002B5FD00F238A
:1014F000984643469E1BF6B2E4E7002546268F4BEE
:101500001D80A55B0135A553256B012D01D18E4EA4
:1015100035706546019B6D029B022B4355460002C8
:101520002B43034303988900C001034302985200F0
:1015300080010343780103434846000103435846B2
:10154000C000034319430A434821635C002B1DD1AB
:101550002F2A4DDD4D21615C002900D07FE07B4DBD
:101560002A78002AB7D07A4B1B78002BB3D1744B62
:101570001B78002BAFD05023E15C914276D0E2542F
:10158000042A7DD94E230122E254A4E7012B61D025
:10159000022B5AD0032B9ED1252A9CD127324733C8
:1015A000E35AA05C6B4AD0540023635493E703F0E2
:1015B00011FC002825D04422A35C0133DBB2A354E4
:1015C000642B1ED90123424613706368E0680193BF
:1015D000A368A7699C462369616A03936369A26A49
:1015E0000293E3699946236A9B46E36A9A467EE73B
:1015F000511E2E2918D85849544DD2B20B802A704A
:10160000B1E76368E0680193A368A7699C46236912
:10161000616A03936369A26A0293E3699946236A44
:101620009B46E36A9A4649E7002A98D14F23E35C38
:10163000012B01D14C33E25400210023464A118092
:10164000424A13704E22A35445E74A33E254493BC1
:10165000635440E74933E252483B63543BE73E4919
:101660000A803A4A13704E22A35434E7042A07D959
:101670004E21635C0133DBB26354052B00D82AE7AB
:101680004E230021E154242A06D8344B92009B5863
:101690009F460122324B1A702A78324B1A7000236F
:1016A0002B7018E748230122E254F5E7294B5A7CB6
:1016B0002D4B1A70F0E7274B5A7C01239B1A2A4ABC
:1016C0001370E9E751230022E254284A0133E25221
:1016D000E2E701225123E2549B18E0221201E25278
:1016E000033BE35C012BD7D14D22A354D4E700F098
:1016F00089FA184B1A4A5B7C01331370CCE701223C
:10170000144B9A74C8E70022124B9A74C4E7012262
:10171000104B5A740022144B1A70BDE700220D4B77
:101720005A74114B01321A70B6E7C0465C070020AC
:1017300048070020DC030020C003002058050020DB
:101740002C05002069050020520500207E050020A0
:10175000170500207006002018050020C862000848
:1017600032050020480600202B000020FF0E00005C
:101770000122094B1A708FE70522084B1A708BE77C
:101780000422064B1A7087E70322044B1A7083E782
:101790000222024B1A707FE76C0500203205002000
:1017A0005222F0B52D4DA95A00293BD000200B0044
:1017B000A852080A0A09424051400F2210001B019A
:1017C00088430343264918130C5C10001840085C3A
:1017D000E40304431812EB6510401B11085C13402E
:1017E000CB5C800204435B011C431E4B1E4E1F78E2
:1017F00071327B1C9B00BF002C66F25080210125BA
:10180000F0196D3A00E041682B0093402340D3402B
:10181000C9094B40DB0183600430013AF3D2002355
:10182000F351F0BD114B1B78002B0CD1104B19005C
:101830000F2218001041012808D0013A082AF8D1D7
:101840000022AA65B5E703000100F1E7083A134159
:1018500051020B43AA6599B2ABE7C046DC030020F6
:101860005C630008D5030020440400201705002015
:10187000FFFF000070B5049E05000DE08D420FDDF6
:101880009E420BD05418F018641040108C4206D0C1
:10189000A54207DC060022009542EFDB300070BD58
:1018A0001800FCE70300611CF6E7C0460300401A7D
:1018B00000D5C81A7047C046044980B24A6A92B23D
:1018C0004B6A9B1A9BB28342FAD37047004801408F
:1018D00010B5441E00280BD0FA20064980004A6A41
:1018E00092B24B6A9B1A9BB28342FAD3013CF6D266
:1018F00010BDC046004801400300881A1A6910B59F
:1019000094469C681A6A4443644418601C6194427B
:1019100001DD14001A615242A24201DD14001A6175
:101920009A699861811ADA6851435A68596150433B
:101930005A6A40180019D861904201DD1000DA613E
:101940005242824201DD1000DA6110BD70B59F4C39
:101950009F4DC0222000296882B003F0A7F9E37DE3
:10196000032B01D90223E375207E0300083B282BBB
:1019700038D8103B182B00D8FEE003000C3B0B2B93
:1019800000D807E10300083B032B00D810E1A8882A
:10199000904BD862607E0300323B642B2BD8237DB2
:1019A000002B00D0C2E04300400868810A302B8140
:1019B000A8812822A37E022053431433EB8102F036
:1019C00001F86378002B1BD1EE89FA2396215B0086
:1019D00000933000804ADB184900FFF74BFFE88492
:1019E00002B070BD7D4B7B4AEB80D362607E03000A
:1019F000323B642BD3D996232B81413B6B81D8E7B3
:101A0000A07F0B2800D8B4E0052001F0DBFF2023E5
:101A1000E35C734A7833FF335B002B8221239446C7
:101A2000E35C704A63445B006B8222239446E35C70
:101A30006D4A6344AB822323E35CAB752423E35CF0
:101A4000013B59424B4113702523E35C0021FA33DB
:101A50002B832723E1542831635C053B142B01D9E8
:101A6000052363542921635C013B092B01D90A2317
:101A700063542A23E15C481E082861D90A21E154F5
:101A80002B21635C463B462B01D9FF2363542C2357
:101A9000E35C013B622B01D8012353702D21635C71
:101AA000013B092B01D9052363542E23E35C092B49
:101AB0000BD8022B00D185E02ED8002B06D0012BAD
:101AC00009D19370494A137005E000239370D370D5
:101AD0000122464B1A709623EE895B009E4203D288
:101AE00000220D3BFF3BEA54E17E2020FFF772FB12
:101AF000642104003000FFF7E3FA210080B2FFF711
:101B000069FB0C2168843000FFF7DAFA210080B20B
:101B1000FFF760FBA88458E7042BDCD101230020E9
:101B2000334993700B7031490870D4E70321288141
:101B3000FFF7C6FAC0B268810A30C0B2A88138E7A0
:101B40004B015B1A9B005B1A5B0029892E3BDBB2C1
:101B5000591829816989AB7659186981A98B591857
:101B6000A983E98B5918E9831A49486C03434B64EC
:101B700086E701F027FF4AE71E4B30220093182129
:101B8000164BFFF777FEA880207E03000C3B0B2B43
:101B900000D9F7E6114B182200930C21164BFFF7E2
:101BA00069FEA880207E0300083B032B00D9EEE6E7
:101BB000124B102200930721114BFFF75BFE80B2FE
:101BC000A880E5E60123D37085E7C04670060020B3
:101BD00000000020002C0140B80B0000690A000042
:101BE0006B0300005E050000D804002029040020DB
:101BF0002B04002034050000D21400009C0F0000CC
:101C00003B1F0000282210B5044B05489A5CC021F8
:101C100042701A6802F0AAFF10BDC0460000002002
:101C20007006002070B50C4C0C4A237A608959006C
:101C30008D5A88526268013394466044401BDBB27F
:101C40006060632B00D9002364212372FFF738FA08
:101C500080B2A08170BDC046D8040020800500205D
:101C600010B502F0CBFE29230C4AD35C002B06D022
:101C7000002806D10A4A937B0133937310BD0028D4
:101C8000F8D12A200649125CCB7B0133DBB2CB733F
:101C90009A42F3D200238B73F0E7C0460000002085
:101CA000D80400202B2370B5294D2C21EB5C012B8F
:101CB00041D06B5C5A1ED2B2002A2CD06A54012249
:101CC000244C13402922AB5472B6637C002B2DD0D8
:101CD00062B602F0B7FE204B62699A4202D92D2308
:101CE0000122EA540023A37323762C33EB5C2A6B86
:101CF000013B5B00E3189A83E28BA38B9B18228C39
:101D00009B18628C9B18A28C9B18E28C9B18043346
:101D10005B10A36270BD062329220E4C6B54053B59
:101D20002374AB5472B6637C002BD1D12C33E85CA6
:101D300003F06CFECCE76A5C0132D2B2062A03D90A
:101D4000044C6B542374BDE7024C6A541340B9E74A
:101D500000000020D8040020C409000001211D4A11
:101D600070B5D3688B43D360FFF79CFF1A4C1B49B7
:101D7000E28DA38D2F209B180A6B5B109446634461
:101D8000174D5A080A63285C002813D134228A5C54
:101D9000180942439B0892B262869A1A2D23CB5CA3
:101DA000A286002B13D0A36B0E4A934201D80133B5
:101DB000A36370BD3020205C9B084243920992B21D
:101DC00062869A1A2D23CB5CA286002BEBD102F0FF
:101DD0002DFEE8E700200040D8040020000000208D
:101DE000700600200F270000F0B5C646294B00B54D
:101DF00098465B697D2B18D98023DB055B6A7C2BB9
:101E00000AD842469623928F9B009A4204D24246B9
:101E1000926B643B9A421AD33E22434641469B5CF6
:101E20000133DBB28B54642B2ED835231A4D00249A
:101E3000EB5C29263527002B04D10BE0EB5D013448
:101E4000A34207DD02F0DAFDAB5D8342F6D180BC30
:101E5000B846F0BD72B602F0D9FD43464246DB8D6E
:101E6000414693858023DB055A6ACA850022898E04
:101E70005A620A4B01315A62D96201211A61DA6849
:101E80000A43DA6062B6E2E702F0C0FD0023424690
:101E90009363DCE7D804002000000020002000400D
:101EA000F0B5C64600B5C74DC74CAB7C82B0002B21
:101EB00000D1A5E0A378002B00D1D4E0C34E40238D
:101EC000E25A8323DB009A4200D399E11300303BAE
:101ED0009BB2FA2189008B420FD22B216F7C705C60
:101EE0002A39C91B884200D107E336215B00715CA7
:101EF0009BB25B1A42212F3363522F2A00D984E010
:101F000000224223E2520433E25447273723E25DA2
:101F1000F35C9A4200D97FE0EF7C002F00D189E08A
:101F20004227E05B1D2800D908E148230022E25245
:101F30002823EB5C9900C9188900884200DB09E17D
:101F40004523E35C002B57D15433E35C002B53D083
:101F50004823EA7CE05A93009B181B012E338342EE
:101F600000DB43E13F27E35D002B00D1FFE27389F3
:101F7000002A00D1DEE1FA22D20028330092892122
:101F8000934AFFF777FC5823E0522623EB5C002BA3
:101F900000D021E16374EA7C4833E15A93009B1836
:101FA0001B012E33994200DC20E12E2906D91E2385
:101FB0006A7F1341A26B934200D916E25823E35A79
:101FC0006A22B25A9A4201D25823E2526378002B15
:101FD00006D06C23F25E5823E05A904200DD13E2F3
:101FE000606E002808DD2F2906D958257949FFF7AA
:101FF000F1F8635BC018605302B080BCB846F0BD16
:102000004023E25A714E0233E25247273723E25D02
:10201000F35C9A4200D87FE7AB7D002B00D17BE7D1
:1020200003F0B0FC02F0F2FC48230022E2521E331F
:10203000E35585E74A23E35C002B7AD04B23E35C2E
:10204000002B00D0F0E06349206DFFF7C3F8482370
:1020500080B2E05280231B01984200D25AE148230B
:102060005B4AE2526CE72622AA5C002A7AD0402220
:10207000A05AFA22554E9200B77D7F00B9188842C7
:102080001BDD6A7C2B279046F25D9446424500D1C9
:10209000DDE1637C002B00D00DE144230022E254FB
:1020A000FA224B4BD20000932F23FFF7E3FB42238E
:1020B000B77DE052023BE05A7F00FA229200D21B29
:1020C000824222DD6B7C98462B234146F75C9C467E
:1020D0002A3B591A8F4200D1AAE1637C002B00D021
:1020E000E9E044230021E154153B0093384BFFF70E
:1020F000C1FB4223E052023BE05AFA23B77D9B002A
:102100007F00DB1B984200DAD5E0FA239B009C4657
:102110006744B84200DDCEE042230022E252637CF5
:10212000002B00D1C7E00023637444230132E25442
:10213000C1E04223E25A0633E25201E71E2800D1F1
:10214000F6E62823EB5C9A00D21892001100904228
:1021500000DA87E01E4AA0230092FFF78BFB48239A
:10216000E052EDE64023E05AFA23184E9B00B27D80
:102170005200D118884200DC7EE02B226B7CB25CDE
:102180009A4200D191E1FA22114BD20000932F2301
:10219000FFF770FB4223FA22E052023BE05AB37D84
:1021A00092005B00D21A82426BDCFA2292009446C3
:1021B0006344834200DA7EE042230022E252043389
:1021C000E25478E070060020D804002000000020CF
:1021D000FF07000010270000EA7C93009B184822AC
:1021E0001B01A25A2E33934200DA9CE05A23E35C8F
:1021F000002B6AD0052B65D8CC4A9B00D3589F464C
:102200002B216B7C715C994200D199E13620C84B3F
:10221000305CD1184900130089B2091A4220303BC2
:102220002F319BB2215254E64222A05A9046F26BC3
:10223000B36B2F210092BF4AFFF71CFB0100BE4881
:10224000FEF7C8FFE97E4908FEF7C4FF4C23E052C1
:102250004346E35A2E2B00D9F5E648233764E7526C
:1022600027656DE6A0231E210093713BFFF702FB5B
:102270004823E052E05B5BE6FA239B009A1A904207
:102280009ADA2B236F7CF15C2A3BDB1B994200D14D
:10229000EDE02F2300210093A64BFFF7EBFA42233A
:1022A000FA22E052023BE05AB37D92005B00D21A60
:1022B000904200DB79E7A378002B00D1A5E6FEE58C
:1022C00001F0CAFC5A230022E2542B7D002B3BD1A3
:1022D0005822A3523F33E35C002B00D196E0262323
:1022E000EB5C002B1FD0637C002B20D04023FA2016
:1022F000E15A8000FFF7DAFAFA235C229B00C31848
:102300009BB2A352B288013A93420ADB03F08EFCDF
:10231000627C09E02F2800D912E648233022E252DD
:102320000EE603F07DFA627C002A00D064E64823C2
:10233000E15A3AE6FA22D20000922F217D4AFFF7B5
:1023400099FA5823E05220E63F23E35C002B1AD190
:1023500001272D22A363B754E3732B7F002B10D0EA
:10236000E87C002810D1754A292394465C22EB5C56
:1023700063445B00A35203F053FA67740122E87CC4
:1023800003E003F0FFFAE87C627C2C233C21F35C41
:10239000013B4B436821715A5B18B4219FB21BB2B9
:1023A00049008B4200DB05E10B39FF3963523900EC
:1023B000B423773109B25B00994200DBF5E0093BB9
:1023C000FF3BE1523900B423EF3109B25B0099427F
:1023D00000DBF5E0073BFF3BE152012801D145233B
:1023E000E05458230021E1529EE758203289235AB5
:1023F000934201D213002252F28B9A4200D3DFE5BE
:102400005823E2521300DBE5E252E9E501212B3AC1
:10241000B154A3632B7F002B00D0EFE0637C002B33
:1024200000D1EEE02623EB5C002B00D05EE7E3E575
:102430004221002763744333E35C6752002B00D1D1
:1024400039E763464146F1540023637449E642226A
:10245000A352012363744333E35C002B00D12AE7CA
:10246000012362469B1AF3550023637415E6F38C2F
:10247000316B8B4200D3B1E0A38FC72B00D9ADE005
:10248000002301229846A3632D33F254023BF754F4
:1024900002F0BCFA46234246E254063BE05AFA23D5
:1024A000B27D9B0052009A1AF3E6F28C306B8242A6
:1024B00000D389E0A28FC72A00D985E00122D31A70
:1024C0002B220027B3542D232A3AF254A76302F09B
:1024D0009DFA4623E754063BE05AFA239B009C46AC
:1024E000B17D490061444EE601F044FBEAE601F0AB
:1024F00017FCE7E601F0E2FBE4E6F38C326B934273
:1025000045D2A38FC72B42D8002301229846A3634C
:102510002D33F254023BF75402F078FA4623424638
:10252000E254063BE25A1300303BDEE46C630008E1
:10253000E8FBFFFFFF07000000879303DE030000B6
:10254000F28C316B8A4229D2A28FC72A26D8012267
:10255000D31A2B220027B3542D232A3AF254A7630F
:1025600002F054FA4623E754063BE25A4EE603F0E3
:1025700009FA2D23F35C002B3AD03F230122E254C9
:1025800032891733E2520E3BEA7CE05AEFE44523EE
:10259000E35C002BB8D14022A352B1E44522A25CF7
:1025A000002AD4D14023E252AAE43B006021F13B4F
:1025B000635207E75E23693FFF3FBFB2E752F6E68B
:1025C0006221793F675208E74522A25C002A00D0C9
:1025D00074E7FA2040238000E052D4E54523E35C11
:1025E000002B00D04CE7FA2040238000E05250E658
:1025F000E35D002B08D002F019FABEE703F016FBEA
:102600006DE603F0BFF96AE6FFF74CFB044B054AA1
:1026100033638023DB055A620123E355EBE7C046B1
:10262000102700008813000070B56825094C635D11
:10263000012B0AD0022B02D0FFF732FC70BD208D97
:10264000FFF7AEF800236355F8E7FEF7D3FE00234B
:102650006355F1E7D8040020F8B5CE4647462B2352
:1026600080B54E4D5E21EA5C4D4C002A1ED1B4204F
:10267000635A400001331BB2834200DB73E06352B4
:102680006021B420625A4000013212B2824200DB63
:10269000002262526221B420625A4000013212B21A
:1026A000824200DA6DE00022625214E0625A013A7E
:1026B00013B2120400D566E063526021625A013AF7
:1026C00010B2120452D460526221625A013A10B21E
:1026D000120454D46052334A5B00985E6E23FA2190
:1026E0009846EB5A2D26C318A888C900584391462E
:1026F000FEF770FD2C4F0A21BB5D5843FEF76AFDC3
:1027000080B202F0C1FF6023E35E4A465B00985E40
:102710004346FA21EB5AC900C318A8885843FEF76C
:1027200059FDBB5D0A215843FEF754FD80B202F00B
:10273000B1FF6223E35E4A465B00985E4346FA219E
:10274000EB5AC900C318A8885843FEF743FDBB5D88
:102750000A215843FEF73EFD80B202F0A1FFC0BC43
:10276000B946B046F8BD0023625289E76822FF32BD
:1027700062526221625A013A10B21204AAD568224A
:10278000FF326252A7E76823FF3363526021625A27
:10279000013A10B2120400D495E7E7E700000020E8
:1027A000D8040020D80000207006002080210022DC
:1027B000C90570B54B6A1F4C1F4DE3854A62286BF3
:1027C0001B04420012181B0CD21893082B635309E8
:1027D0005B0098B2D3081B1A9BB26086A386A06BDD
:1027E00001E0042802D94A6A9A42FAD3134AD36212
:1027F000FFF758FA00232620A373E373A36B104955
:102800000133A3634A7F095C0A4305D1FA232A6B8B
:10281000DB009A4207D370BD132BFCD9FA232A6B35
:10282000DB009A42F7D82D230022EA5402F0FEF88A
:10283000F1E7C046D804002000000020002000403E
:10284000700600205823F0B56A22C6467025BD4C9C
:1028500000B5E35A615DA387A35A0133A352023244
:10286000A35A0133A3520232A35A0133A3521A3A94
:10287000A35C0B4304D17121605C002800D0CAE046
:10288000B14EF37F002B0DD078217022AF48635AF0
:10289000805C013382009BB2121863529200934213
:1028A00000DD94E04523E35C002B37D1A74F2D33A7
:1028B000FB5C002B04D03F23E35C002B00D011E134
:1028C0006E23E25A142A30D8A14B98464823424638
:1028D000D35C002B00D080E0A58F5423E35C002B59
:1028E00004D03F23E35C002B00D0EAE0637CFE8849
:1028F000002B00D185E05C23E05A96497043FEF737
:1029000069FCBB880133C0187E2380B2E052562395
:10291000E552914BDE6258639863D8638F4A1388FF
:102920000133138080BCB846F0BD0022E2526378C8
:10293000002B04D03F23E35C002B00D01AE1737F0F
:10294000002B00D0A4E0824B98464A23E35C002B86
:10295000BCD03F23E35C002BB8D04C233800E25AB4
:10296000A16A4030FEF7C8FF236D9C467C4B604453
:10297000984203DC0023002800DB20E12365A36BE1
:10298000632BA3D8002342463B654833D35C002B1E
:10299000A2D05623E35A4922022140468154473AA5
:1029A000A58FE81A884200DCB3E09B189DB2FA2399
:1029B0003A6BA5875B009A4200D8B6E00122AB3B98
:1029C000FF3B4146CA54F27D163BFA5485E77A2311
:1029D0000122E2540023635264E7A36B952BD8D9FC
:1029E0005623E35A952BD6D9FA22616952009142B7
:1029F00000D8DEE006214046AC3AFF3A8154433A23
:102A0000CEE73000FA216843C900FEF7E3FB7E23DE
:102A100080B2E0527BE74220205A002800D081E0BB
:102A20007226A35B4F4F01339BB2A353BB4200D826
:102A300026E77423E35A1E2B00D8CAE00123A354CF
:102A40002378002B00D1C8E07623B921E65A49004B
:102A50003000FEF735FBB92360555B0000259E4230
:102A60000ED3414B70269846404F01F0BDF86420CC
:102A7000FEF72EFF43461F60A35D0135AB42F4DC39
:102A8000E378314E002B00D0FBE62622B354F8E663
:102A90003F23E35C002B00D116E72D4B396B180068
:102AA0009A8B20309846FEF727FF636E9C46304B8A
:102AB0006044984203DC0023002800DD81E0636667
:102AC00043E74823E35A2F2B00D80FE7FE88FA216B
:102AD0003000C9006843FEF77DFB7E23013080B2E1
:102AE000E05214E701F092FFFFF7BAF8237E002BC3
:102AF00000D0E5E62933FB5CA27B002B63D0712379
:102B0000FB5C9A4200D8DBE601232376FFF74EFEFA
:102B1000D6E6581B88420DDD9B1A9DB200224A233F
:102B2000A5874EE77222A352AAE64A230022414615
:102B3000CA54D2E63423F27D4146FA5400221633B9
:102B4000CA54CAE6D8040020700600200000002005
:102B50008000002030F8FFFF002C014058050020C5
:102B6000F0583801204E000000300040AAAA0000B2
:102B700060E316002C23F35CC8325A4338007C23F0
:102B80006C25E15E7430FEF7B7FE1549FEF722FBB7
:102B90007B5B181A7B8900B27853984201DA18B22D
:102BA0007853FA23DB00984200DCC8E66C22BB5263
:102BB000C5E64922102140468154393AF0E62065A5
:102BC000DDE66066C1E67223FB5C9A4200D877E6D8
:102BD0009AE7A0536054034E53E601F005F84FE71F
:102BE0001027000070060020F0B5DE464E4657461E
:102BF0004546E0B585B002F003F9FE231B01B94A52
:102C00001968B94E914205D1B84A5968914201D12B
:102C100000F0F4FB02F0EAFC02F058FDFEF796FE2D
:102C2000B34FFB78022B01D100F03BFC0223FB7079
:102C3000B04B7B60B04BBB60B04BBB814123BB73DF
:102C4000FEF7E0FF7B7C013B5A1E93412B22B354DD
:102C5000B388F3803B7D002B00D1FB742623FB5C03
:102C6000002B12D0FA239B002022B3830123B354FC
:102C70007B820023BB82BB75738932337381B38936
:102C80003233B38133893233338100F031FF74231F
:102C900000229B4CE25202F0D5F99A4B9A4A1A60F4
:102CA00002F00EF84B23E35C002B02D04A230122F2
:102CB000E25402F097F8934B944D9846924B9B4602
:102CC000A36B042B00D9F6E004237122B354013224
:102CD000B35443465A461A607B7D002B00D0F6E081
:102CE0002B888B4A934209D954229246A25C002A2F
:102CF00000D063E387498B4200D98CE36A22864B7C
:102D0000A25A9A4219D97C23B421E35E49001804DF
:102D10009946FEF75FFA6B689C46804B60441B78CF
:102D20006860022B00D100E3032B00D1EDE2012B00
:102D300000D1E0E26A230022E252A36B9946FA2313
:102D40009B00994500D8D8E1422347220021E35A4D
:102D5000A154C72B00D842E2FA7C002A02D09F2B54
:102D600000D8D7E16A7A002A00D1DDE1C8225200FA
:102D7000934200D2D4E10321A06AFEF72BFA237C10
:102D80006061002B03D04B460A2B00D93FE26B7CDD
:102D9000002B00D1CEE0336B3C2B00D8CAE0C2211F
:102DA0005F4A890053585F480340C4205350802134
:102DB00080001358C9051B021B0A0B43C321135083
:102DC000FF20890053588343BF38034353507A236D
:102DD0009946E35C9A46002B00D0C7E02B7D002B80
:102DE00000D005E26B7D0133DBB26B75C82B00D9D7
:102DF000D5E00022914645234946E35C3E32A1548A
:102E0000002B00D03DE1A16A4748FEF7E3F93F23DC
:102E1000E35C0A21584380B26882FEF751F920230F
:102E2000F35C80B26884002B00D039E2FA226A2376
:102E3000D200F2522B23287AF95C814200D246E27A
:102E4000A36B632B00D9A4E1FA23326B5B009A4297
:102E500000D89EE10C22C03BFF3BF2542F23FB5CC9
:102E6000002B00D0ABE18023DB055A6A2F4B9A423E
:102E700000D825E73F239A46E35C9946012B00D012
:102E80001EE74722A35C0133A35401F0BFFD2D23AD
:102E90004A46F2541B33E35A2F2B04D800235246E0
:102EA000A354234B33630023A363FFF77FFCA36B7F
:102EB000042B00D808E702237122B3540132B35423
:102EC00043465A461A607B7D002B00D108E7B28842
:102ED000602100925308306BC822FEF7CBFCF080D3
:102EE000FEE6C046DAE3255900000020D963B84E5B
:102EF00070060020115349454745204E44410000CB
:102F0000D804002000300040AAAA00005805002084
:102F100010270000409C0000204E00002D040020DF
:102F200000E100E0FF00FFFFC0270900C8AF00007C
:102F300088130000C220CC4B80001A58CB491140A6
:102F40008022D2010A43C4211A50FF2089005A5816
:102F50001202120A5A5004395A5882435A507A239C
:102F60009946E35C9A46002B00D137E7EB887C2238
:102F70009A4676216B8AA25A615A287A0093534660
:102F800002F0BAFF0A2002F06DFF00234A46A35464
:102F90006B7D0133DBB26B75C82B00D829E701F0DC
:102FA00093FBB34AB3499368E88A0B4004210B436F
:102FB0009360B14BB1491B889A46B14B584399462F
:102FC000FEF77EF85346C31A64205843AD4B198868
:102FD0005346C91AFEF7FEF876239A464B461E3032
:102FE00080B228832872688BA7495843FEF7F2F80D
:102FF0004C23A64A6421D35A5843FEF7EBF85346B4
:10300000E25AD3009B1AC0185346C010E052FEF794
:1030100009FE4B46CD21E86149005843FEF7DAF836
:1030200003B2020400D562E17C22A3522378002B74
:1030300000D1DAE07623E25A063BE15C338B4B4366
:103040009A4200DBCFE04523914899468446E35CF1
:10305000298C9A05D21AD200D2185201D21A013103
:10306000920089B262442984914200DD06E2002286
:103070006A750022914649463E32A154002B00D188
:10308000C1E648239A46E35A302B58D95422A25C11
:10309000002A54D0313B572B00D955E124239A46BE
:1030A000EB5C002B00D0D7E1FFF7D6FAFB7E794826
:1030B00019009946FEF78EF84823E25A49460390D4
:1030C00075489246FEF786F830217822039B0090DF
:1030D0005046FEF7CFFB502399464A466B4B985219
:1030E0000004000CFEF7E8FB4A469620674B800080
:1030F000995AFEF76FF86882E2E54223E35A002B03
:1031000018D14722A3544A46642A68D8FA7C002A78
:1031100000D127E647220021A1546A7A002A03D071
:1031200047230022E25426E6952B54D83723642205
:10313000F25420E64A46642A00D80DE609E6012347
:1031400099464A462333EA543B7F002B58D0292323
:10315000B188F85C0B004000133BC0187E239A46F0
:103160004B1C0393F38880B2A0875843FEF732F8D4
:10317000039B181A5346E05202F052FB5346E25AA0
:10318000464B5A639A63DA634B46637400236B823F
:1031900096E50C23FA2200935200093B64216069F2
:1031A000FEF768FB3523326BF054312A00D955E61F
:1031B0000222F2542F23FB5C002B00D153E617238D
:1031C000FA22A08F64210093D2000A3BFEF752FB43
:1031D0003023E05447E637230A22F254CBE5472256
:1031E0000021A154B8E500232B844533E35C3EE77E
:1031F00002F058FE302002F035FE53462B75F1E503
:10320000264A53639363D36302F0BCFBBEE701001D
:10321000E868FEF74BFB63695A08904219D9FA2215
:10322000D200934215D20022A2632A7C01322A7472
:10323000BA7C002A11D14832A25A2F2A0DD93F2236
:103240000021A1542D220121B15432895531520857
:1032500062520022EB60227499E5FA22316B9200EF
:103260009142EFD9EBE7C04600E100E0FF00FFFF2D
:1032700000240140E8FFFF7FA875FF1FB80B000086
:10328000E40C0000CA75FF1FFF0F00008000002043
:10329000204E0000581B00002A030000002C0140B3
:1032A000B38B718C9946B38C9A464E239C466246EA
:1032B000874B9B5A524600934B46FEF7DBFA6A2334
:1032C000F0522B23287AF95C814200D3B8E5804A7A
:1032D0002333D35A0A005B08994601230A3200932C
:1032E0000A394B46FEF7C6FA6A23F052A8E57C235A
:1032F0000022E2529AE680232A7A9B001343754A01
:1033000013800223744A137014E576231921E05ABE
:10331000FDF7D6FEFF2303408020C00018436D4B0D
:103320006D4A18800123137004E54B463221D8B250
:10333000FDF7C6FEC3B2C020C0001843654B664A05
:10334000188003231370F5E424230122EA54FFF7C5
:1033500083F95346E35AC82B05D95E234A46E25205
:103360005B4A0E3BD3525023594AD05AFEF7A4FA77
:103370005E23E35E002B00D0A2E445223F21A3544C
:10338000443A6254123972548021544AC905326356
:103390006261EA604A621422A2634D4A6374523346
:1033A000D25C263BF2547B7F002B02D05623B2899D
:1033B000E252FEF777FC02F079F981E402F0E2FADA
:1033C00000255346E5540C3BE5522933E5540333BD
:1033D000E552434B5D639D63DD6302F06FF980222C
:1033E000290052003F4802F05AFFBFF34F8F3E4B77
:1033F0003E4ADA60BFF34F8FC046FDE71B7B2B2BA5
:1034000061D0352B5BD01F2B01D0FFF703FC384B6D
:103410003360FFF7FFFB914602F0B4FA4A46534689
:10342000E2544823E2522933E2540333E2522C4B54
:103430005A639A63DA6302F041F980220021520054
:10344000284802F02CFFBFF34F8F274B274ADA6042
:10345000BFF34F8FC046FDE70121264AD3688B4357
:10346000D36001F0D3FA4A461D4B5A639A63DA637C
:1034700002F020FC53464A46EA5415E600239A46D9
:1034800052464833E25202F07DFA01F0BFFA52464A
:103490003F23E2543533E252203BE2544B46E35C97
:1034A000E5E53B79112B01D0FFF7C0FB17337A78A4
:1034B000F35C9A4201D3FFF7C5FBFFF7B7FB0E4B56
:1034C0003360FFF7A7FB0D4B3360FFF7A3FBC0464C
:1034D000800000202E0400202D040020282300005E
:1034E000002C01405C07002000ED00E00400FA051C
:1034F000007C00080020004000F8000800F80108E7
:10350000F0B5654C83B063682268981A634B01007C
:10351000C218634B9A4238D80023624E624D338002
:103520002B78002B43D06B78002B17D1AB78002B76
:1035300000D196E0A8885D4F01333988AB70FEF763
:10354000B5F9322800D86CE000232B703B88AB80A3
:103550006B78002B09D061682368C91A544B9942D3
:1035600053D9AB794B2B00D980E000235149524A03
:10357000A868338012680B88C41A944211DC1C1AA4
:10358000A24212DA9B1A0B800DE000224B4B1A80EC
:10359000454B98684749484A0B881268C41A9442B8
:1035A000EDDD9B180B8003B0F0BD0880FBE7444BBA
:1035B0009C7C002C0FD0434B1A88904219D8424B68
:1035C0001988FA239B0000930023FEF753F9A860A3
:1035D00000233380DEE7354B1A883B4B19883B4B81
:1035E00000932F23FEF746F930283DDC0020AC6025
:1035F000EEE72E4B511C1C88FA23DB0000932200BF
:10360000334BFEF737F9A860E2E72F48AB7904881F
:103610000133E200121B5118DBB2C908AB71018003
:10362000A0E73988226863689B1ACA00521A9B185F
:10363000DB08AA789BB23B80322A00D887E7254A6C
:10364000193B94469BB23B806344DA0FD318212286
:103650001B495B108B5401236B7000F0FDFA3B8813
:1036600075E780B2A88066E7A860B1E7164A002433
:103670001388134919339BB21380174A2C70944650
:103680006344DA0FD31820225B108B54FEF7BAFA8A
:10369000AC7100F013FB68E75C070020DFFCFFFF64
:1036A0007605000058050020300700201200002099
:1036B000E104000018050020B80300204C0500209C
:1036C000700600201400002010000020FF070000FA
:1036D000E90300002AF9FFFF12FDFFFF164A938855
:1036E000591E022912D8154BD9683B290DD8002143
:1036F00013481974012301700E2012490B701249EE
:10370000087020219171114A13707047043B042BFB
:10371000FBD80A49CB68632BF7D8012309480B74FF
:103720000370074808490370072008702021917131
:10373000064A1370E9E7C046B803002030070020AE
:10374000D4030020DA040020D5030020490500201E
:10375000F0B5314EC64632000027002000252F4B21
:103760002F4C984600B59C8008CA7C361168994257
:1037700006D0CB1AA34201D201259CB20127C01862
:1037800004320B00B242F1D1002D01D043469C809F
:10379000002F23D0234B244C4009D8602378012BE1
:1037A00023D0224E3378012B25D02278134312D117
:1037B000FFF794FF43469B881D4AC93B9BB2934247
:1037C00009D83F211B4A01231170022241468A7108
:1037D000194A3370137080BCB846F0BD0020114BFD
:1037E000114CD8602378012BDBD1FFF777FF0F4E08
:1037F0003378012BD9D1424692880D49C93A92B209
:103800008A42E8D83F210B4A1170022241468A7150
:10381000094A1370DFE7C0465C070020B8030020A8
:10382000204E000030070020DA040020DB040020D6
:10383000564D0000D40300204905002070B5534CBC
:103840002378002B03D0524B1B78002B06D1514B11
:103850001B78002B50D0012B0AD070BD4E4B1B782B
:10386000002B36D001F02CFA02224C4B1A70F4E7F0
:10387000474B1B78002B32D1494D2B78012B73D04D
:10388000484B1B78012B65D02378002BE5D12B7892
:10389000002B39D04449454B4A7C072A35D8188833
:1038A000052832D94D69424CAC46E06F246801329C
:1038B0006044D2B2001B4A744861082A25D1C2086C
:1038C000C00992B280B23B4C1518101A25810883AA
:1038D0001BE001F039FA0122304B1A70BDE72E4B84
:1038E0001B78002B0DD0344B1888FDF759FFFDF7DE
:1038F00081FD01F0E5F9B0E7FFF72AFF01F0E0F9FB
:10390000ABE701F021FAA8E7284B2C4C20880028CF
:1039100007D1254A1278002A2BD11A8801321A8041
:103920009BE700221A80264B0026984200D894E795
:103930001D4D698BFDF7BAFF322820D82B7F01334C
:10394000DBB22B77322B02D96B78002B13D0238874
:103950006B8382E701F03EFA164B002811D0032258
:103960009A7101F0ADF98FE7FDF744FD01F0A8F978
:1039700086E7188071E700F0D3F901232B702E77CA
:10398000E5E702229A71FFF7BBFDEAE72C0500206C
:103990006905002049050020580700204005002047
:1039A000DA040020DB040020300700204C05002052
:1039B0005C070020B8030020000500201A05002045
:1039C000DC050000031C0B2800D90B23014A5B0017
:1039D000137070474D070020F8B5DE4657464E4637
:1039E00045460320E0B502F011F87C239B46354B99
:1039F000354C9946354B00259A46A34411E0617831
:103A000000292FD1E801401B314B40008019596338
:103A100080B29963D963FDF75BFF002502345C45F2
:103A20000DD053462B4A26781A6000234A4613804D
:103A3000FF2EE4D101350234EDB25C45F1D101F045
:103A4000A1FF00232449224A09889362D1624A4691
:103A500013801E4B1F4A1A60F0BCBB46B246A946F3
:103A6000A046F8BD4B015B1ADB00591AFA231B0173
:103A70009C461A486144FDF7ADFB0A23144F010030
:103A80008046BB621648FDF7A5FB164BF8621B7813
:103A900015495843FDF79EFB7863B863F863E80166
:103AA0004146451B1148FDF795FB6D00AE19642199
:103AB0007043FDF78FFB0004000CFDF709FF0025A4
:103AC000ACE7C04658050020A406002000300040A6
:103AD000002C0140AAAA000004000020C0D8A700C2
:103AE00000A861004D070020690A0000A0860100BF
:103AF00010B572B63023194AD35CFF2B07D0FFF7FD
:103B00006BFF174B1A88174BDA6262B610BD154C63
:103B1000154B0320E362154B1B786363A363E363D8
:103B200001F074FF3723C820A362FDF7D1FE052002
:103B300001F06CFF2823C820A362FDF7C9FE062010
:103B400001F064FF1923C820A362FDF7C1FE01F054
:103B500019FF0023064AA3621380D2E770060020F3
:103B600004000020002C0140690A00004D070020DD
:103B70005805002070B5154B154CE36272B63C2316
:103B8000144D154E01202E60A362144B1B78636305
:103B9000A363E36301F03AFF4B20FDF799FE502346
:103BA0004B20A362FDF794FE5A234B20A3622E60A4
:103BB000FDF78EFE01F0E6FE0023094AA3621380A2
:103BC000084B1B88E36262B670BDC046690A0000FC
:103BD000002C014000300040AAAA00004D07002040
:103BE000580500200400002010B572B6134C144B89
:103BF000144AE362144B03201A605023A362134B50
:103C00001B786363A363E36301F000FF6420FDF7A7
:103C10005FFE46236420A362FDF75AFE282364203A
:103C2000A362FDF755FE01F0ADFE0023084AA36232
:103C30001380084B1B88E36262B610BD002C014064
:103C4000690A0000AAAA0000003000404D070020C9
:103C5000580500200400002010B5114B114C022023
:103C6000E3623223A362104B1B786363A363E363B5
:103C700001F0CCFE9620FDF72BFE0C4A0C4B962053
:103C80001A601E23A362FDF723FE01F07BFE0023D2
:103C9000084AA3621380084B1B88E36210BDC0462C
:103CA000690A0000002C01404D070020AAAA00006C
:103CB00000300040580500200400002010B5114BD2
:103CC000114C0220E3622823A362104B1B7863632C
:103CD000A363E36301F09AFE9620FDF7F9FD0C4A19
:103CE0000C4B96201A605023A362FDF7F1FD01F002
:103CF00049FE0023084AA3621380084B1B88E36235
:103D000010BDC046690A0000002C01404D0700208C
:103D1000AAAA00000030004058050020040000203E
:103D2000F8B5134D134BEB6272B67724124B134F59
:103D30001B78134E6B63AB63EB63142120003E6072
:103D4000FDF748FA01F062FE63100A330A20AB6205
:103D5000023CFDF7BDFD631CEFD101F013FE002313
:103D6000084AAB621380084B1B88EB6262B6F8BD51
:103D7000002C0140690A00004D070020003000407F
:103D8000AAAA000058050020040000200D4885461E
:103D9000002103E00C4B5B58435004310B480C4BA3
:103DA00042189A42F6D30B4A02E000231360043211
:103DB000094B9A42F9D302F03DFA02F043FAFEF7BA
:103DC00013FFFEE7009000203C6400080000002084
:103DD000DC030020DC030020AC080020FEE700002C
:103DE0008268030010B50120D20710D48C684A689D
:103DF000D8682243CC6809682243054C204002431E
:103E00000020DA601A69920092080A431A6110BD14
:103E1000C73FFFFF8268030010B50120D20715D409
:103E2000DA684868920212D40C4CDA6822400C68B6
:103E300022438C682243CC6822430C69496922439F
:103E40000A43DA609A6A10439862002010BDF02895
:103E5000EAD1024CDA6822400C68EBE73CC2FEFF74
:103E60000368020010B50120002B10DB4C680B68C2
:103E7000106823438C682343CC6823430C69496949
:103E800023430B430249014000200B43136010BD44
:103E90000F7C00FEF0B5DE4657464E464546E0B57F
:103EA0000A684B6883B0002A00D172E09C46012367
:103EB00001245B4263449846A34600230AE00E694E
:103EC000C56874434E4635402C43C460140001332A
:103ED000DC4041D05C4615009C4025402242F5D094
:103EE0002C006C436700BA46A2445746FF43B946CC
:103EF00057460668BE43674667433E4306604646EC
:103F0000012EDCD88668B2468E6857466643019615
:103F10004E4637403E00019F37438760C6684F4694
:103F2000B2460E6966430196564637403E00019FF1
:103F300037436646C760022EC8D1FF2D1DD86443A3
:103F4000056A2601361BB5434E69013374432C4381
:103F500004621400DC40BDD14346012B05D8436800
:103F6000C96893434A431A434260002003B0F0BC3F
:103F7000BB46B246A946A046F0BD2D0A6D436D432F
:103F8000446A2E01761BB4434E697543254345624E
:103F90009CE7013B9846DFE703200E4A10B5D36843
:103FA00018400338431E98410B4B40429C46184032
:103FB000D368D1685B044906D46860445B0E490F3E
:103FC00058430131FDF77CF8610F0131FDF778F8B6
:103FD00010BDC0460010024000127A003823154A76
:103FE00070B5916804000B40082B1AD0102B1AD121
:103FF000FFF7D2FF03001F200E4D2360AA680E4971
:104000001205120F920051580140CB406360AA681C
:104010000A495204520F920052580240D340A36002
:1040200070BD074BE7E71268064B9204520FD3406E
:10403000E1E7C04600100240D463000814640008A1
:1040400000127A000024F400030010B503281CD0ED
:1040500000200C2B00D010BD324A3349506D034074
:10406000C020000303438B4243D030498B4237D0FA
:104070002F498B4218D1382391680B40082B43D02D
:10408000102B43D1FFF788FFE5E7264A2949506DF9
:104090000340C020800203438B422AD026498B4232
:1040A0001ED026498B42E6D0382391680B40082B5E
:1040B00028D0102B30D1FFF76FFF1F21194B204C58
:1040C0009A689B681205120F920012595B040A400D
:1040D000D0405B0F1B4A9B009B580B40D840BAE76F
:1040E000D36D0222100018401A42B4D08020000282
:1040F000B1E7126880231000DB0018401A42AAD0F2
:104100001148A8E71148D8E71048A4E713680E48FB
:104110009B045B0FD8409EE713680B489B045B0F22
:10412000D840CAE70010024008000C000C000C0048
:1041300004000C0002000300030003000100030060
:10414000D4630008146400080024F40000127A000C
:104150001D4A0368904226D08022D205904219D091
:104160001A4A904216D01A4A904217D0194A9042E1
:104170001DD0194A90421AD0184A904217D00360B5
:104180008B68C3620B8883620122436913434361D6
:1041900000207047702293434A681343104A13402B
:1041A000CA681343EBE7702293434A6813430C4AEF
:1041B0001340CA68134303608B68C3620B88836231
:1041C0000B7C0363E0E7C046002C01400004004084
:1041D00000200040004001400044014000480140F0
:1041E000FFFCFFFF802370B55B01994200D1E1E045
:1041F00041D8102900D10AE180235B00994270D197
:10420000016AA14EA14C31400162036A4168C5694F
:104210002540146825439E4C1C4013691B02234310
:104220005468334024021C439A4B984208D09A4B5E
:10423000984205D0994B984202D0994B984213D19D
:10424000984B994E1C4053690E409B022343974C58
:1042500023409468A4021C4393691901944B314391
:104260001940D3695E013143D3684160C561C363BE
:104270000462002070E080235B02994200D16CE070
:1042800080235B03994266D1016A8A4D8A4C29409A
:104290000162036A416D2140146824020C4387497E
:1042A000194013691B050B4351682B4009050B434B
:1042B0007849884208D07849884205D077498842B1
:1042C00002D07749884206D1456891697C4E8902BF
:1042D000354029434160D2684465C26503620020CD
:1042E0003AE0012937D1036A684E8B430362036ABF
:1042F000446885693540166835430226B34316691C
:1043000033438B4351680B436249884208D062496A
:10431000884205D06149884202D06149884213D160
:1043200008218B43190053699B000B4304218B43E5
:10433000916889000B4354490C4091690C435449DE
:104340000C40D16949000C43D268446085614263E6
:104350000362002000E0012070BD016A594D5A4CF3
:1043600029400162036A416D0C4011680C435749B2
:10437000194013691B040B4351682B4009040B437C
:104380004449884208D04449884205D0434988427C
:1043900002D04349884206D145689169494E0902D5
:1043A000354029434160D2684465816D826503626E
:1043B0000020D1E7016A3C4E454C31400162036A5E
:1043C0004568C1692140146824020C4338491940EA
:1043D00013691B030B435168334009030B432D49F9
:1043E000884208D02C49884205D02C49884202D006
:1043F0002B49884204D137490D40916989010D4309
:10440000D2684560C461026403620020A4E7036AC5
:104410002F4D8B430362036A466884692C401568FC
:104420002D022C432025AB431D0013691B012B4398
:104430008B4351680D0117492B43884208D0164918
:10444000884205D01549884202D01549884214D1C6
:1044500080218B431D00536940399B012B438B43C3
:1044600091688D0111492B430E4091690D4D8900D2
:1044700031432940D569EE000E43D268466084611D
:1044800082630362002067E7FFFEFFFF8CFFFEFFF1
:10449000FFFDFFFF002C01400040014000440140AF
:1044A00000480140FFF7FFFFFFEFFFFFFFFBFFFFAB
:1044B000FFDFFFFFFFFFEFFFFF8FFFFEFFFFDFFFCD
:1044C000FFFFFBFFFFFFFEFF8FFFFEFFFFFFFDFF74
:1044D000FF8CFFFEFFBFFFFF8A680B7B10B5134305
:1044E0001A4A1B4C13404A6813431A4A13400A687D
:1044F0001343194A1A40CB891343184A13400A69D7
:104500001343174A1340CA6A134323401A43154BF7
:10451000984202D04264002010BD134B1A404B69F0
:104520001A43124B1A408B691A43114B1A404B6ABB
:104530001A43104B1A40CB691A430F4B1A400B6AAF
:104540001A430E4B1A408B6A1A43E3E7FFFBFFFF47
:10455000FF7FFFFFFFF7FFFFFFEFFFFFFFDFFFFF23
:10456000FFBFFFFF002C0140FFFFF0FFFFFFFFEF49
:10457000FFFF0FFFFFFFFFFEFFFFFFFDFFFFFFDF5E
:10458000F0B5C64600B5036804000D00012784B0ED
:10459000DB072BD48B68096902680B4369690B43FD
:1045A000E9690B4334490A40134303604368334AC3
:1045B0001340EA68134343608368314A1340AA6991
:1045C000134383602F4B984215D02F4B984223D032
:1045D0002E4B98421BD02E4B984218D02E680F229B
:1045E000E36A36049343360C1E43E662380004B097
:1045F00080BCB846F0BD0320FFF726FD002803D09D
:104600006B689846002B0BD101272E68E7E701A8BD
:10461000FFF7E4FC0398F1E70C20FFF715FDEDE749
:104620002E6800270B2EDAD88023EA691B029A42F3
:104630000ED0184BB200D158FCF742FD43465B0840
:10464000C0184146FCF73CFD03041B0CE360C6E7C1
:10465000104BB200D158FCF733FD434640005B08D5
:10466000C0184146FCF72CFD0B4B03400007400FE0
:104670001843E060B3E7C046F369FFEFFFCFFFFFE9
:10468000FFFCFFFF003801400044004000480040AC
:10469000004C004088630008F0FF0000FA2110B5CC
:1046A0008900FCF70DFD0022034B013858609A6029
:1046B00005321A6010BDC04610E000E0014B1860E2
:1046C0007047C046D8030020054B064A99881180E0
:1046D0005988054A11801A88044B1A807047C046D1
:1046E000500700206E05002072050020E204002023
:1046F000C220124B80001A5811491140C0221204E6
:104700000A431A5080220321D2001A600D4B0E4A30
:104710009A600E4ADA605A68120C12040A435A6010
:104720001A6801390A431A601A6806310A431A6086
:104730001A6807390A431A607047C04600E100E072
:10474000FFFF00FF1C0002404024014050070020F2
:10475000002300B583B0009301932A4B9A68D207D7
:104760004ED49A6828491140802252050A439A6023
:10477000264B27491868FCF7A3FC830018180A2168
:104780008000FCF79DFC0090009B002B05D0009B57
:10479000013B0093009B002BF9D10321194BDA68F0
:1047A0000A400192DA688A43DA609A68194911402E
:1047B000802212060A439A609A68002AFCDB0320D2
:1047C0000199DA6882430A43DA6040230093009B30
:1047D000002B05D0009B013B0093009B002BF9D1DF
:1047E000084A0C4993680B4001210B4393601368FE
:1047F0001942FCD08023084A1B0411680B43136044
:1048000003B000BD00240140E8FFFF6FD803002083
:10481000400D0300E8FFFF7F08270140F0B5CE46BA
:104820004746802680B593B01822002106A801F0E3
:1048300036FD1022002102A801F031FD10220021D6
:104840000EA801F02CFD0121A027402403255B4B7D
:1048500076031A6CFF0532431A641A6C884632409C
:104860000192019A5A6B38000A435A635B6B0C94AD
:104870000B4000930CA9009B0D95FFF70BFB202329
:104880000D9500250CA9380099460C931095FFF75B
:1048900001FBFF2105274A4A13688B433B43136002
:1048A000484B49491A680A401A601A68474911403A
:1048B000802292010A4349461A601A688A430A43D1
:1048C0001A601A686031A2431A601A68404C0A43A1
:1048D0001A601A683F4920001140802292000A4362
:1048E0001A601A683C4911408022D2000A433B49B1
:1048F0001A600B683A4A1A403A4B13430B60F02394
:104900001B020793434606A90A9306950895099545
:104910000B95FFF77FFA4246236970219343236189
:104920002369314A20001A4080239B0413438022CC
:104930002361E368920313438022E3602369120337
:104940009B009B0813430722236163699343033A47
:104950001343636163690B436361636802A9934313
:10496000636063680432934363600395049505951F
:10497000FFF736FA0F22A36A93433B43A3626369AE
:104980001A4A1340F0226361A36A9343903A134397
:10499000A3626369164A13406361A36A154A1A4009
:1049A000C0231B011343A3626369134A13401E43D0
:1049B000666113B0C0BCB946B046F0BD00100240FD
:1049C000040802401C000240EFBFFFFFFFCFFFFFC3
:1049D00000240140FFFCFFFFFFF3FFFF0827014019
:1049E000FFFF3FFE001000B0FFFFFFDFFFDFFFFF14
:1049F000FFBFFFFFFFF0FFFFFFFFEFFF024B1B6852
:104A000018684000C00F7047C40300208021054B88
:104A100005485A5802405A508022D202DA601A6180
:104A20007047C04600180240FFFFFBFF8022034989
:104A300003488B58406803438B507047001802406E
:104A4000C4030020C8223F4930B50B68520093428E
:104A50006AD23D4B1A78002A4FD13C4A3C490B7828
:104A6000012B35D0042B33D0022B3CD0052B3AD070
:104A7000032B13D0062B11D0364B1B78002B19D0EB
:104A8000354B3648196801401960196834480140AF
:104A90001960596852680A435A6030BD106831493C
:104AA0000368194098239B000B430360294B1B7834
:104AB000002BE5D1284B526819680A431A605A68DE
:104AC00027490A405A605A6824490A405A60E4E774
:104AD00014682448236818409C239B0003432360E8
:104AE0000B78022BC2D114681E4823681840A023FB
:104AF0009B00034323600B78BAE7144A1A4D1068F1
:104B000004682C40046000241C7096240968A400EA
:104B1000A142A3D90168144C0C408021C902214351
:104B200001600121197099E796229200934200D802
:104B300093E7054B1A78002A00D08EE7034A1068E5
:104B4000E8E7C046EC04002056070020C40300201C
:104B50002C0000202900002000180240FFFFFBFF6E
:104B6000FFFFFDFF0FFCFFFFFFFFF3FFF0B5CE4699
:104B700047460326884680B585B015006A46CB17A0
:104B80001E404644B610B3000733DB08DB00D31ADF
:104B900000AF9D466C46814632000021200001F0A6
:104BA0007EFB4346032B13DD4846002293009C46C0
:104BB0008178C37809041B060B43017801320B434B
:104BC0004178043009020B43614663509642EDDCA4
:104BD0008021344A7E60490213690B42FCD153693B
:104BE000002B04DA304B196891605B6893606B05A9
:104BF0001BD102212B4A53690B4353615169EB0AC4
:104C0000DB000B4380215361536949020B4353611D
:104C100013690B42FCD1012311690B4200D01361CF
:104C20000221204A53698B4353610023BB60FB6020
:104C3000FB687A689A4228D98022012619495202D3
:104C40004B6933434B61F868BB68800000595B19BE
:104C50001860F868BB6801308000005904335B19A4
:104C600018600B691342FCD10B691E4200D00E6123
:104C70004B69B3434B61BB680833BB60FB680233CD
:104C8000FB60F8687B689842DAD38023BD46054A0A
:104C90001B0651690B43536105B0C0BCB946B04611
:104CA000F0BDC04600200240CC030020002A06DDF3
:104CB0005218401A0B78435401319142FAD170478F
:104CC0000221174B1748DA6A0A43DA62DA6A8A4322
:104CD000DA624122144B01399A61373A1A62134A57
:104CE00012789A62124ADA625A690A435A610022B9
:104CF00002705A620F48104AD06010489060104805
:104D0000007850600F4810608022D86892000243FB
:104D1000DA601A6A0A431A621A680A431A6070470C
:104D2000001002405807002000040040D403002077
:104D3000FFFF00005C070020080002403404004030
:104D4000BE0300208B0900000221194B1948DA6AC2
:104D50000A43DA62DA6A8A43DA626022164B17493A
:104D60009A615D3A1A62164A12789A625C22DA6295
:104D70005B3A0A705969114359611249C860124877
:104D800088601248407817304860114808608021D8
:104D9000D86889000143D960196A114319628021DA
:104DA000586C09020143596419680A431A60704734
:104DB0000010024044040020000400405807002076
:104DC000400700200800024034040040D4030020C3
:104DD0009B0900001020024B1B6918407047C04619
:104DE000000400500449054ACB681A4080235B0048
:104DF0001343CB607047C04600040050FFFCFFFF28
:104E0000024B034A9A6062B67047C04600ED00E06C
:104E10000010000807212C4A10B513688B43053990
:104E20000B43136013688022284B520019680A4311
:104E300080211A60C9001A680A42FCD001211A6E4A
:104E40000A431A66214B01311A6E1142FCD0DA680E
:104E50001F4911401F4A0A43DA6080221968520430
:104E60000A431A608022D96852050A438021DA6019
:104E7000164B89041A680A42FCD09A681649134CEA
:104E80000A4007219A609A688A4305390A439A6062
:104E90003822A3681340102BFBD1104AA368104896
:104EA0001340A360FFF7FAFB0D48FFF707FC0C481F
:104EB000FFF704FC636D0B4A13406365636D9B0051
:104EC0009B08636510BDC0460020024000100240F0
:104ED0008C80FF1F02080020FFF0FFFFFF8FFFFF05
:104EE0000090D003FFFFBFFFF0B5C646012600B516
:104EF00090B0484C1822002104A801F0D0F91022EB
:104F000000210CA801F0CBF9636BA020334363634D
:104F1000636B032733400393039B0223626B0AA94D
:104F20001A436263626BC00513400293029B042321
:104F30000B970A93FEF7AEFF0823A02000259846A2
:104F40000AA9C0050A930B970E95FEF7A3FF4346E7
:104F50000AA931480A930B970E95FEF79BFF802311
:104F60000AA92D4898460A930B970E95FEF792FFD3
:104F7000236C04A933432364236C284C1E40019600
:104F8000019B80239B0005934346200006930795D1
:104F900008950995FEF764FF2368214A21481340CC
:104FA00023602168204B014021601A6802401A608A
:104FB00021681E48014021601A681D4902401A609C
:104FC0001C4B00951868FCF77BF8C82343430093FB
:104FD000009B002B05D0009B013B0093009B002B06
:104FE000F9D18422144B15489958014099508021D9
:104FF0005A5802405A50C321FF20114B89005A5879
:1050000082435A50802252011A6010B080BCB846C8
:10501000F0BDC046001002400004005004020140F0
:10502000FFFFF3FFFFF7FFFF00020140FFBFFFFF9D
:1050300080841E00D803002000180240FFFFFBFF01
:1050400000E100E0084B094A07211A60084A1A608B
:1050500000225A60074A9A60DA681142FCD1054A78
:105060001A61054A1A60704700300040CCCC00003D
:1050700055550000FF0F0000AAAA0000F0B5DE465B
:1050800057464E464546E0B5A3B01422002103A87A
:1050900001F005F9202200210EA801F000F93022CC
:1050A000002116A801F0FBF81822002108A801F041
:1050B000F6F880227B4F12013B6C7B4D13433B641F
:1050C0003B6C03A913400293029B784B2800904647
:1050D0000593FFF73DF880222B68914613432B6020
:1050E000AB69783A13430024AB61602393460121F6
:1050F0000EAA28000E930F941094119412941394F6
:1051000014941594FFF76EF80422AB69924693430A
:105110004246AB61AB6910211343AB610EAA280074
:105120000F941094FFF75EF85946AB69604A614EE0
:105130001340AB61736828000B4373600EAB1A0019
:10514000F8310F941094FFF74DF85146736828001A
:105150008B434146736073680F940B4380217360E7
:105160000EAB1A0049011094FFF73CF87368504ADF
:10517000802113405A467360F36B28001343F36396
:105180000EAA49020F941094FFF72CF85246F36BC5
:1051900064219343F3636B686C3293436B606B6879
:1051A000454A280013404A466B60AB68A0269343EB
:1051B0006A46AB603C235218137066226B469B18FC
:1051C0001C8080239B011A93802316A99B041E93A5
:1051D0001694179418941B941C941D941F94209457
:1051E0002194FFF779F9012202257B6B9046134346
:1051F0007B637B6BF60513400193019B7B6B08A9D6
:105200002B437B637B6B30002B400093009B4B4612
:10521000099508930A940B940C940D95FEF73AFEA9
:105220004346264F08A93800089309950A940B9421
:105230000C940D95FEF72EFE08A9380008950995E7
:105240000A940B940C940D95FEF724FE802308A974
:105250005B003000089309950A940B940C940D950B
:10526000FEF718FE802308A99B00300008930995DB
:105270000A940B940C940D95FEF70CFE80233000DD
:10528000DB0008A9089309950A940B940C940D95DA
:10529000FEF700FE23B0F0BCBB46B246A946A046CE
:1052A000F0BDC04600100240002C0140690A000019
:1052B000FFFBFFFF182C0140FFFF0FFF0004005011
:1052C00030B587B001AD14220021280000F0E7FFBF
:1052D0000123114A8024D16BE4051943D163D26BB9
:1052E000290013400093009B1F232B800B4B2000B1
:1052F0000393FEF72DFF802223680949934323601F
:10530000A3680B407021A36063688B436360A3684C
:105310009343A36007B030BD00100240FFFF0000C0
:10532000F8BFFEFFF0B58FB003AD142200212800B6
:1053300000F0B5FF0C2200210AA800F0B0FF022205
:1053400001263C4B3C48D96B80271143D963D96B6C
:105350003A4C114002910299596B11435963596BB0
:10536000114001910199596B314359635B6B08A955
:1053700033400093009B1023099208930D96FEF78B
:1053800089FDFF2120202E4A13688B4303431360BD
:105390002C4B1A6822401A601A682B4C22401A6063
:1053A0001A682A4C82431A601A68203082431A60B5
:1053B0001A682748BA433A431A601A681040802294
:1053C000520002431A601A682248104080221201DB
:1053D0000243C4201A60204B80001A588A431A5096
:1053E000802252021A6000231C4A290020002B80D0
:1053F000049305920693FEF7ABFE70222368BB432D
:105400002360636893436360A3686D3ABB43A36002
:10541000A36993433343A361A36909329343A3610F
:10542000A369E4329343A361236AE63A13432362F8
:105430000FB0F0BD0010024000040050EFBFFFFFAE
:105440000008024008000240FFCFFFFF00040040B8
:10545000FFFCFFFFFFF3FFFF00E100E0FFFF0000A4
:1054600030B587B001AC14220021200000F017FFF6
:105470008020124A0002116C114D01431164C421B5
:10548000136C104A034000938900009B5358280076
:105490001B021B0A535080231B0313601F2323800E
:1054A0000023094A2100029303920493FEF750FE61
:1054B00080222B6893432B6007B030BD0010024060
:1054C0000020004000E100E0FFFF000030B587B0A1
:1054D00001AC14220021200000F0E1FE80200C4AE3
:1054E000C002116C0B4D01431164136C2100034089
:1054F0000093009B3F232380074B28000393FEF774
:1055000027FE80222B6813432B6007B030BDC046B6
:105510000010024000480140FFFF00000123104A34
:1055200082B0916B0F4819439163926B1340C22272
:105530000193019B0C4B9200995808408021C901AE
:105540000143995080218900196099580748084003
:105550008021C90301439950F8321A6002B07047A4
:1055600000100240FF00FFFF00E100E0FFFF00FF2E
:1055700030B587B001AD14220021280000F08FFE65
:105580001023C420154A8000D16B154C1943D163F8
:10559000D26B144913400093009B134B1A581140CF
:1055A000802212020A431A50802292021A603F237C
:1055B0002B80002329000293200032330393FEF74F
:1055C000C7FD8022702123689343236063688B4367
:1055D0006360A3689343A36007B030BD001002402E
:1055E00000100040FF00FFFF00E100E030B50125A2
:1055F0008021224C85B0236C49052B432364236C06
:105600002B400193019BE26B0A43E263E36B0B4087
:1056100008210093009B1A4B1A680A431A601A6803
:1056200008310A431A608023164A5B0011680B4355
:105630001360FFF7EFFB636B2B436363636B1D40EA
:105640000295029B0223626B1A436263626B1340F2
:105650000393039BFFF762FFFFF746FCFFF70EFD86
:10566000FFF72EFEFFF75EFEFFF7FAFEFFF72EFFB5
:10567000FFF77EFF00F026FB05B030BD00100240B2
:105680000000014000200240014B58637047C046B3
:10569000002C0140014B98637047C046002C01402C
:1056A000014BD8637047C046002C01400121024ADB
:1056B00053690B4353617047002C01400022024B99
:1056C0009A625A627047C0460004004010B5012437
:1056D0001021494B82B01A6A22431A621A6A0A439D
:1056E0001A628022196A52000A4304211A621A6A55
:1056F0000A431A621A6A3C310A431A628022196A02
:10570000D2000A431A628022196A52020A431A62BC
:105710008022196A52010A431A6264221A641A68C2
:1057200022431A608022596C12020A435A645A6951
:1057300022435A61314B1A6A22431A621A68224381
:105740001A602F4B1A6822431A605A6922435A6121
:10575000DA682243DA60DA68A243DA60294B1A6811
:1057600022431A605A6922435A618023DB051A6872
:1057700022431A605A6922435A61234B1A68224312
:105780001A605A6922435A61DA682243DA60FFF7E5
:1057900045F8FEF7ADFFFEF7DBFF00231B4A019340
:1057A00013681B491C431B4B14601868FBF788FCEB
:1057B000830018180A210001FBF782FC0190019B6D
:1057C000002B05D0019B013B0193019B002BF9D1DC
:1057D000C1208021104A8000135809061B021B0AB1
:1057E0000B4313508023136080220C491202C858C7
:1057F0000243CA5002B010BD002C0140000400401A
:105800000020004000480140001000400402014018
:10581000400D0300D803002000E100E00018024022
:10582000A023DB051A6819490C201140802252037D
:105830000A431A608022D2009A621A681449114001
:105840008022D2020A431A60802292009A621A6869
:1058500010491140802252020A431A6080220E49E8
:1058600052009A620A688243043802430A600A6856
:1058700005388243013802430A601A68074911401B
:10588000802212020A431A607047C046FFFFCFFF12
:10589000FFFFF3FFFFFFFCFF00040050FF3FFFFF8F
:1058A0000E4B0F4A1B7D002B10D1032113688B4335
:1058B00002390B4313609162A021C9050B68094AA4
:1058C0001A4080231B0313430B60704703211368A6
:1058D0008B4301390B431360EEE7C046700600208E
:1058E00000040050FFFFF3FF114B1B7D002B14D170
:1058F000A023DB051A680F4911408022D2010A4318
:105900001A6080229A62A021C9050B680A4A1A40CF
:1059100080239B0213430B607047A021C9050B68CD
:10592000044A1A4080231B0213430B60EBE7C04676
:1059300070060020FF3FFFFFFFFFFCFF0E4B0F4AEA
:105940001B7D002B11D10C2113688B4308390B43AD
:10595000136002239362A021C9050B68084A1A400C
:1059600080239B0313430B6070470C2113688B4308
:1059700004390B431360EEE770060020000400506A
:10598000FFFFCFFF0C211C4A1C4813688B430839CA
:105990000B43136002239362A023DB0519680840C0
:1059A000802149030143196080210320C9009962C5
:1059B0001168814302380143116090621A681049EE
:1059C00011408022D2020A431A60802292009A6219
:1059D0001A680C4911408022D2010A431A608022C1
:1059E0009A621A6808491140802252020A431A60DA
:1059F000802252009A62704700040050FFFFCFFFE0
:105A0000FFFFF3FFFF3FFFFFFFFFFCFF10B506287E
:105A10002CD8804B80001B589F4603217E4A136878
:105A20008B4302390B431360A0239162DB051A6894
:105A30007A4911408022D2020A431A6080229200E1
:105A40009A621A68764911408022D2010A431A608C
:105A500080229A611A6873491140802252020A43D7
:105A60001A60802252009A62FFF768FF10BDA023DF
:105A7000DB051A686A49032011408022D2010A43DB
:105A80001A6080229A621A68664911408022520286
:105A90000A431A608022604952009A620A6882436F
:105AA000023802430A6088611A685C49114080220A
:105AB000D2020A431A60802292009A62FFF73EFFE8
:105AC000D4E70C21544A584813688B4308390B43D8
:105AD000136002239362A023DB051968084080212C
:105AE00049030143196080210320C90099621168AC
:105AF000814302380143116090611A68474911409F
:105B00008022D2020A431A60802292009A62FFF732
:105B1000EBFEABE70321404A404813688B43023950
:105B20000B431360A0239162DB05196808408021B4
:105B3000C9020143196080210C2089009962116813
:105B40008143083801431160022191611A68364986
:105B50001140802252030A431A608022D2009A62C6
:105B6000FFF7C2FE82E7A023DB051A682C490C2050
:105B700011408022D2010A431A6080229A621A6878
:105B800028491140802252020A431A608022224989
:105B900052009A620A688243083802430A6002226D
:105BA0008A611A6820491140802252030A431A6010
:105BB0008022D2009A62FFF773FE57E70C21164A43
:105BC00013688B4308390B43136002239362A023AD
:105BD000DB051A6814491140802252030A431A60F7
:105BE0008022D2009A621A680D4911408022D201A7
:105BF0000A431A6080229A611A680A491140802279
:105C000052020A431A60802252009A62FFF748FE4D
:105C10002CE7C046B863000800040050FFFFF3FF04
:105C2000FF3FFFFFFFFFFCFFFFFFCFFF0C211C4AE0
:105C30001C4813688B4308390B431360022393619C
:105C4000A023DB051968084080214903014319603E
:105C500080210320C9009962116881430238014301
:105C6000116090611A68104911408022D2020A43E3
:105C70001A60802292009A621A680C4911408022B0
:105C8000D2010A431A6080229A611A6808491140B9
:105C9000802252020A431A60802252009A627047A0
:105CA00000040050FFFFCFFFFFFFF3FFFF3FFFFFA8
:105CB000FFFFFCFF10B5FFF741FEFFF7F1FDFFF717
:105CC00013FE10BD30B591B02022002108A800F0CD
:105CD000E6FA1022002104A800F0E1FA8020504BDF
:105CE000C001196C4024014319641A6C012502405B
:105CF0000192019A0222596B4A48114359635B6B26
:105D000002A913400093009B029403920595069507
:105D1000FEF7C0F8C620C021434A80001358090688
:105D20001B021B0A0B4313508023FF211B0513602A
:105D30003E4A13688B43CC390B4313603C4B3D49BF
:105D40001A680A4010210A431A601A683A490A4040
:105D500020211A601A688A431A601A686031A243C7
:105D60001A601A68354C0A431A601A6834492000D0
:105D70000A401A601A6833490A401A60E122520246
:105D8000002309920C2208A908930A930B930C9301
:105D90000D920F93FEF7F4FBA3682B4ADB00DB08A0
:105DA000A360A36880211340A3602368274AC90326
:105DB000134023606368264A134022226360A3686D
:105DC0009343A360A3681A3A13438022A360236815
:105DD00092031D432560E3691342FCD0E3690B4243
:105DE000F9D0134B1B4C1A681B481C492240102A3F
:105DF00013D09860D9600E4B19495A680978120C73
:105E000012040A4302215A601A680A431A601A6887
:105E100006310A431A6011B030BDD8609960EAE7D4
:105E2000001002400004005000E100E008080240B9
:105E300030000240EFBFFFFFFFCFFFFF00380140FF
:105E4000FFFCFFFFFFF3FFFFFFFFFFF1FFFFFFDF9F
:105E5000FFB7FFFF104000005C0800202838014019
:105E6000D603002010B50C2408230C4A1168A14366
:105E7000194311600A494B681B0C1B040343802023
:105E80004B609368034393600B687F3803430B6058
:105E900004211368A3430B43136010BD0038014075
:105EA0003000024070B5124C30222000260011490B
:105EB00000F0ECF90725200000233036027853402B
:105EC000082204E0013AD2B2DBB2002A09D059B26A
:105ED0005B000029F6DA013A6B40D2B2DBB2002A4D
:105EE000F5D101308642E9D13032A35470BDC046AD
:105EF0005C08002070060020F0B5050005A8164ECD
:105F000000880C0A3700B1703271110AB3711A0A95
:105F1000030A7470F3710724002330723570F17036
:105F20007271701C093708226B4004E0013AD2B24A
:105F3000DBB2002A09D059B25B000029F6DA013A37
:105F40006340D2B2DBB2002AF5D1874202D0057895
:105F50000130E8E77372F0BD5C0800207047C0466E
:105F6000FEE7C0467047C0467047C0467047C0460F
:105F700010B5254B1B78002B03D0244B1B78002B2E
:105F80002AD10422224B19680A420BD021490978F0
:105F9000002907D00A242048016AA143083C214374
:105FA00001625A601A4B1A68920705D41A681207E0
:105FB00001D501225A6010BD01215A680A435A6076
:105FC0000022164B1A60FDF739FC8023144A1B028D
:105FD00091680B439360EEE701240D4A5368234315
:105FE000536000220D4B1A600E4B1B78002B05D01E
:105FF000FEF766FE02220C4B1A70E6E7FEF7A4FEDF
:10600000094B1C70E1E7C0462C0500206905002003
:1060100000000240DB0400200004004008000240B1
:10602000001802405807002040050020154B10B50D
:106030001A68920603D510225A60FEF745FB8022AB
:10604000104B19680A4200D05A600E4B1A6892052C
:106050000BD41A68120507D58022012152005A601C
:10606000094A13688B43136010BD0021074A117061
:106070008022012152005A60034A13688B43136047
:10608000F2E7C04600000240300002405205002006
:1060900070B580251C4CED0223692B421BD1E368AF
:1060A0002B4208D180252369AD022B4213D1E3682E
:1060B0002B4200D170BD8023DB055A6A134B1B684D
:1060C0005B089A421BD8FEF799FC114B1B78834260
:1060D000F0D1E560EEE78023DB055A6A0B4B1B68C5
:1060E0005B089A4207D8FEF789FC094B1B7883426C
:1060F000E0D12561DEE72561FBF776FEDAE7E560B2
:10610000FBF772FED6E7C04600180240EC04002000
:1061100029000020074B1A69920702D50322524238
:106120001A61044B1A69D20702D5022252421A613F
:106130007047C04600040040074B1A69920702D519
:10614000032252421A61044B1A69D20702D5022275
:1061500052421A617047C04600440140054B10B5D9
:106160001A69D20700D410BD022252421A61FCF70C
:1061700069FBF8E70010004070B5074D074C6B6AEB
:106180002380FBF7EBFD0222054B52421A616B6A3A
:1061900022889B1A238070BD004801408E08002091
:1061A00000200040194B30B51A6819688022080099
:1061B00092031040114213D08022012152035A60F1
:1061C000134A144813688B431360134B5A6C0240F4
:1061D0005A641A688A431A600022104B1A7030BD44
:1061E0001A681202FBD5012409490A4D0A68A24324
:1061F0000A60094A516C294051641168A143116039
:10620000064A1070802252035A60E8E700000240FC
:106210006C000240FF7FFFFF004401409008002017
:10622000802210B5024B1202DA60FCF7FDF910BDB6
:10623000001802408022024B12059A607047C04647
:1062400000ED00E070B500260C4D0D4C641BA41051
:10625000A64209D1002600F02BF80A4D0A4C641B17
:10626000A410A64205D170BDB300EB589847013683
:10627000EEE7B300EB5898470136F2E734640008C4
:10628000346400083464000838640008002310B542
:106290009A4200D110BDCC5CC4540133F8E703002E
:1062A0008218934200D1704719700133F9E700005A
:1062B000F8B5C046F8BC08BC9E467047F8B5C04665
:0862C000F8BC08BC9E467047C3
:1062C800981600089216000890170008881700080A
:1062D8008017000878170008701700081C170008B6
:1062E8000E17000806170008FE1600089816000882
:1062F800EE160008D2160008C41600089816000802
:1063080098160008981600089816000898160008AD
:10631800B6160008AC16000898160008981600086B
:10632800981600089816000898160008981600088D
:10633800981600089816000898160008981600087D
:10634800981600089816000898160008981600086D
:10635800A4160008191B12131D1516171A090A0B83
:106368001E0D0E0FC4220008C0220008F4240008E5
:10637800EE240008E8240008C02200086400000099
:1063880001000000020000000400000006000000F8
:10639800080000000A0000000C00000010000000C7
:1063A8002000000040000000800000000001000004
:1063B8006C5A00086E5A0008C25A0008145B00089C
:1063C800665B0008BC5B00081A5A00080000000061
:1063D80000000000000000000000000000000000B5
:1063E80000000000000000000000000001000000A4
:1063F8000200000003000000040000000600000086
:10640800070000000800000009000000000000006C
:106418000000000000000000000000000100000073
:0C6428000200000003000000040000005F
:04643400D513000874
:04643800AD13000898
:10643C0000F80008690A690A78003C003C00D007A3
:10644C004C046C07DC0564004A013C009001C80058
:10645C00010014004600DC050201020101010000EC
:10646C00D43000000105010AE803000010270000E9
:10647C00000000000A0000000000000064000000A2
:10648C000000000000000000000000000000000000
:10649C001027000050C30000B400D007D0073C0008
:1064AC001E0202000000000090010000000000002D
:1064BC00E8030000000000000000000000000000E5
:1064CC0000000000204E0000A086010064190000AE
:1064DC00000000000100000000000000320000007D
:1064EC0000000000000000000000000000000000A0
:1064FC001027000050C30000010201006E00D007FD
:10650C0064000500E8030000B400B700BA00BD0049
:10651C00C100C400C700CA00CD00D000D300D60013
:10652C00D900DC00E000E300E600E900EC00EF003D
:10653C00F200F500F700FA00FD000001030106016E
:10654C0009010B010E0111011301160119011B01A7
:10655C001E0120012301250128012A012C012F01F4
:10656C0031013301350138013A013C013E01400152
:10657C00420144014601470149014B014D014E01C5
:10658C0050015101530154015601570158015A0150
:10659C005B015C015D015E015F01600161016201F3
:1065AC0063016301640165016501660166016701B0
:1065BC006701670168016801680168016801680189
:1065CC00680168016801670167016701660166017E
:1065DC006501650164016301630162016101600190
:1065EC005F015E015D015C015B015A0158015701BD
:1065FC00560154015301510150014E014D014B0103
:10660C004901470146014401420140013E013C0160
:10661C003A0138013501330131012F012C012A01D6
:10662C0028012501230120011E011B01190116015E
:10663C00130111010E010B010901060103010001F7
:10664C00FD00FA00F700F500F200EF00EC00E900A5
:10665C00E600E300E000DC00D900D600D300D00057
:10666C00CD00CA00C700C400C100BD00BA00B7000D
:10667C00B400B100AE00AB00A700A400A1009E00C6
:10668C009B009800950092008F008C00880085007C
:10669C0082007F007C0079007600730071006E0030
:1066AC006B006800650062005F005D005A005700D7
:1066BC00550052004F004D004A0048004500430071
:1066CC0040003E003C0039003700350033003000FC
:1066DC002E002C002A002800260024002200210075
:1066EC001F001D001B001A001800170015001400D5
:1066FC001200110010000E000D000C000B000A001F
:10670C00090008000700060005000500040003004E
:10671C000300020002000100010001000000000063
:10672C00000000000000000000000000000001005C
:10673C000100010002000200030003000400050038
:10674C00050006000700080009000A000B000C00F9
:10675C000D000E001000110012001400150017009F
:10676C0018001A001B001D001F002100220024002D
:10677C00260028002A002C002E00300033003500A3
:10678C00370039003C003E00400043004500480003
:10679C004A004D004F005200550057005A005D0052
:1067AC005F006200650068006B006E007100730092
:1067BC00760079007C007F008200850088008C00C8
:1067CC008F009200950098009B009E00A100A400F1
:1067DC00A700AB00AE00B1000614320078004B00ED
:1067EC005A005A001E000201FA000000204E200040
:1067FC0050C300000402014000000400230167455F
:0C680C00AB89EFCD0A0731000024F40036
:10F7E0004C554D454E4945525F53494547455F4746
:10F7F0003037310000000000000000000000000071
:0400000508003D8D25
:00000001FF
